S02B00007475727265745F736572766F5F6D73735F64657369676E5F4D53535F434D335F305F6170702E73725F
S315200000000000012099020020090300200B03002094
S315200000100D0300200F030020110300200000000024
S315200000200000000000000000000000001303002074
S3152000003015030020000000001703002019030020EC
S315200000401B0300201D0300201F0300202103002086
S315200000502303002025030020270300202903002056
S315200000602B0300202D0300202F0300203103002026
S31520000070F51F00202120002037030020390300200F
S315200000803B0300203D0300203F03002041030020C6
S31520000090C1070020E5070020470300204903002070
S315200000A04B030020000000000000000000000000BC
S315200000B00000000000000000000000004D030020AA
S315200000C0050800205103002053030020550300207B
S315200000D057030020590300205B0300205D03002006
S315200000E05F030020610300206303002065030020D6
S315200000F067030020690300206B0300206D030020A6
S315200001006F03002071030020730300207503002075
S3152000011077030020790300207B0300207D03002045
S315200001207F03002081030020830300208503002015
S3152000013087030020890300208B0300208D030020E5
S315200001408F030020910300209303002095030020B5
S3152000015097030020990300209B0300209D03002085
S315200001609F030020A1030020A3030020A503002055
S31520000170A7030020A9030020AB030020AD03002025
S31520000180AF030020B1030020B3030020B5030020F5
S31520000190B7030020B9030020BB030020BD030020C5
S315200001A0BF030020C1030020C3030020C503002095
S315200001B0C7030020C9030020CB030020CD03002065
S315200001C0CF030020D1030020D3030020D503002035
S315200001D0D7030020D9030020DB030020DD03002005
S315200001E0DF030020E1030020E3030020E5030020D5
S315200001F0E7030020E9030020EB030020ED030020A5
S31520000200EF030020F1030020F3030020F503002074
S31520000210F7030020F9030020FB030020FD03002044
S31520000220FF03002001040020030400200504002011
S3152000023007040020090400200B0400200D040020E0
S315200002400F040020110400201304002015040020B0
S3152000025017040020190400201B0400201D04002080
S315200002601F04002021040020230400202504002050
S3152000027027040020290400202B0400202D04002020
S315200002802F040020310400203304002035040020F0
S315200002903704002039040020684880476848002831
S315200002A00BD168486849694A884206D091421CBFEA
S315200002B050F8043B41F8043BF8D165486549664A45
S315200002C0884206D091421CBF50F8043B41F8043BBB
S315200002D0F8D162486249634A914218BF41F8040B3B
S315200002E0FAD100000000000000000000000000001D
S315200002F0DFF874010FF2030E00474FF000004FF0B5
S315200003000001DFF868F1FEE7FEE7FEE7FEE7FEE71D
S31520000310FEE7FEE7FEE7FEE7FEE7FEE7FEE7FEE78F
S31520000320FEE7FEE7FEE7FEE7FEE7FEE7FEE7FEE77F
S31520000330FEE7FEE7FEE7FEE7FEE7FEE7FEE7FEE76F
S31520000340FEE7FEE7FEE7FEE7FEE7FEE7FEE7FEE75F
S31520000350FEE7FEE7FEE7FEE7FEE7FEE7FEE7FEE74F
S31520000360FEE7FEE7FEE7FEE7FEE7FEE7FEE7FEE73F
S31520000370FEE7FEE7FEE7FEE7FEE7FEE7FEE7FEE72F
S31520000380FEE7FEE7FEE7FEE7FEE7FEE7FEE7FEE71F
S31520000390FEE7FEE7FEE7FEE7FEE7FEE7FEE7FEE70F
S315200003A0FEE7FEE7FEE7FEE7FEE7FEE7FEE7FEE7FF
S315200003B0FEE7FEE7FEE7FEE7FEE7FEE7FEE7FEE7EF
S315200003C0FEE7FEE7FEE7FEE7FEE7FEE7FEE7FEE7DF
S315200003D0FEE7FEE7FEE7FEE7FEE7FEE7FEE7FEE7CF
S315200003E0FEE7FEE7FEE7FEE7FEE7FEE7FEE7FEE7BF
S315200003F0FEE7FEE7FEE7FEE7FEE7FEE7FEE7FEE7AF
S31520000400FEE7FEE7FEE7FEE7FEE7FEE7FEE7FEE79E
S31520000410FEE7FEE7FEE7FEE7FEE7FEE7FEE7FEE78E
S31520000420FEE7FEE7FEE7FEE7FEE7FEE7FEE7FEE77E
S31520000430FEE7FEE7FEE7FEE7FEE700006D2B002065
S31520000440000000000000002000000020882E002070
S31520000450882E0020882E0020942E002000000000E8
S31520000460942E002008300020312C00200509002081
S3152000047042F69463C2F200031A780AB90120187072
S31520000480704700BF42F68860C2F2000008B50368D4
S315200004902BB140F20003C0F2000303B1984708BD18
S315200004A080B483B000AF0346FB804EF20013CEF239
S315200004B00003B7F906204FEA5212F98801F01F010E
S315200004C04FF0010000FA01F143F8221007F10C0762
S315200004D0BD4680BC704700BF80B483B000AF0346E2
S315200004E0FB804EF20013CEF20003B7F906204FEA46
S315200004F05212F98801F01F014FF0010000FA01F1B4
S3152000050002F1200243F8221007F10C07BD4680BCF9
S31520000510704700BF80B483B000AF0346FB804EF225
S315200005200013CEF20003B7F906204FEA5212F988DB
S3152000053001F01F014FF0010000FA01F102F1600203
S3152000054043F8221007F10C07BD4680BC704700BF58
S3152000055080B582B000AF0346FB714FF01400FFF761
S31520000560BBFF42F20003CEF2040342F20002CEF2B7
S315200005700402126B22F040021A6345F20003C4F211
S3152000058000034FF000025A6540F20003C4F20A232A
S315200005904FF00002C3F8802140F20003C4F20A2380
S315200005A04FF00002C3F8882140F20003C4F20A2368
S315200005B0FA79C3F8842145F20003C4F200034FF010
S315200005C001021A614FF01400FFF7A4FF07F1080794
S315200005D0BD4680BD80B400AF40F20003C4F20A23BA
S315200005E04FF00102C3F88021BD4680BC704700BF92
S315200005F080B400AF40F20003C4F20A234FF0000299
S31520000600C3F88021BD4680BC704700BF80B483B04C
S3152000061000AF786045F20003C4F200037A685A609E
S3152000062007F10C07BD4680BC704700BF80B500AF00
S3152000063040F20003C4F20A234FF00102C3F88821D6
S315200006404FF01400FFF72CFF80BD00BF80B500AF30
S3152000065040F20003C4F20A234FF00002C3F88821B7
S315200006604FF01400FFF738FF80BD00BF80B400AF05
S3152000067045F20003C4F200034FF001021A61BFF3F2
S315200006804F8FBD4680BC704780B582B000AF034611
S31520000690FB714FF01500FFF71FFF42F20003CEF269
S315200006A0040342F20002CEF20402126B22F0400250
S315200006B01A6345F20003C4F200034FF000025A65A4
S315200006C040F20003C4F20A234FF00002C3F880244C
S315200006D040F20003C4F20A234FF00002C3F8882434
S315200006E040F20003C4F20A23FA79C3F8842445F2BF
S315200006F00003C4F200034FF001029A624FF0150086
S31520000700FFF708FF07F10807BD4680BD80B400AF9C
S3152000071040F20003C4F20A234FF00102C3F88024FA
S31520000720BD4680BC704700BF80B400AF40F20003D6
S31520000730C4F20A234FF00002C3F88024BD4680BCD1
S31520000740704700BF80B483B000AF786045F20003E5
S31520000750C4F200037A68DA6107F10C07BD4680BC53
S31520000760704700BF80B500AF40F20003C4F20A23F1
S315200007704FF00102C3F888244FF01500FFF790FED2
S3152000078080BD00BF80B500AF40F20003C4F20A234B
S315200007904FF00002C3F888244FF01500FFF79CFEA7
S315200007A080BD00BF80B400AF45F20003C4F2000351
S315200007B04FF001029A62BFF34F8FBD4680BC70474F
S315200007C080B500AF42F68C63C2F200034FF00102FF
S315200007D01A60FFF74BFFFFF70BFFFFF737FF00F01D
S315200007E08DFC80BD80B500AF42F69063C2F2000357
S315200007F04FF001021A60FFF7D5FFFFF795FFFFF7CD
S31520000800C1FF80BD684620F007018D4681B587B0BF
S3152000081000AF42F68C63C2F200031B68002B60D047
S3152000082040F22403C4F205033B613B691B687B61EC
S315200008307B6903F101037B613B697A691A603B6935
S3152000084003F104033B6142F65453C2F200031B78C2
S315200008503B7307F10C0342F6EC60C2F20000194626
S315200008604FF0010201F012FE4FF00003BB6003E0DF
S31520000870BB6803F10103BB60BA6842F20F739A4268
S31520000880F6DD00F0E1FC42F65852C2F2000207F112
S31520000890040312681146198003F102034FEA12423B
S315200008A01A7007F1040342F6EC60C2F20000194602
S315200008B04FF0030201F0EAFD4FF00100FFF748FE7A
S315200008C046F20050C1F6CD50FFF7A0FEFFF782FE9C
S315200008D0FFF7ACFE42F68C63C2F200034FF0000233
S315200008E01A604FF0000001F05BFC4FF000004FF063
S315200008F0000101F003FC07F11C07BD46BDE881405D
S315200009008546704780B594B002AF40F21003C4F21A
S315200009100503BB6040F21403C4F20503FB6040F2FA
S315200009202003C4F205033B6140F22403C4F205030D
S315200009307B6140F23403C4F20503BB6140F2380305
S31520000940C4F20503FB614FF000033B627B694FF065
S3152000095000021A6042F6EC60C2F2000040F200117A
S31520000960C4F2050140F28A224FF0010301F040FC57
S3152000097000F0C4FB4FF01F00FFF792FD4FF0000080
S315200009804FF0400101F09CFB4FF0000001F0D6FB38
S315200009904BF6A033C0F20D037B624BF6A033C0F2B8
S315200009A00D03BB62FB687A6A1A60BB68BA6A1A6072
S315200009B000F01EFA42F6F463C2F200036FF07F02E3
S315200009C01A7042F6F463C2F200034FF042025A70E4
S315200009D042F6F463C2F200034FF000029A7042F628
S315200009E0F463C2F200034FF00002DA7042F6F463B9
S315200009F0C2F200034FF000021A7142F6F463C2F20B
S31520000A0000034FF000025A7142F6F463C2F200036B
S31520000A104FF000029A7142F6F463C2F200034FF0DF
S31520000A200002DA7142F6F463C2F200034FF00002CC
S31520000A301A7242F60070C2F200004FF0000100F078
S31520000A40DBFE4FF00603009342F60070C2F2000070
S31520000A5042F6F461C2F200014FF0030242F6E0636F
S31520000A60C2F2000300F094FF42F60070C2F20000CA
S31520000A704FF0000100F044FF42F6E063C2F20003AB
S31520000A805B7803F01003002B0CBF00230123FB62CD
S31520000A9042F6E063C2F200035B7803F04003002BCA
S31520000AA00CBF002301233B6342F6E063C2F200033E
S31520000AB05B7803F02003002B0CBF002301237B630C
S31520000AC042F6E063C2F200035B785BB24FEAD3736F
S31520000AD0BB6342F6E063C2F200035B7803F00203D5
S31520000AE0002B0CBF00230123FB634FF000033B6464
S31520000AF0FB6A002B24D13B6B002B21D07A6A44F26F
S31520000B004023C0F20F039A4204D1FB684FF47A7255
S31520000B101A6010E07B6A03F51C5303F110037B6215
S31520000B207A6A44F6D353C1F26203A3FB02134FEA57
S31520000B309312FB681A603B6C03F101033B6426E0C9
S31520000B403B6B002B23D1FB6A002B20D07A6A43F221
S31520000B500053C0F20C039A4204D1FB684FF448724A
S31520000B601A6010E07B6AA3F51C53A3F110037B6285
S31520000B707A6A44F6D353C1F26203A3FB02134FEA07
S31520000B809312FB681A603B6C03F102033B647B6B98
S31520000B90002B20D1BB6B002B1DD0BB6A002B04D1B0
S31520000BA0BB684FF000021A6010E0BB6AA3F51C5325
S31520000BB0A3F11003BB62BA6A44F6D353C1F26203AF
S31520000BC0A3FB02134FEA9312BB681A603B6C03F136
S31520000BD004033B6426E0BB6B002B23D17B6B002BED
S31520000BE020D0BA6A47F24073C0F21B039A4204D15E
S31520000BF0BB684FF4E1621A6010E0BB6A03F51C5330
S31520000C0003F11003BB62BA6A44F6D353C1F26203FE
S31520000C10A3FB02134FEA9312BB681A603B6C03F1E5
S31520000C2008033B64FB6B002B3BD13B694FF038023A
S31520000C301A603B6C03F110033B6442F69063C2F2E8
S31520000C4000031B68002B31D042F65C52C2F2000230
S31520000C503B4612681146198003F102034FEA1242FD
S31520000C601A703B4642F6EC60C2F2000019464FF07D
S31520000C70030201F00BFC4FF00100FFF705FD43F6E0
S31520000C800030C0F65800FFF75DFDFFF73FFDFFF788
S31520000C9069FD42F69063C2F200034FF000021A602B
S31520000CA005E03B694FF000021A6000E000BF42F603
S31520000CB0E063C2F20003DB7887F8463042F6E06351
S31520000CC0C2F200035B7987F8473097F94630002B4C
S31520000CD007D197F94730002B03D14FF00A033B6227
S31520000CE06AE097F94630002B08D197F9473013F17F
S31520000CF0020F03D14FF00B033B625DE097F94630BC
S31520000D00002B08D197F94730B3F1FF3F03D14FF0BD
S31520000D1009033B6250E097F94630B3F1FF3F07D114
S31520000D2097F94730002B03D14FF006033B6243E08F
S31520000D3097F94630B3F1FF3F08D197F94730B3F121
S31520000D40FF3F03D14FF005033B6235E097F946306C
S31520000D50B3F1FF3F08D197F9473013F1020F03D1C2
S31520000D604FF007033B6227E097F9463013F1020F55
S31520000D7007D197F94730002B03D14FF00E033B6282
S31520000D801AE097F9463013F1020F08D197F9473048
S31520000D90B3F1FF3F03D14FF00D033B620CE097F90F
S31520000DA0463013F1020F07D197F9473013F1020F9E
S31520000DB002D14FF00F033B62BB693A6A1A60F869A9
S31520000DC04AF6C87100F08CF997F94630002B4FF09F
S31520000DD000037B6003E07B6803F101037B607A6894
S31520000DE048F29F63C0F201039A42F4DDE2E500BFB8
S31520000DF080B584B002AF42F6F463C2F200036FF00E
S31520000E007F021A7042F6F463C2F200034FF04202E8
S31520000E105A7042F6F463C2F200034FF000029A7051
S31520000E2042F6F463C2F200034FF0FF32DA7042F664
S31520000E30F463C2F200034FF0FF321A7142F60070DB
S31520000E40C2F2000000F0FEFA4FF00803009342F6CB
S31520000E500070C2F200004FF000014FF040724FF0D8
S31520000E60070300F039FC42F60070C2F200004FF092
S31520000E70000100F0C1FC4FF003037B6016E04FF049
S31520000E800503009342F60070C2F2000042F6F461B8
S31520000E90C2F200014FF0050242F6E063C2F20003FF
S31520000EA000F076FD7B6803F1FF337B607B68002BC7
S31520000EB0E5D142F60070C2F200004FF0000100F0CA
S31520000EC01FFD42F6F463C2F200036FF07F021A7030
S31520000ED042F6F463C2F200036FF03D025A7042F606
S31520000EE0F463C2F200034FF000029A7042F6F463F4
S31520000EF0C2F200036FF07F02DA7042F6F463C2F2A8
S31520000F0000034FF000021A7142F60070C2F2000090
S31520000F104FF0000100F070FC4FF00503009342F6FD
S31520000F200070C2F2000042F6F461C2F200014FF0F6
S31520000F30050242F6E063C2F2000300F029FD42F604
S31520000F400070C2F200004FF0000100F0D9FC42F61A
S31520000F50F463C2F200036FF07F021A7042F6F46364
S31520000F60C2F200034FF022025A7042F6F463C2F234
S31520000F7000034FF000029A7042F6F463C2F20003B7
S31520000F806FF07F02DA7042F6F463C2F200036FF06C
S31520000F903F021A7142F6F463C2F200034FF00002D8
S31520000FA05A7142F6F463C2F200034FF000029A71BE
S31520000FB042F6F463C2F200034FF00002DA7142F601
S31520000FC0F463C2F200034FF000021A7242F6007078
S31520000FD0C2F200004FF0000100F00EFC4FF00903B2
S31520000FE0009342F60070C2F2000042F6F461C2F2AB
S31520000FF000014FF0090242F6E063C2F2000300F05E
S31520001000C7FC42F60070C2F200004FF0000100F06B
S3152000101077FC42F6F463C2F200036FF07F021A7087
S3152000102042F6F463C2F200036FF03D025A7042F6B4
S31520001030F463C2F200034FF000029A7042F6F463A2
S31520001040C2F200034FF00002DA7042F6F463C2F2F5
S3152000105000034FF05A021A7142F6F463C2F20003FB
S315200010604FF05A025A7142F6F463C2F200034FF06F
S315200010705A029A7142F6F463C2F200034FF05A0202
S31520001080DA7142F6F463C2F200034FF05A021A7282
S3152000109042F60070C2F200004FF0000100F0ACFBF7
S315200010A04FF00903009342F60070C2F2000042F6A8
S315200010B0F461C2F200014FF0090242F6E063C2F287
S315200010C0000300F065FC42F60070C2F200004FF00B
S315200010D0000100F015FC07F10807BD4680BD00BFE2
S315200010E080B483B000AF786039603A687B681A6054
S315200010F007F10C07BD4680BC704700BF80B582B0A3
S3152000110000AF4FF000037B6042F69860C2F2000009
S3152000111040F20021C4F205014FF0010201F064FA09
S3152000112042F69860C2F2000001F02CFB42F698606D
S31520001130C2F200004FF0000101F07CFB42F69860FD
S31520001140C2F20000796801F081FC42F69860C2F292
S3152000115000004FF0000101F0F1FB42F69860C2F268
S3152000116000004FF0000101F065FB40F20003CFF6CE
S31520001170FF737B6042F69860C2F20000796801F046
S3152000118065FC40F20003CFF6FF737B6042F6986061
S31520001190C2F20000796801F059FC40F20003CFF654
S315200011A0FF737B6042F69860C2F20000796801F016
S315200011B04DFC40F20003CFF6FF737B6042F6986049
S315200011C0C2F20000796801F041FC40F20003CFF63C
S315200011D0FF737B6042F69860C2F20000796801F0E6
S315200011E035FC40F20003CFF6FF737B6042F6986031
S315200011F0C2F20000796801F029FC42F69860C2F23A
S3152000120000004FF0000101F099FB4FF011337B6095
S3152000121042F69860C2F200004FF0000101F00AFB8E
S3152000122042F69860C2F20000796801F00FFC42F69F
S315200012309860C2F200004FF0000101F07FFB07F139
S315200012400807BD4680BD00BF80B582B000AF4FF015
S3152000125000037B6042F69860C2F2000040F2002153
S31520001260C4F205014FF0010201F0BEF942F6986082
S31520001270C2F2000001F086FA42F69860C2F200003F
S315200012804FF0000101F0D6FA42F69860C2F2000053
S31520001290796801F0DBFB42F69860C2F200004FF05D
S315200012A0000101F04BFB42F69860C2F200004FF0BD
S315200012B0000101F0BFFA40F2FF03CFF600737B6016
S315200012C042F69860C2F20000796801F0BFFB40F256
S315200012D0FF03CFF600737B6042F69860C2F20000EF
S315200012E0796801F0B3FB40F2FF03CFF600737B6011
S315200012F042F69860C2F20000796801F0A7FB40F23E
S31520001300FF03CFF600737B6042F69860C2F20000BE
S31520001310796801F09BFB40F2FF03CFF600737B60F8
S3152000132042F69860C2F20000796801F08FFB40F225
S31520001330FF03CFF600737B6042F69860C2F200008E
S31520001340796801F083FB42F69860C2F200004FF004
S31520001350000101F0F3FA4FF011337B6042F69860FA
S31520001360C2F200004FF0000101F064FA42F69860E4
S31520001370C2F20000796801F069FB42F69860C2F279
S3152000138000004FF0000101F0D9FA07F10807BD4629
S3152000139080BD00BF80B483B000AF0346FB804EF211
S315200013A00013CEF20003B7F906204FEA5212F9884D
S315200013B001F01F014FF0010000FA01F143F822105D
S315200013C007F10C07BD4680BC704700BF80B483B0D0
S315200013D000AF0346FB804EF20013CEF20003B7F9AE
S315200013E006204FEA5212F98801F01F014FF0010042
S315200013F000FA01F102F1200243F8221007F10C074E
S31520001400BD4680BC704700BF80B483B000AF0346A2
S31520001410FB804EF20013CEF20003B7F906204FEA06
S315200014205212F98801F01F014FF0010000FA01F174
S3152000143002F1600243F8221007F10C07BD4680BC7A
S31520001440704700BF80B584B000AF78607A6842F6F6
S315200014508473C2F200039A4207D07A6842F6007378
S31520001460C2F200039A4200D000BE7B689B881BB262
S315200014701846FFF7ABFF78684FF000014FF0840263
S3152000148001F0FEFB7B684FF001025A624FF0000329
S31520001490FB810DE0FB897A6803F106034FEAC3035B
S315200014A013444FF0FF325A60FB8903F10103FB819D
S315200014B0FB89072BEED97A6842F68473C2F20003C1
S315200014C09A4226D17A6841F20003C4F200031360DF
S315200014D07B684FF00C029A8042F20003CEF204039E
S315200014E042F20002CEF20402126B42F400721A6338
S315200014F04FF00C00FFF788FF42F20003CEF2040300
S3152000150042F20002CEF20402126B22F400721A6337
S3152000151025E07A6841F20003C4F2010313607B6878
S315200015204FF00D029A8042F20003CEF2040342F2FB
S315200015300002CEF20402126B42F480621A634FF06C
S315200015400D00FFF761FF42F20003CEF2040342F2E0
S315200015500002CEF20402126B22F480621A637B68C8
S315200015601B687A681268126822F000421A6007F136
S315200015701007BD4680BD00BF80B58AB000AF786039
S315200015807B681B681B68FB607B681B689B693B61EB
S315200015907B681B685B687B617B681B689B6ABB6199
S315200015A07B681B681B6BFB617B681B685B6B3B6204
S315200015B07B681B68DB697B627A6842F68473C2F2B9
S315200015C000039A422ED17A6841F20003C4F2000346
S315200015D013607B684FF00C029A8042F20003CEF231
S315200015E0040342F20002CEF20402126B42F40072AD
S315200015F01A634FF00C00FFF707FF42F20003CEF20A
S31520001600040342F20002CEF20402126B22F40072AC
S315200016101A637B681B687A681268126822F0004297
S315200016201A602DE07A6841F20003C4F201031360C8
S315200016307B684FF00D029A8042F20003CEF204033B
S3152000164042F20002CEF20402126B42F480621A6366
S315200016504FF00D00FFF7D8FE42F20003CEF204034E
S3152000166042F20002CEF20402126B22F480621A6366
S315200016707B681B687A681268126822F000421A603A
S31520001680FB6823F00103FB607B681B68FA681A601D
S315200016907B681B683A699A617B681B687A695A601D
S315200016A07B681B687A681268126842F001021A6029
S315200016B07B681B68BA699A627B681B68FA691A6339
S315200016C07B681B683A6A5A637B681B687A6ADA61A8
S315200016D007F12807BD4680BD80B584B000AFF8600D
S315200016E07A600A46FA72FB70FA6842F68473C2F28E
S315200016F000039A4207D0FA6842F60073C2F200034A
S315200017009A4200D000BEFB7A072B00D900BE3B7E52
S31520001710202B00D900BEFB689B881BB21846FFF71A
S3152000172055FEFB684FF0000283F88020FB681B689B
S31520001730FA681268126822F001021A60FB681B68B8
S31520001740FA681268126842F002021A60FB681B6887
S31520001750FA681268126842F001021A60FB7A072BB7
S315200017603FD87B68002B0BD07B68B3F1007F07D076
S315200017707B68B3F1807F03D07B68B3F1407F0FD1C4
S31520001780FA7A796840F20213C2F2004341EA03036F
S31520001790F96802F106024FEAC2020A4453600EE0DB
S315200017A0FA7A796840F20213C2F2000341EA03038F
S315200017B0F96802F106024FEAC2020A445360FB7A34
S315200017C0FA6803F106034FEAC30313443A7E1A72FA
S315200017D0FB7AFA6803F106034FEAC3031344FA7847
S315200017E05A72FB689B881BB21846FFF7D3FD07F198
S315200017F01007BD4680BD00BF80B584B000AF7860BD
S315200018000B46FB707A6842F68473C2F200039A4252
S3152000181007D07A6842F60073C2F200039A4200D0DB
S3152000182000BE7B681B681B6803F00203002B00D1F7
S3152000183000BEFB787A6803F106034FEAC30313441C
S315200018405B68B3F1FF3F00D100BE7B689B881BB26B
S315200018501846FFF7BBFD7B681B689B6803F00403F3
S31520001860FB60FB68002B02D07868FFF785FE7B685B
S315200018701B687A681268126822F001021A607B6877
S315200018801A68FB78796803F106034FEAC3030B4411
S315200018905B6813607B681A68FB78796803F1060336
S315200018A04FEAC3030B445B7A93617B681A68FB7823
S315200018B0796803F106034FEAC3030B441B7A53608E
S315200018C07B681B687A681268126842F001021A6007
S315200018D07B681B687A681268D169FA784FF0010034
S315200018E000FA02F241EA0202DA617B689B881BB2A7
S315200018F01846FFF74FFD07F11007BD4680BD00BF14
S3152000190080B584B000AF78600B46FB707A6842F6EB
S315200019108473C2F200039A4207D07A6842F60073B3
S31520001920C2F200039A4200D000BE7B681B681B6887
S3152000193003F00203002B00D100BE7B689B881BB2FC
S315200019401846FFF743FD7B681B689B6803F004037A
S31520001950FB60FB68002B02D07868FFF70DFE7B68E2
S315200019601B687A681268D169FA784FF0010000FA8C
S3152000197002F26FEA020201EA0202DA617B689B88C0
S315200019801BB21846FFF706FD07F11007BD4680BDBE
S3152000199080B58EB000AFF860B9603B601346FB801F
S315200019A04FF000037B834FF00003FB84FA6842F676
S315200019B08473C2F200039A4207D0FA6842F6007393
S315200019C0C2F200039A4200D000BEFB681B681B6867
S315200019D003F00203002B00D100BEFA88B7F840308E
S315200019E01344FB86FB8E002B03D14FF001033B6291
S315200019F001E0FB8E3B62FB681B68FA681268D26ABC
S31520001A0042F00C02DA62FB681B689B6803F0040351
S31520001A10FB62FB6A002B02D0F868FFF7ADFDFB687E
S31520001A201B68FA681268126822F001021A60FB68C5
S31520001A301968FB681B681B6840F2FF02CFF600722C
S31520001A4003EA02023B6A4FEA03204FF60073C0F214
S31520001A50FF0300EA030342EA03030B60FB681B68EB
S31520001A604FF008025A60FB681B68FA681268126811
S31520001A7042F001021A60FB681B689B6803F0400372
S31520001A803B6309E0FB681B681B697B61FB681B687D
S31520001A909B6803F040033B633B6B002BF2D04FF077
S31520001AA00003BB834FF00003FB83BA8BFB889A426B
S31520001AB00FD2FB681B68B98BBA680A4412785A6140
S31520001AC0BB8B03F10103BB83FB8C03F10103FB8476
S31520001AD06AE0BA8BFB8E9A4266D2FB681B684FF08F
S31520001AE000025A61BB8B03F10103BB83FB8C03F11C
S31520001AF00103FB8458E0FB681B689B6803F04003E6
S31520001B003B633B6B002B1ED1FB681B681B697B610B
S31520001B107A8BFB889A420ED3FA8BB7F840309A42DA
S31520001B2005D2FA8B3B6813447A69D2B21A70FB8BC2
S31520001B3003F10103FB837B8B03F101037B83FB8C86
S31520001B4003F1FF33FB84FB681B689B6803F48073F7
S31520001B50BB62BB6A002B27D1FB8C032B24D8BA8B04
S31520001B60FB889A420FD2FB681B68B98BBA680A4475
S31520001B7012785A61BB8B03F10103BB83FB8C03F103
S31520001B800103FB8410E0BA8BFB8E9A420CD2FB68D1
S31520001B901B684FF000025A61BB8B03F10103BB8324
S31520001BA0FB8C03F10103FB847A8BFB8E9A42A2D332
S31520001BB007F13807BD4680BD80B485B000AF786098
S31520001BC04FF00003FB600EE07B681B687A68916823
S31520001BD07A6812690A4412785A617B681B6903F194
S31520001BE001027B681A617B681B689B6803F480731B
S31520001BF0002B05D17B681A697B68DB689A42E3D3A0
S31520001C007B681A697B68DB689A421CD30EE07B6886
S31520001C101B687A6851697A68D2690A4412785A61CF
S31520001C207B68DB6903F101027B68DA617B681B68EC
S31520001C309B6803F48073002B05D17B68DA697B6887
S31520001C409B699A42E3D37B685B6A002B1FD07B6833
S31520001C501A697B68DB689A4219D37B68DA697B68E4
S31520001C609B699A4213D308E07B681B684FF00002F9
S31520001C705A61FB6803F10103FB607B681B689B6864
S31520001C8003F48073002B02D1FB681F2BECD907F1DC
S31520001C901407BD4680BC704780B584B000AF78601D
S31520001CA07B6893F88030022B15D10CE07B681B688B
S31520001CB01B69FB607B685B6F002B04D07B685B6FC6
S31520001CC0FA68104698477B681B689B6803F04003B8
S31520001CD0002BEBD032E07B6893F88030012B25D1A6
S31520001CE017E07B681B681B69FB607B681A6B7B6847
S31520001CF0DB6A9A4207D27B689A6A7B681B6B13441D
S31520001D00FA68D2B21A707B681B6B03F101027B68FA
S31520001D101A637B681B689B6803F04003002BE0D0A6
S31520001D200CE07B681B681B69FB6000E000BF7B68DA
S31520001D301B689B6803F04003002BF2D007F11007C5
S31520001D40BD4680BD80B586B000AF78607B681B68D5
S31520001D5003F120033B617A6842F68473C2F20003E2
S31520001D609A4207D07A6842F60073C2F200039A427A
S31520001D7000D000BE3B691B6803F00203002B52D043
S31520001D807B6893F88030022B15D10CE07B681B68AA
S31520001D901B69FB607B685B6F002B04D07B685B6FE5
S31520001DA0FA68104698477B681B689B6803F04003D7
S31520001DB0002BEBD032E07B6893F88030012B25D1C5
S31520001DC017E07B681B681B69FB607B681A6B7B6866
S31520001DD0DB6A9A4207D27B689A6A7B681B6B13443C
S31520001DE0FA68D2B21A707B681B6B03F101027B681A
S31520001DF01A637B681B689B6803F04003002BE0D0C6
S31520001E000CE07B681B681B69FB6000E000BF7B68F9
S31520001E101B689B6803F04003002BF2D07B681B688D
S31520001E204FF00202DA603B691B6803F00103DBB264
S31520001E30002B12D07B6893F88030022B05D17B686B
S31520001E401B687A68926F5A6102E07868FFF7B4FEE1
S31520001E507B681B684FF00102DA603B691B6803F060
S31520001E601003002B23D07868FFF716FF7B681B6AC8
S31520001E70002B0BD07B681B6A7A68916A7A68126B92
S31520001E800846114698477868FFF796FE7B684FF01C
S31520001E9001025A627B681B687A681268926A22F08D
S31520001EA010029A627B681B684FF01002DA603B6969
S31520001EB01B6803F00403002B0FD07B681B687A682D
S31520001EC01268D26A42F00402DA627868FFF754FB9D
S31520001ED07B681B684FF00402DA603B691B6803F0DD
S31520001EE00803002B31D07B681B687A681268D26A97
S31520001EF042F00802DA627B6893F88030022B13D115
S31520001F007B681A687B681B68196840F2FF03CFF666
S31520001F10007301EA030343F4807313607B681B6834
S31520001F207A68926F5A610BE07B6893F88030012BB8
S31520001F3006D17B684FF000021A617868FFF73CFEF5
S31520001F407B681B684FF00802DA603B691B6803F068
S31520001F502003002B49D07868FFF79EFE7B681B6B19
S31520001F607B617B681B6A002B1CD07B684FF00002CC
S31520001F705A627B684FF000025A617B684FF000027C
S31520001F809A617B684FF00002DA617B681B684FF02C
S31520001F901002DA607B681B687A681268926A42F0DF
S31520001FA010029A627B684FF000021A617B681B68F8
S31520001FB07A681268D26A42F00C02DA627868FFF711
S31520001FC0FBFD7B684FF000021A637B68DB6F002BFA
S31520001FD006D07B68DB6F7A68926A104679699847E3
S31520001FE07B681B684FF02002DA6007F11807BD46B0
S31520001FF080BD00BF684620F007018D4689B500AF39
S3152000200042F68470C2F20000FFF79CFE4FF00C00EF
S31520002010FFF7FAF9BD46BDE889408546704700BFFF
S31520002020684620F007018D4689B500AF42F600705C
S31520002030C2F20000FFF786FE4FF00D00FFF7E4F92D
S31520002040BD46BDE889408546704700BF80B483B051
S3152000205000AF0346FB804EF20013CEF20003B7F921
S3152000206006204FEA5212F98801F01F014FF00100B5
S3152000207000FA01F143F8221007F10C07BD4680BC97
S31520002080704700BF80B483B000AF0346FB804EF29A
S315200020900013CEF20003B7F906204FEA5212F98850
S315200020A001F01F014FF0010000FA01F102F1600278
S315200020B043F8221007F10C07BD4680BC704700BFCD
S315200020C080B485B000AF03463960FB71FB79FB60B5
S315200020D0FB681F2B00D900BEFB681F2B08D8FA68A7
S315200020E042F66053C2F2000353F822303A681A606F
S315200020F007F11407BD4680BC704700BF80B485B089
S3152000210000AF02460B46FA71BB71FB79FB60FB6898
S315200021101F2B00D900BEFB681F2B09D840F20003F5
S31520002120C4F22623FA68B97902F5886243F82210A8
S3152000213007F11407BD4680BC704700BF80B584B048
S3152000214000AF0346FB71FB79FB60FB681F2B00D9B0
S3152000215000BEFB681F2B1ED8FA6842F66053C2F2F7
S31520002160000353F822301B68BB60FA6842F66053BE
S31520002170C2F2000353F82230BA6842F008021A600D
S31520002180FA6842F6E053C2F2000333F812301BB26B
S315200021901846FFF75BFF07F11007BD4680BD00BF5D
S315200021A080B584B000AF0346FB71FB79FB60FB680A
S315200021B01F2B00D900BEFB681F2B15D843F2000346
S315200021C0C4F20103FA684FF0010101FA02F2C3F8E2
S315200021D08020FA6842F6E053C2F2000333F8123048
S315200021E01BB21846FFF74EFF07F11007BD4680BD0C
S315200021F080B590B000AFF860B960FA807B71FB685B
S31520002200002B23D142F62063C2F2000307F1140CFF
S315200022109E46BEE80F00ACE80F00BEE80F00ACE813
S315200022200F009EE80300CCF800000CF1040CACF87B
S3152000223000100CF1020C4FEA11438CF8003007F124
S31520002240140318464FF0300100F096FC7B79072BDB
S3152000225023D942F62063C2F2000307F1140C9E46EE
S31520002260BEE80F00ACE80F00BEE80F00ACE80F0098
S315200022709EE80300CCF800000CF1040CACF800102A
S315200022800CF1020C4FEA11438CF8003007F11403CD
S3152000229018464FF0310100F06FFCFA8841F6FF73C3
S315200022A09A4223D942F62063C2F2000307F1140CA6
S315200022B09E46BEE80F00ACE80F00BEE80F00ACE873
S315200022C00F009EE80300CCF800000CF1040CACF8DB
S315200022D000100CF1020C4FEA11438CF8003007F184
S315200022E0140318464FF0320100F046FCFB68002B21
S315200022F000F0C7807B79072B00F2C380FA8841F66D
S31520002300FF739A4200F2BD80BB6803F10802FB8886
S3152000231003F0FF031046194600F072FCBB6803F178
S315200023200C027979FB8803F47F434FEA631341EA71
S3152000233003031046194600F063FCFB68BA681A606E
S31520002340FB681B6803F10803184600F05BFC034694
S31520002350FB87FB681B6803F10C03184600F052FC50
S31520002360034687F83C3097F83C3023F0070387F87C
S315200023703D3097F83D304FEA43139AB2FB8F42EA3D
S315200023800303FB8797F83C3003F0070387F83C30BC
S31520002390FA8FFB889A4223D042F62063C2F20003CA
S315200023A007F1140C9E46BEE80F00ACE80F00BEE80D
S315200023B00F00ACE80F009EE80300CCF800000CF1FB
S315200023C0040CACF800100CF1020C4FEA11438CF807
S315200023D0003007F1140318464FF0540100F0CCFBEF
S315200023E097F83C207B799A4223D042F62063C2F2AA
S315200023F0000307F1140C9E46BEE80F00ACE80F0060
S31520002400BEE80F00ACE80F009EE80300CCF8000001
S315200024100CF1040CACF800100CF1020C4FEA11433D
S315200024208CF8003007F1140318464FF0550100F0E0
S31520002430A3FBFB681B6803F11003184600F0E2FBC0
S31520002440034603F0020387F83B3012E0FB681B6863
S3152000245003F10403184600F0D5FBFB681B6803F163
S315200024601003184600F0CEFB034603F0020387F85C
S315200024703B3097F83B30002BE8D1FB684FF0000249
S315200024801A7107F14007BD4680BD00BF80B590B0E8
S3152000249000AFF860B9607A60FB68002B23D142F662
S315200024A02063C2F2000307F1100C9E46BEE80F001F
S315200024B0ACE80F00BEE80F00ACE80F009EE8030072
S315200024C0CCF800000CF1040CACF800100CF1020C56
S315200024D04FEA11438CF8003007F1100318464FF0ED
S315200024E07C0100F049FBBB68002B23D142F6206318
S315200024F0C2F2000307F1100C9E46BEE80F00ACE8BE
S315200025000F00BEE80F00ACE80F009EE80300CCF8F1
S3152000251000000CF1040CACF800100CF1020C4FEA90
S3152000252011438CF8003007F1100318464FF07D0157
S3152000253000F022FB7B68002B23D142F62063C2F2F7
S31520002540000307F1100C9E46BEE80F00ACE80F0012
S31520002550BEE80F00ACE80F009EE80300CCF80000B0
S315200025600CF1040CACF800100CF1020C4FEA1143EC
S315200025708CF8003007F1100318464FF07E0100F06A
S31520002580FBFAFB68002B2BD0BB68002B28D07B687E
S31520002590002B25D04FF00003BB631DE0FB681B68B2
S315200025A003F11003184600F02DFB034603F0010348
S315200025B087F83F3097F83F30002BEFD0FB681A683A
S315200025C0B968BB6B0B441B781046194600F018FB04
S315200025D0BB6B03F10103BB63BA6B7B689A42DDD305
S315200025E007F14007BD4680BD80B5A4B000AFF860B6
S315200025F0B9601346FB80FB68002B17D142F648636F
S31520002600C2F2000307F1700C9E46BEE80F00ACE84C
S315200026100F009EE80F00ACE80700ACF8003007F189
S31520002620700318464FF0430100F0A6FABB68002B52
S3152000263017D142F64863C2F2000307F1500C9E46BA
S31520002640BEE80F00ACE80F009EE80F00ACE80700DC
S31520002650ACF8003007F1500318464FF0440100F063
S315200026608BFAFB88202B17D942F64863C2F2000367
S3152000267007F1300C9E46BEE80F00ACE80F009EE83E
S315200026800F00ACE80700ACF8003007F1300318461D
S315200026904FF0450100F070FAFB88002B17D142F667
S315200026A04863C2F2000307F1100C9E46BEE80F00F5
S315200026B0ACE80F009EE80F00ACE80700ACF800304D
S315200026C007F1100318464FF0460100F055FAFB6853
S315200026D0002B52D0BB68002B4FD0F8684FF000017A
S315200026E04FF0480200F0CCFAFB68BA681A60FB8803
S315200026F0202B07D8FB88002B04D0FB68FA88A3F888
S31520002700442004E0FB684FF00102A3F84420FB6854
S315200027101B6818464FF000014FF001024FF00003EE
S3152000272000F072FAFB681B6803F1240318464FF089
S31520002730000100F065FAFB681B6803F11C031846CC
S315200027404FF0030100F05CFAFB681B6803F10403F9
S3152000275018464FF0FF0100F053FAFB681B6803F19F
S31520002760180318464FF0000100F04AFAFB681B6870
S3152000277018464FF0030100F043FA07F19007BD46D3
S3152000278080BD00BF80B58AB000AF78607B68002B23
S3152000279017D142F64863C2F2000307F1080C9E46A1
S315200027A0BEE80F00ACE80F009EE80F00ACE807007B
S315200027B0ACF8003007F1080318464FF0A40100F0EA
S315200027C0DBF97B68002B31D07B681B6818464FF0FD
S315200027D000014FF001024FF0000300F015FA7B686C
S315200027E04FF0000283F846207B681B6803F11C0328
S315200027F018464FF0030100F003FA7B681B6803F1CB
S31520002800040318464FF0FF0100F0FAF97B681B68B5
S3152000281003F1180318464FF0000100F0F1F97B6828
S315200028201B6818464FF0030100F0EAF907F1280764
S31520002830BD4680BD80B592B000AF78600B46FB7078
S315200028404FF0000387F847307B68002B17D142F6FC
S315200028504863C2F2000307F1280C9E46BEE80F002B
S31520002860ACE80F009EE80F00ACE80700ACF800309B
S3152000287007F1280318464FF0C80100F07DF9FB78D0
S31520002880072B17D942F64863C2F2000307F1080C5A
S315200028909E46BEE80F00ACE80F009EE80F00ACE8AD
S315200028A00700ACF8003007F1080318464FF0C901BD
S315200028B000F062F97B68002B3CD0FB78072B39D8D7
S315200028C07B681B6818464FF001014FF0020200F0AA
S315200028D0A9F90346002B2DD07B681B6803F1200342
S315200028E018464FF004014FF0100200F09BF9034602
S315200028F0012B02D1786800F009F97B681B6803F187
S315200029002403184600F07EF903461A46FB784FF05A
S31520002910010101FA03F3DBB242EA030387F84730E9
S315200029207B681B6803F1240297F847301046194646
S3152000293000F066F907F14807BD4680BD80B592B024
S3152000294000AF78600B46FB704FF0000387F84730E6
S315200029507B68002B17D142F64863C2F2000307F1C9
S31520002960280C9E46BEE80F00ACE80F009EE80F003C
S31520002970ACE80700ACF8003007F1280318464FF002
S31520002980E80100F0F9F8FB78072B17D942F64863DF
S31520002990C2F2000307F1080C9E46BEE80F00ACE821
S315200029A00F009EE80F00ACE80700ACF8003007F1F6
S315200029B0080318464FF0E90100F0DEF87B68002B8B
S315200029C03FD0FB78072B3CD87B681B6818464FF016
S315200029D001014FF0020200F025F90346002B30D00A
S315200029E07B681B6803F1200318464FF004014FF063
S315200029F0100200F017F90346012B02D1786800F087
S31520002A0085F87B681B6803F12403184600F0FAF862
S31520002A1003461A46FB784FF0010101FA03F3DBB2B5
S31520002A206FEA0303DBB202EA030387F847307B68C9
S31520002A301B6803F1240297F847301046194600F028
S31520002A40DFF807F14807BD4680BD00BF80B58CB0D2
S31520002A5000AF786039604FF00003FB627B68002B83
S31520002A6017D142F64863C2F2000307F10C0C9E46CA
S31520002A70BEE80F00ACE80F009EE80F00ACE80700A8
S31520002A80ACF8003007F10C0318464FF4847100F0BF
S31520002A9073F87B68002B33D07B681B6818464FF091
S31520002AA001014FF0020200F0BDF80346002B27D0AB
S31520002AB07B681B6803F11C0318464FF0030100F0E6
S31520002AC09FF87B681B6803F128031846396800F0D5
S31520002AD067F87B681B6803F1200318464FF0010155
S31520002AE04FF0020200F09EF80346012BF1D17B68DD
S31520002AF01B6803F10803184600F054F80346FB62EE
S31520002B00FB6A184607F13007BD4680BD80B582B006
S31520002B1000AF78607B681B6818464FF000014FF0C5
S31520002B2001024FF0000300F06FF87B681B6803F189
S31520002B301C0318464FF0030100F062F87B681B68FF
S31520002B4003F1040318464FF0FF0100F059F87B68A3
S31520002B501B6818464FF000014FF001024FF00103A9
S31520002B6000F052F807F10807BD4680BD80B400AFDB
S31520002B70BD4680BC704700BF80B487B000AF786088
S31520002B8039607B687B613B683B617B691B78DBB284
S31520002B90FB733B69BB60BB6803F10103BB60F0E7D5
S31520002BA001607047006870470EB503FA01F303EA27
S31520002BB0020301686FEA020201EA020141EA030107
S31520002BC001600EBD006800EA020020FA01F070479D
S31520002BD001807047008870470EB503FA01F303EAB7
S31520002BE0020301886FEA020201EA020141EA0301B7
S31520002BF001800EBD008800EA020020FA01F070472D
S31520002C0001707047007870470EB503FA01F303EAA6
S31520002C10020301786FEA020201EA020141EA030196
S31520002C2001700EBD007800EA020020FA01F070471C
S31520002C3070B542F6806642F68065C2F20006C2F2A0
S31520002C400005761BB61006D0002455F82430013432
S31520002C509847A642F9D842F6806542F68466C2F2C3
S31520002C600005C2F20006761B00F0FEF8B61006D06C
S31520002C70002455F8243001349847A642F9D870BD6F
S31520002C80032AC9B230B407D822B10023C154013374
S31520002C909342FBD130BC704700EB020C034601E0A7
S31520002CA003F8011C03F003041A460133002CF7D164
S31520002CB04FF00133C2EB0C0403FB01F31FE042F893
S31520002CC0403C42F83C3C42F8383C42F8343C42F81E
S31520002CD0303C42F82C3C42F8283C42F8243C42F84E
S31520002CE0203C42F81C3C42F8183C42F8143C42F87E
S31520002CF0103C42F80C3C42F8083C42F8043C15468D
S31520002D0040323F2CA4F14004D9DC2A46C5EB0C0402
S31520002D1007E042F8103C42F80C3C42F8083C42F8E6
S31520002D20043C154610320F2CA4F11004F1DC2A467F
S31520002D30C5EB0C0501E042F8043C14460432032D91
S31520002D40A5F10405F7DC01E004F8011B6445FBD37B
S31520002D50A0E700BF7100000023310A0023300A00DB
S31520002D600030014004300140083001400C30014061
S31520002D701030014014300140183001401C30014011
S31520002D802030014024300140283001402C300140C1
S31520002D903030014034300140383001403C30014071
S31520002DA04030014044300140483001404C30014021
S31520002DB05030014054300140583001405C300140D1
S31520002DC06030014064300140683001406C30014081
S31520002DD07030014074300140783001407C30014031
S31520002DE020002100220023002400250026002700A1
S31520002DF0280029002A002B002C002D002E002F0051
S31520002E003000310032003300340035003600370000
S31520002E10380039003A003B003C003D003E003F00B0
S31520002E202E2E2F647269766572732F436F726555E5
S31520002E304152546170622F636F72655F756172745F
S31520002E405F6170622E6300002E2E2F647269766594
S31520002E5072732F436F72655350492F636F72655F8C
S31520002E607370692E63000000F8B500BFF8BC08BC7B
S31520002E709E467047F8B500BFF8BC08BC9E46704712
S30D20002E808504002071040020E6
S31120002E8800000000010000000100000016
S705200002993F
