S02B00007475727265745F736572766F5F6D73735F64657369676E5F4D53535F434D335F305F6170702E73725F
S315200000000000012099020020090300200B03002094
S315200000100D0300200F030020110300200000000024
S315200000200000000000000000000000001303002074
S3152000003015030020000000001703002019030020EC
S315200000401B0300201D0300201F0300202103002086
S315200000502303002025030020270300202903002056
S315200000602B0300202D030020D91E0020051F002071
S31520000070912B0020BD2B00203703002039030020C0
S315200000803B0300203D0300203F03002041030020C6
S31520000090C10700200508002047030020490300204F
S315200000A04B030020000000000000000000000000BC
S315200000B00000000000000000000000004D030020AA
S315200000C0250800205103002053030020550300205B
S315200000D057030020590300205B0300205D03002006
S315200000E05F030020610300206303002065030020D6
S315200000F067030020690300206B0300206D030020A6
S315200001006F03002071030020730300207503002075
S3152000011077030020790300207B0300207D03002045
S315200001207F03002081030020830300208503002015
S3152000013087030020890300208B0300208D030020E5
S315200001408F030020910300209303002095030020B5
S3152000015097030020990300209B0300209D03002085
S315200001609F030020A1030020A3030020A503002055
S31520000170A7030020A9030020AB030020AD03002025
S31520000180AF030020B1030020B3030020B5030020F5
S31520000190B7030020B9030020BB030020BD030020C5
S315200001A0BF030020C1030020C3030020C503002095
S315200001B0C7030020C9030020CB030020CD03002065
S315200001C0CF030020D1030020D3030020D503002035
S315200001D0D7030020D9030020DB030020DD03002005
S315200001E0DF030020E1030020E3030020E5030020D5
S315200001F0E7030020E9030020EB030020ED030020A5
S31520000200EF030020F1030020F3030020F503002074
S31520000210F7030020F9030020FB030020FD03002044
S31520000220FF03002001040020030400200504002011
S3152000023007040020090400200B0400200D040020E0
S315200002400F040020110400201304002015040020B0
S3152000025017040020190400201B0400201D04002080
S315200002601F04002021040020230400202504002050
S3152000027027040020290400202B0400202D04002020
S315200002802F040020310400203304002035040020F0
S315200002903704002039040020684880476848002831
S315200002A00BD168486849694A884206D091421CBFEA
S315200002B050F8043B41F8043BF8D165486549664A45
S315200002C0884206D091421CBF50F8043B41F8043BBB
S315200002D0F8D162486249634A914218BF41F8040B3B
S315200002E0FAD100000000000000000000000000001D
S315200002F0DFF874010FF2030E00474FF000004FF0B5
S315200003000001DFF868F1FEE7FEE7FEE7FEE7FEE71D
S31520000310FEE7FEE7FEE7FEE7FEE7FEE7FEE7FEE78F
S31520000320FEE7FEE7FEE7FEE7FEE7FEE7FEE7FEE77F
S31520000330FEE7FEE7FEE7FEE7FEE7FEE7FEE7FEE76F
S31520000340FEE7FEE7FEE7FEE7FEE7FEE7FEE7FEE75F
S31520000350FEE7FEE7FEE7FEE7FEE7FEE7FEE7FEE74F
S31520000360FEE7FEE7FEE7FEE7FEE7FEE7FEE7FEE73F
S31520000370FEE7FEE7FEE7FEE7FEE7FEE7FEE7FEE72F
S31520000380FEE7FEE7FEE7FEE7FEE7FEE7FEE7FEE71F
S31520000390FEE7FEE7FEE7FEE7FEE7FEE7FEE7FEE70F
S315200003A0FEE7FEE7FEE7FEE7FEE7FEE7FEE7FEE7FF
S315200003B0FEE7FEE7FEE7FEE7FEE7FEE7FEE7FEE7EF
S315200003C0FEE7FEE7FEE7FEE7FEE7FEE7FEE7FEE7DF
S315200003D0FEE7FEE7FEE7FEE7FEE7FEE7FEE7FEE7CF
S315200003E0FEE7FEE7FEE7FEE7FEE7FEE7FEE7FEE7BF
S315200003F0FEE7FEE7FEE7FEE7FEE7FEE7FEE7FEE7AF
S31520000400FEE7FEE7FEE7FEE7FEE7FEE7FEE7FEE79E
S31520000410FEE7FEE7FEE7FEE7FEE7FEE7FEE7FEE78E
S31520000420FEE7FEE7FEE7FEE7FEE7FEE7FEE7FEE77E
S31520000430FEE7FEE7FEE7FEE7FEE7000009370020BD
S31520000440000000000000002000000020B857002017
S31520000450B8570020B8570020E05C002000000000BC
S31520000460E05C0020F05E0020053A0020F90800201C
S3152000047045F6E043C2F200031A780AB90120187043
S31520000480704700BF45F2B870C2F2000008B5036895
S315200004902BB140F20003C0F2000303B1984708BD18
S315200004A080B483B000AF0346FB804EF20013CEF239
S315200004B00003B7F906204FEA5212F98801F01F010E
S315200004C04FF0010000FA01F143F8221007F10C0762
S315200004D0BD4680BC704700BF80B483B000AF0346E2
S315200004E0FB804EF20013CEF20003B7F906204FEA46
S315200004F05212F98801F01F014FF0010000FA01F1B4
S3152000050002F1200243F8221007F10C07BD4680BCF9
S31520000510704700BF80B483B000AF0346FB804EF225
S315200005200013CEF20003B7F906204FEA5212F988DB
S3152000053001F01F014FF0010000FA01F102F1600203
S3152000054043F8221007F10C07BD4680BC704700BF58
S3152000055080B582B000AF0346FB714FF01400FFF761
S31520000560BBFF42F20003CEF2040342F20002CEF2B7
S315200005700402126B22F040021A6345F20003C4F211
S3152000058000034FF000025A6540F20003C4F20A232A
S315200005904FF00002C3F8802140F20003C4F20A2380
S315200005A04FF00002C3F8882140F20003C4F20A2368
S315200005B0FA79C3F8842145F20003C4F200034FF010
S315200005C001021A614FF01400FFF7A4FF07F1080794
S315200005D0BD4680BD80B400AF40F20003C4F20A23BA
S315200005E04FF00102C3F88021BD4680BC704700BF92
S315200005F080B400AF40F20003C4F20A234FF0000299
S31520000600C3F88021BD4680BC704700BF80B483B04C
S3152000061000AF786045F20003C4F200037A685A609E
S3152000062007F10C07BD4680BC704700BF80B500AF00
S3152000063040F20003C4F20A234FF00102C3F88821D6
S315200006404FF01400FFF72CFF80BD00BF80B500AF30
S3152000065040F20003C4F20A234FF00002C3F88821B7
S315200006604FF01400FFF738FF80BD00BF80B400AF05
S3152000067045F20003C4F200034FF001021A61BFF3F2
S315200006804F8FBD4680BC704780B582B000AF034611
S31520000690FB714FF01500FFF71FFF42F20003CEF269
S315200006A0040342F20002CEF20402126B22F0400250
S315200006B01A6345F20003C4F200034FF000025A65A4
S315200006C040F20003C4F20A234FF00002C3F880244C
S315200006D040F20003C4F20A234FF00002C3F8882434
S315200006E040F20003C4F20A23FA79C3F8842445F2BF
S315200006F00003C4F200034FF001029A624FF0150086
S31520000700FFF708FF07F10807BD4680BD80B400AF9C
S3152000071040F20003C4F20A234FF00102C3F88024FA
S31520000720BD4680BC704700BF80B400AF40F20003D6
S31520000730C4F20A234FF00002C3F88024BD4680BCD1
S31520000740704700BF80B483B000AF786045F20003E5
S31520000750C4F200037A68DA6107F10C07BD4680BC53
S31520000760704700BF80B500AF40F20003C4F20A23F1
S315200007704FF00102C3F888244FF01500FFF790FED2
S3152000078080BD00BF80B500AF40F20003C4F20A234B
S315200007904FF00002C3F888244FF01500FFF79CFEA7
S315200007A080BD00BF80B400AF45F20003C4F2000351
S315200007B04FF001029A62BFF34F8FBD4680BC70474F
S315200007C080B500AF45F2BC73C2F200034FF00102C0
S315200007D01A60FFF74BFFFFF70BFFFFF737FF45F6D2
S315200007E08453C2F200035A6845F2E053C2F2000372
S315200007F01B689A4202D200F0E5FD01E000F096FC6B
S3152000080080BD00BF80B500AF45F2C073C2F20003C1
S315200008104FF001021A60FFF7C5FFFFF785FFFFF7CC
S31520000820B1FF80BD684620F007018D4681B583B0B3
S3152000083000AF45F2BC73C2F200031B68002B49D0FF
S3152000084040F67123BB8007F1040345F67050C2F2CF
S31520000850000019464FF0020202F0E6FB44F2402067
S31520000860C0F20F0000F0CAFE00F0F4FE00F004FD16
S3152000087045F2E452C2F200023B4612681146198044
S3152000088003F102034FEA12421A703B4645F67050B6
S31520000890C2F2000019464FF0030202F0C5FB4FF0EA
S315200008A00100FFF755FE4AF20030C1F2E110FFF7D2
S315200008B0ADFEFFF78FFEFFF7B9FE45F2BC73C2F21D
S315200008C000034FF000021A6044F24020C0F20F00ED
S315200008D000F094FE4FF0000002F030FA4FF00000D6
S315200008E04FF0000102F0D8F907F10C07BD46BDE82C
S315200008F081408546704700BF80B594B002AF40F274
S315200009001003C4F20503FB6040F21403C4F205038E
S315200009103B6140F22003C4F205037B6140F22403CD
S31520000920C4F20503BB6140F23403C4F20503FB6144
S3152000093040F23803C4F205033B624FF000037B62AA
S31520000940BB694FF000021A6045F67050C2F20000F3
S3152000095040F20011C4F2050140F28A224FF0010351
S3152000096002F014FA00F0E2FB4FF01F00FFF798FDAB
S315200009704FF000004FF0400102F070F94FF00000F8
S3152000098002F0AAF94BF6A033C0F20D03BB624BF678
S31520000990A033C0F20D03FB623B69BA6A1A60FB689A
S315200009A0FA6A1A6000F03CFA45F69050C2F200004E
S315200009B04FF461414FF0030200F046FF45F6905098
S315200009C0C2F2000041F2F941C2F200014FF080026A
S315200009D001F02EFA45F68453C2F200034FF064026A
S315200009E05A6045F68453C2F200034FF064021A603F
S315200009F045F67853C2F200036FF07F021A7045F66F
S31520000A007853C2F200034FF042025A7045F67853EB
S31520000A10C2F200034FF000029A7045F67853C2F2F4
S31520000A2000034FF00002DA7045F67853C2F2000355
S31520000A304FF000021A7145F67853C2F200034FF0C8
S31520000A4000025A7145F67853C2F200034FF00002B5
S31520000A509A7145F67853C2F200034FF00002DA711C
S31520000A6045F67853C2F200034FF000021A7245F69B
S31520000A70E050C2F200004FF0000101F08BFC4FF075
S31520000A800603009345F6E050C2F2000045F6785181
S31520000A90C2F200014FF0030245F66453C2F200038E
S31520000AA001F044FD45F6E050C2F200004FF000018F
S31520000AB001F0F4FC45F66453C2F200035B7803F0C0
S31520000AC01003002B0CBF002301233B6345F6645320
S31520000AD0C2F200035B7803F04003002B0CBF002317
S31520000AE001237B6345F66453C2F200035B7803F06F
S31520000AF02003002B0CBF00230123BB6345F6645360
S31520000B00C2F200035B785BB24FEAD373FB6345F610
S31520000B106453C2F200035B7803F00203002B0CBF80
S31520000B20002301233B643B6B002B20D17B6B002BE6
S31520000B301DD0BA6A44F24023C0F20F039A4204D170
S31520000B403B694FF47A721A6034E0BB6A03F51C5392
S31520000B5003F11003BB62BA6A44F6D353C1F26203AF
S31520000B60A3FB02134FEA93123B691A6022E07B6BC8
S31520000B70002B1FD13B6B002B1CD0BA6A43F20053CB
S31520000B80C0F20C039A4204D13B694FF448721A60B2
S31520000B9010E0BB6AA3F51C53A3F11003BB62BA6A2B
S31520000BA044F6D353C1F26203A3FB02134FEA931216
S31520000BB03B691A60BB6B002B1CD1FB6B002B19D039
S31520000BC0FB6A002B04D1FB684FF000021A6034E068
S31520000BD0FB6AA3F51C53A3F11003FB62FA6A44F6E1
S31520000BE0D353C1F26203A3FB02134FEA9312FB68AD
S31520000BF01A6022E0FB6B002B1FD1BB6B002B1CD095
S31520000C00FA6A47F24073C0F21B039A4204D1FB688A
S31520000C104FF4E1621A6010E0FB6A03F51C5303F1FE
S31520000C201003FB62FA6A44F6D353C1F26203A3FBB4
S31520000C3002134FEA9312FB681A603B6C002B53D1C8
S31520000C407B694FF038021A6045F2C073C2F2000386
S31520000C501B68002B4DD040F671233B8107F108031A
S31520000C6045F67050C2F2000019464FF0020202F01B
S31520000C70DBF944F24020C0F20F0000F0BFFC45F241
S31520000C80E852C2F2000207F10403126811461980E5
S31520000C9003F102034FEA12421A7007F1040345F6E4
S31520000CA07050C2F2000019464FF0030202F0BCF960
S31520000CB044F24020C0F20F0000F0A0FC4FF00100EB
S31520000CC0FFF7E2FC49F28060C0F29800FFF73AFD98
S31520000CD0FFF71CFDFFF746FD45F2C073C2F2000385
S31520000CE04FF000021A6005E07B694FF000021A609F
S31520000CF000E000BF45F66453C2F20003DB7887F8B4
S31520000D00463045F66453C2F200035B7987F84730D4
S31520000D1097F94630002B07D197F94730002B03D19E
S31520000D204FF00A037B626AE097F94630002B08D120
S31520000D3097F9473013F1020F03D14FF00B037B6273
S31520000D405DE097F94630002B08D197F94730B3F18B
S31520000D50FF3F03D14FF009037B6250E097F94630FD
S31520000D60B3F1FF3F07D197F94730002B03D14FF05E
S31520000D7006037B6243E097F94630B3F1FF3F08D183
S31520000D8097F94730B3F1FF3F03D14FF005037B625C
S31520000D9035E097F94630B3F1FF3F08D197F9473050
S31520000DA013F1020F03D14FF007037B6227E097F977
S31520000DB0463013F1020F07D197F94730002B03D1A4
S31520000DC04FF00E037B621AE097F9463013F1020FBB
S31520000DD008D197F94730B3F1FF3F03D14FF00D0308
S31520000DE07B620CE097F9463013F1020F07D197F991
S31520000DF0473013F1020F02D14FF00F037B62FB69DC
S31520000E007A6A1A60386A45F69071C0F2010100F0DC
S31520000E107FF948F2A060C0F2010000F0EFFBE7E5A1
S31520000E2080B584B002AF45F67853C2F200036FF066
S31520000E307F021A7045F67853C2F200034FF0420241
S31520000E405A7045F67853C2F200034FF000029A70AA
S31520000E5045F67853C2F200034FF0FF32DA7045F6BA
S31520000E607853C2F200034FF0FF321A7145F6E05074
S31520000E70C2F2000001F0B4F84FF00803009345F6E3
S31520000E80E050C2F200004FF000014FF040724FF0E8
S31520000E90070301F0EFF945F6E050C2F200004FF0EB
S31520000EA0000101F077FA4FF003037B6016E04FF064
S31520000EB00503009345F6E050C2F2000045F678514E
S31520000EC0C2F200014FF0050245F66453C2F2000358
S31520000ED001F02CFB7B6803F1FF337B607B68002BE2
S31520000EE0E5D145F6E050C2F200004FF0000101F0D6
S31520000EF0D5FA45F67853C2F200036FF07F021A70D6
S31520000F0045F67853C2F200036FF03D025A7045F65B
S31520000F107853C2F200034FF000029A7045F67853D8
S31520000F20C2F200036FF07F02DA7045F67853C2F200
S31520000F3000034FF000021A7145F6E050C2F200009D
S31520000F404FF0000101F026FA4FF00503009345F615
S31520000F50E050C2F2000045F67851C2F200014FF08F
S31520000F60050245F66453C2F2000301F0DFFA45F6A6
S31520000F70E050C2F200004FF0000101F08FFA45F672
S31520000F807853C2F200036FF07F021A7045F6785349
S31520000F90C2F200034FF022025A7045F67853C2F28D
S31520000FA000034FF000029A7045F67853C2F2000310
S31520000FB06FF07F02DA7045F67853C2F200036FF0C5
S31520000FC03F021A7145F67853C2F200034FF0000231
S31520000FD05A7145F67853C2F200034FF000029A7117
S31520000FE045F67853C2F200034FF00002DA7145F657
S31520000FF07853C2F200034FF000021A7245F6E05011
S31520001000C2F200004FF0000101F0C4F94FF00903CD
S31520001010009345F6E050C2F2000045F67851C2F240
S3152000102000014FF0090245F66453C2F2000301F0B5
S315200010307DFA45F6E050C2F200004FF0000101F0C3
S315200010402DFA45F67853C2F200036FF07F021A702C
S3152000105045F67853C2F200036FF03D025A7045F60A
S315200010607853C2F200034FF000029A7045F6785387
S31520001070C2F200034FF00002DA7045F67853C2F24E
S3152000108000034FF05A021A7145F67853C2F2000354
S315200010904FF05A025A7145F67853C2F200034FF0C8
S315200010A05A029A7145F67853C2F200034FF05A025B
S315200010B0DA7145F67853C2F200034FF05A021A72DB
S315200010C045F6E050C2F200004FF0000101F062F94F
S315200010D04FF00903009345F6E050C2F2000045F6B2
S315200010E07851C2F200014FF0090245F66453C2F26C
S315200010F0000301F01BFA45F6E050C2F200004FF063
S31520001100000101F0CBF907F10807BD4680BD00BFFD
S3152000111080B483B000AF786039603A687B681A6023
S3152000112007F10C07BD4680BC704700BF80B582B072
S3152000113000AF4FF000037B6045F61C50C2F2000062
S3152000114040F20021C4F205014FF0010202F01AF824
S3152000115045F61C50C2F2000002F0E2F845F61C509B
S31520001160C2F200004FF0000102F032F945F61C50A1
S31520001170C2F20000796802F037FA45F61C50C2F236
S3152000118000004FF0000102F0A7F945F61C50C2F20C
S3152000119000004FF0000102F01BF940F20003CFF6E9
S315200011A0FF737B6045F61C50C2F20000796802F09E
S315200011B01BFA40F20003CFF6FF737B6045F61C5006
S315200011C0C2F20000796802F00FFA40F20003CFF66F
S315200011D0FF737B6045F61C50C2F20000796802F06E
S315200011E003FA40F20003CFF6FF737B6045F61C50EE
S315200011F0C2F20000796802F0F7F940F20003CFF658
S31520001200FF737B6045F61C50C2F20000796802F03D
S31520001210EBF940F20003CFF6FF737B6045F61C50D6
S31520001220C2F20000796802F0DFF945F61C50C2F2DE
S3152000123000004FF0000102F04FF94FF011337B60B0
S3152000124045F61C50C2F200004FF0000102F0C0F833
S3152000125045F61C50C2F20000796802F0C5F945F641
S315200012601C50C2F200004FF0000102F035F907F1E0
S315200012700807BD4680BD00BF80B582B000AF4FF0E5
S3152000128000037B6045F61C50C2F2000040F20021AC
S31520001290C4F205014FF0010201F074FF45F61C501F
S315200012A0C2F2000002F03CF845F61C50C2F20000E3
S315200012B04FF0000102F08CF845F61C50C2F20000F7
S315200012C0796802F091F945F61C50C2F200004FF001
S315200012D0000102F001F945F61C50C2F200004FF061
S315200012E0000102F075F840F2FF03CFF600737B6031
S315200012F045F61C50C2F20000796802F075F940F2FA
S31520001300FF03CFF600737B6045F61C50C2F2000047
S31520001310796802F069F940F2FF03CFF600737B602B
S3152000132045F61C50C2F20000796802F05DF940F2E1
S31520001330FF03CFF600737B6045F61C50C2F2000017
S31520001340796802F051F940F2FF03CFF600737B6013
S3152000135045F61C50C2F20000796802F045F940F2C9
S31520001360FF03CFF600737B6045F61C50C2F20000E7
S31520001370796802F039F945F61C50C2F200004FF0A8
S31520001380000102F0A9F84FF011337B6045F61C509E
S31520001390C2F200004FF0000102F01AF845F61C5088
S315200013A0C2F20000796802F01FF945F61C50C2F21D
S315200013B000004FF0000102F08FF807F10807BD4644
S315200013C080BD00BF80B582B000AF4FF000037B60C8
S315200013D045F61C50C2F2000040F20021C4F205017D
S315200013E04FF0010201F0CEFE45F61C50C2F200007D
S315200013F001F096FF45F61C50C2F200004FF00001A6
S3152000140001F0E6FF45F61C50C2F20000796802F0B2
S31520001410EBF845F61C50C2F200004FF0000102F036
S315200014205BF845F61C50C2F200004FF0000101F0B7
S31520001430CFFF6FF47F437B6045F61C50C2F200005D
S31520001440796802F0D1F86FF47F437B6045F61C5033
S31520001450C2F20000796802F0C7F86FF47F437B6020
S3152000146045F61C50C2F20000796802F0BDF86FF410
S315200014707F437B6045F61C50C2F20000796802F07B
S31520001480B3F86FF47F437B6045F61C50C2F2000030
S31520001490796802F0A9F86FF47F437B6045F61C500B
S315200014A0C2F20000796802F09FF845F61C50C2F29D
S315200014B000004FF0000102F00FF84FF011337B606F
S315200014C045F61C50C2F200004FF0000101F080FFEB
S315200014D045F61C50C2F20000796802F085F845F600
S315200014E01C50C2F200004FF0000101F0F5FF07F199
S315200014F00807BD4680BD00BF80B588B000AF7860C4
S3152000150007F108034FF000021A6003F104034FF0BD
S3152000151000021A6003F104034FF000021A6003F17F
S3152000152004034FF000021A6003F1040307F10803D5
S31520001530786819464FF0100200F0FAFA0346BB61AC
S315200015403B7BFB61FB69012B06D145F2EC50C2F2D5
S31520001550000002F025FB12E0FB69022B06D145F2C2
S31520001560F050C2F2000002F01BFB08E0FB69032BDF
S3152000157005D145F2F450C2F2000002F011FB00F052
S3152000158057F807F12007BD4680BD00BF80B584B05F
S3152000159000AF4FF000033B714FF000037B714FF01B
S315200015A00003BB714FF00003FB714FF000033B7249
S315200015B04FF000037B724FF00003BB724FF0000325
S315200015C0FB724FF000033B734FF000037B7345F62D
S315200015D08453C2F200035B68DBB23B7207F104035B
S315200015E045F69050C2F2000019464FF00A0200F06C
S315200015F02DFA07F11007BD4680BD00BF80B485B027
S3152000160000AF78604FF00003FB604FF00003BB6033
S3152000161005E0BB68FB60BB6803F10103BB60BA68E9
S315200016207B689A42F5DB07F11407BD4680BC7047FC
S3152000163080B500AF45F68453C2F200031A6845F61A
S315200016408453C2F200035A60FFF770FDFFF79EFF36
S3152000165080BD00BF80B500AF45F68453C2F20003BB
S315200016605B68002B0ED045F68453C2F200035B68FC
S31520001670A3F1050245F68453C2F200035A60FFF730
S3152000168085FF00E000BF80BD80B483B000AF7860E6
S315200016904FF0FF33184607F10C07BD4680BC704754
S315200016A080B483B000AF7860FEE700BF80B483B01B
S315200016B000AF786039603B684FF400525A604FF0B3
S315200016C00003184607F10C07BD4680BC704700BFD3
S315200016D080B483B000AF78604FF00103184607F15D
S315200016E00C07BD4680BC704780B485B000AFF8605B
S315200016F0B9607A604FF00003184607F11407BD461B
S3152000170080BC704780B485B000AFF860B9607A605D
S315200017104FF00003184607F11407BD4680BC7047FA
S3152000172080B485B000AFF860B9607A603B604FF056
S315200017300003184607F11407BD4680BC704700BF5A
S3152000174080B584B000AF786045F6E443C2F200036A
S315200017501B68002B08D145F6E443C2F2000345F688
S31520001760F062C2F200021A6045F6E443C2F20003B8
S315200017701B68BB60EFF30883FB6045F6E443C2F2C7
S3152000178000031A687B681A44FB689A420FD94FF007
S3152000179000004FF0010145F2F852C2F200024FF06C
S315200017A01903FFF7BDFF4FF00100FFF779FF45F65C
S315200017B0E443C2F200031A687B681A4445F6E44300
S315200017C0C2F200031A60BB68184607F11007BD462F
S315200017D080BD00BF80B483B000AF0346FB804EF2CD
S315200017E00013CEF20003B7F906204FEA5212F98809
S315200017F001F01F014FF0010000FA01F143F8221019
S3152000180007F10C07BD4680BC704700BF80B483B08B
S3152000181000AF0346FB804EF20013CEF20003B7F969
S3152000182006204FEA5212F98801F01F014FF00100FD
S3152000183000FA01F102F1600243F8221007F10C07C9
S31520001840BD4680BC704700BF80B588B000AFF86049
S31520001850B9601346FB714FF00103FB824FF0000382
S31520001860BB61FA6845F6B853C2F200039A4207D024
S31520001870FA6845F69053C2F200039A4200D000BEA1
S31520001880BB68002B00D100BE01F044FFFA6845F684
S31520001890B853C2F200039A422ED1FB684FF0804221
S315200018A01A60FB684FF084425A60FB684FF00A02C8
S315200018B01A8145F2CC73C2F200031B68BB6142F267
S315200018C00003CEF2040342F20002CEF20402126BAF
S315200018D042F080021A634FF00A00FFF797FF42F2A8
S315200018E00003CEF2040342F20002CEF20402126B8F
S315200018F022F080021A6331E0FA6840F20003C4F253
S3152000190001031360FA6840F20003C4F220235360F7
S31520001910FB684FF00B021A8145F2D073C2F2000326
S315200019201B68BB6142F20003CEF2040342F20002BE
S31520001930CEF20402126B42F480721A634FF00B004F
S31520001940FFF764FF42F20003CEF2040342F20002E4
S31520001950CEF20402126B22F480721A63FB681B68B3
S315200019604FF000021A71BB68002B21D0BA69BB6800
S31520001970B2FBF3F3FB61FB6903F00803002B06D0EF
S31520001980FB694FEA131303F10103FB6103E0FB69D3
S315200019904FEA1313FB61FA694FF6FF739A4200D997
S315200019A000BEFA694FF6FF739A4201D8FB69FB82A3
S315200019B0FB685B684FF00102C3F89C21FB681B683B
S315200019C0FA8A4FEA122292B2D2B21A71FB681B68C7
S315200019D0FA8AD2B21A70FB685B684FF00002C3F82D
S315200019E09C21FB681B68FA791A73FB681B684FF009
S315200019F00E021A72FB685B684FF00002C3F81022D1
S31520001A00FB684FF000021A61FB684FF00002DA60B3
S31520001A10FB684FF000025A61FB684FF00002DA6162
S31520001A20FA6841F62953C2F200031362FB684FF0AD
S31520001A3000029A61FB684FF000025A62FB684FF081
S31520001A4000029A7207F12007BD4680BD80B489B096
S31520001A5000AFF860B9607A604FF000033B61FA6826
S31520001A6045F6B853C2F200039A4207D0FA6845F603
S31520001A709053C2F200039A4200D000BEBB68002BEE
S31520001A8000D100BE7B68002B00D100BEFA6845F667
S31520001A90B853C2F200039A4206D0FA6845F690532C
S31520001AA0C2F200039A423DD1BB68002B3AD07B6834
S31520001AB0002B37D0FB681B681B7DFB76FB689A7A68
S31520001AC0FB7E42EA0303DAB2FB689A72FB7E03F0DE
S31520001AD02003002B23D04FF01003FB617B680F2BD4
S31520001AE001D87B68FB614FF000037B610EE0FB6849
S31520001AF01B68B9683A690A4412781A703B6903F17F
S31520001B0001033B617B6903F101037B617A69FB6910
S31520001B109A42ECD37A687B69C3EB02037B607B68CD
S31520001B20002BC7D107F12407BD4680BC704700BFF4
S31520001B3080B487B000AFF860B9607A604FF00003D8
S31520001B403B614FF00003FB75FA6845F6B853C2F2C5
S31520001B5000039A4207D0FA6845F69053C2F2000372
S31520001B609A4200D000BEBB68002B00D100BE7B6825
S31520001B70002B00D100BEFA6845F6B853C2F2000326
S31520001B809A4206D0FA6845F69053C2F200039A426A
S31520001B9034D1BB68002B31D07B68002B2ED0FB685C
S31520001BA01B681B7DFB75FB689A7AFB7D42EA030363
S31520001BB0DAB2FB689A7217E0BA683B691344FA688E
S31520001BC012681278D2B21A703B6903F101033B61A5
S31520001BD0FB681B681B7DFB75FB689A7AFB7D42EAD6
S31520001BE00303DAB2FB689A72FB7D03F00103DBB2D2
S31520001BF0002B03D03A697B689A42DDD33B691846AD
S31520001C0007F11C07BD4680BC704700BF80B584B075
S31520001C1000AF78607A6845F6B853C2F200039A425C
S31520001C2007D07A6845F69053C2F200039A4200D054
S31520001C3000BE7A6845F6B853C2F200039A4206D02F
S31520001C407A6845F69053C2F200039A4267D17B68C0
S31520001C501B681B7ADBB203F00F03FB73FB7B0C2B99
S31520001C6054D801A252F823F09D1C00200D1D0020FF
S31520001C70B91C00200D1D0020D51C00200D1D0020A4
S31520001C80F11C00200D1D00200D1D00200D1D002023
S31520001C900D1D00200D1D0020D51C00207B685B6AD1
S31520001CA0002B00D100BE7B685B6A002B30D07B689E
S31520001CB05B6A7868984732E07B681B6A002B00D104
S31520001CC000BE7B681B6A002B24D07B681B6A786861
S31520001CD0984724E07B68DB69002B00D100BE7B6837
S31520001CE0DB69002B18D07B68DB697868984716E09B
S31520001CF07B689B69002B00D100BE7B689B69002B0B
S31520001D000CD07B689B697868984708E000BE06E09F
S31520001D1000BF04E000BF02E000BF00E000BF07F103
S31520001D201007BD4680BD00BF80B487B000AF786085
S31520001D307A6845F6B853C2F200039A4207D07A6809
S31520001D4045F69053C2F200039A4200D000BE7B684B
S31520001D50DB68002B00D100BE7B681B69002B00D1FD
S31520001D6000BE7A6845F6B853C2F200039A4206D0FE
S31520001D707A6845F69053C2F200039A4252D17B68A4
S31520001D80DB68002B4ED07B681B69002B4AD07B6812
S31520001D901B681B7DFB727B689A7AFB7A42EA0303F7
S31520001DA0DAB27B689A72FB7A03F02003002B29D0E3
S31520001DB04FF010033B617B681A697B685B69C3EB54
S31520001DC002037B617B690F2B01D87B693B614FF056
S31520001DD00003FB6012E07B681B687A68D1687A682A
S31520001DE052690A4412781A707B685B6903F1010212
S31520001DF07B685A61FB6803F10103FB60FA683B6963
S31520001E009A42E8D37B685A697B681B699A4209D152
S31520001E107B684FF000021A617B685B684FF0000216
S31520001E20C3F8842007F11C07BD4680BC704700BF5D
S31520001E3080B584B000AFF860B9601346FB71FA68CC
S31520001E4045F6B853C2F200039A4207D0FA6845F61F
S31520001E509053C2F200039A4200D000BEBB68002B0A
S31520001E6000D100BEFB79C02B00D900BEFA6845F62A
S31520001E70B853C2F200039A4206D0FA6845F6905348
S31520001E80C2F200039A4223D1BB68002B20D0FB79F3
S31520001E90C02B1DD8FB68BA68DA61FB681A68FB7923
S31520001EA003F0C00343F00A03DBB21372FB681B89FD
S31520001EB01BB21846FFF7AAFCFB685B684FF00102CD
S31520001EC0C3F88020FB681B891BB21846FFF782FCEB
S31520001ED007F11007BD4680BD684620F007018D46F4
S31520001EE089B500AF45F6B850C2F20000FFF78EFE66
S31520001EF04FF00A00FFF78AFCBD46BDE889408546BB
S31520001F00704700BF684620F007018D4689B500AFAF
S31520001F1045F69050C2F20000FFF778FE4FF00B0016
S31520001F20FFF774FCBD46BDE889408546704700BF73
S31520001F3080B483B000AF0346FB804EF20013CEF28E
S31520001F400003B7F906204FEA5212F98801F01F0163
S31520001F504FF0010000FA01F143F8221007F10C07B7
S31520001F60BD4680BC704700BF80B483B000AF034637
S31520001F70FB804EF20013CEF20003B7F906204FEA9B
S31520001F805212F98801F01F014FF0010000FA01F109
S31520001F9002F1200243F8221007F10C07BD4680BC4F
S31520001FA0704700BF80B483B000AF0346FB804EF27B
S31520001FB00013CEF20003B7F906204FEA5212F98831
S31520001FC001F01F014FF0010000FA01F102F1600259
S31520001FD043F8221007F10C07BD4680BC704700BFAE
S31520001FE080B584B000AF78607A6845F66463C2F243
S31520001FF000039A4207D07A6845F6E053C2F20003FE
S315200020009A4200D000BE7B689B881BB21846FFF719
S31520002010ABFF78684FF000014FF0840201F01AFD03
S315200020207B684FF001025A624FF00003FB810DE0FE
S31520002030FB897A6803F106034FEAC30313444FF082
S31520002040FF325A60FB8903F10103FB81FB89072BD1
S31520002050EED97A6845F66463C2F200039A4226D125
S315200020607A6841F20003C4F2000313607B684FF0E4
S315200020700C029A8042F20003CEF2040342F20002DE
S31520002080CEF20402126B42F400721A634FF00C0077
S31520002090FFF788FF42F20003CEF2040342F2000269
S315200020A0CEF20402126B22F400721A6325E07A68DB
S315200020B041F20003C4F2010313607B684FF00D0266
S315200020C09A8042F20003CEF2040342F20002CEF2DC
S315200020D00402126B42F480621A634FF00D00FFF780
S315200020E061FF42F20003CEF2040342F20002CEF276
S315200020F00402126B22F480621A637B681B687A687A
S315200021001268126822F000421A6007F11007BD46D5
S3152000211080BD00BF80B58AB000AF78607B681B6841
S315200021201B68FB607B681B689B693B617B681B683F
S315200021305B687B617B681B689B6ABB617B681B68ED
S315200021401B6BFB617B681B685B6B3B627B681B6858
S31520002150DB697B627A6845F66463C2F200039A42C1
S315200021602ED17A6841F20003C4F2000313607B6823
S315200021704FF00C029A8042F20003CEF2040342F2A0
S315200021800002CEF20402126B42F400721A634FF080
S315200021900C00FFF707FF42F20003CEF2040342F2DF
S315200021A00002CEF20402126B22F400721A637B68DC
S315200021B01B687A681268126822F000421A602DE0C5
S315200021C07A6841F20003C4F2010313607B684FF082
S315200021D00D029A8042F20003CEF2040342F200027C
S315200021E0CEF20402126B42F480621A634FF00D00A5
S315200021F0FFF7D8FE42F20003CEF2040342F20002B9
S31520002200CEF20402126B22F480621A637B681B688A
S315200022107A681268126822F000421A60FB6823F07E
S315200022200103FB607B681B68FA681A607B681B6881
S315200022303A699A617B681B687A695A607B681B6871
S315200022407A681268126842F001021A607B681B687D
S31520002250BA699A627B681B68FA691A637B681B688D
S315200022603A6A5A637B681B687A6ADA6107F128073B
S31520002270BD4680BD80B584B000AFF8607A600A465E
S31520002280FA72FB70FA6845F66463C2F200039A425A
S3152000229007D0FA6845F6E053C2F200039A4200D00E
S315200022A000BEFB7A072B00D900BE3B7E202B00D92F
S315200022B000BEFB689B881BB21846FFF755FEFB68DD
S315200022C04FF0000283F88020FB681B68FA681268CA
S315200022D0126822F001021A60FB681B68FA6812680D
S315200022E0126842F002021A60FB681B68FA681268DC
S315200022F0126842F001021A60FB7A072B3FD87B68EE
S31520002300002B0BD07B68B3F1007F07D07B68B3F13D
S31520002310807F03D07B68B3F1407F0FD1FA7A79684A
S3152000232040F20213C2F2004341EA0303F96802F1C4
S3152000233006024FEAC2020A4453600EE0FA7A79682E
S3152000234040F20213C2F2000341EA0303F96802F1E4
S3152000235006024FEAC2020A445360FB7AFA6803F186
S3152000236006034FEAC30313443A7E1A72FB7AFA68CD
S3152000237003F106034FEAC3031344FA785A72FB6843
S315200023809B881BB21846FFF7D3FD07F11007BD4601
S3152000239080BD00BF80B584B000AF78600B46FB706F
S315200023A07A6845F66463C2F200039A4207D07A68D7
S315200023B045F6E053C2F200039A4200D000BE7B6885
S315200023C01B681B6803F00203002B00D100BEFB78BC
S315200023D07A6803F106034FEAC30313445B68B3F13B
S315200023E0FF3F00D100BE7B689B881BB21846FFF7D3
S315200023F0BBFD7B681B689B6803F00403FB60FB68DE
S31520002400002B02D07868FFF785FE7B681B687A6808
S315200024101268126822F001021A607B681A68FB783B
S31520002420796803F106034FEAC3030B445B68136024
S315200024307B681A68FB78796803F106034FEAC303C1
S315200024400B445B7A93617B681A68FB78796803F1A1
S3152000245006034FEAC3030B441B7A53607B681B6851
S315200024607A681268126842F001021A607B681B685B
S315200024707A681268D169FA784FF0010000FA02F200
S3152000248041EA0202DA617B689B881BB21846FFF795
S315200024904FFD07F11007BD4680BD00BF80B584B053
S315200024A000AF78600B46FB707A6845F66463C2F22B
S315200024B000039A4207D07A6845F6E053C2F2000339
S315200024C09A4200D000BE7B681B681B6803F002039B
S315200024D0002B00D100BE7B689B881BB21846FFF7F5
S315200024E043FD7B681B689B6803F00403FB60FB6865
S315200024F0002B02D07868FFF70DFE7B681B687A6890
S315200025001268D169FA784FF0010000FA02F26FEAF8
S31520002510020201EA0202DA617B689B881BB2184636
S31520002520FFF706FD07F11007BD4680BD80B58EB0CA
S3152000253000AFF860B9603B601346FB804FF00003A4
S315200025407B834FF00003FB84FA6845F66463C2F28E
S3152000255000039A4207D0FA6845F6E053C2F2000318
S315200025609A4200D000BEFB681B681B6803F002037A
S31520002570002B00D100BEFA88B7F840301344FB8602
S31520002580FB8E002B03D14FF001033B6201E0FB8E53
S315200025903B62FB681B68FA681268D26A42F00C023A
S315200025A0DA62FB681B689B6803F00403FB62FB6A24
S315200025B0002B02D0F868FFF7ADFDFB681B68FA68B0
S315200025C01268126822F001021A60FB681968FB681B
S315200025D01B681B6840F2FF02CFF6007203EA020274
S315200025E03B6A4FEA03204FF60073C0F2FF0300EA6E
S315200025F0030342EA03030B60FB681B684FF00802E3
S315200026005A60FB681B68FA681268126842F0010279
S315200026101A60FB681B689B6803F040033B6309E074
S31520002620FB681B681B697B61FB681B689B6803F062
S3152000263040033B633B6B002BF2D04FF00003BB8380
S315200026404FF00003FB83BA8BFB889A420FD2FB68BC
S315200026501B68B98BBA680A4412785A61BB8B03F19E
S315200026600103BB83FB8C03F10103FB846AE0BA8B75
S31520002670FB8E9A4266D2FB681B684FF000025A61B5
S31520002680BB8B03F10103BB83FB8C03F10103FB84AA
S3152000269058E0FB681B689B6803F040033B633B6B79
S315200026A0002B1ED1FB681B681B697B617A8BFB881C
S315200026B09A420ED3FA8BB7F840309A4205D2FA8B5B
S315200026C03B6813447A69D2B21A70FB8B03F101037B
S315200026D0FB837B8B03F101037B83FB8C03F1FF33AD
S315200026E0FB84FB681B689B6803F48073BB62BB6A30
S315200026F0002B27D1FB8C032B24D8BA8BFB889A423C
S315200027000FD2FB681B68B98BBA680A4412785A61E3
S31520002710BB8B03F10103BB83FB8C03F10103FB8419
S3152000272010E0BA8BFB8E9A420CD2FB681B684FF0E6
S3152000273000025A61BB8B03F10103BB83FB8C03F1BF
S315200027400103FB847A8BFB8E9A42A2D307F13807CA
S31520002750BD4680BD80B485B000AF78604FF00003E1
S31520002760FB600EE07B681B687A6891687A6812695C
S315200027700A4412785A617B681B6903F101027B685F
S315200027801A617B681B689B6803F48073002B05D154
S315200027907B681A697B68DB689A42E3D37B681A698F
S315200027A07B68DB689A421CD30EE07B681B687A68DC
S315200027B051697A68D2690A4412785A617B68DB6962
S315200027C003F101027B68DA617B681B689B6803F46E
S315200027D08073002B05D17B68DA697B689B699A42F6
S315200027E0E3D37B685B6A002B1FD07B681A697B6802
S315200027F0DB689A4219D37B68DA697B689B699A42BF
S3152000280013D308E07B681B684FF000025A61FB680F
S3152000281003F10103FB607B681B689B6803F48073EC
S31520002820002B02D1FB681F2BECD907F11407BD46FC
S3152000283080BC704780B584B000AF78607B6893F821
S315200028408030022B15D10CE07B681B681B69FB606E
S315200028507B685B6F002B04D07B685B6FFA68104641
S3152000286098477B681B689B6803F04003002BEBD0DE
S3152000287032E07B6893F88030012B25D117E07B6806
S315200028801B681B69FB607B681A6B7B68DB6A9A4254
S3152000289007D27B689A6A7B681B6B1344FA68D2B2AC
S315200028A01A707B681B6B03F101027B681A637B68D5
S315200028B01B689B6803F04003002BE0D00CE07B688C
S315200028C01B681B69FB6000E000BF7B681B689B6878
S315200028D003F04003002BF2D007F11007BD4680BD60
S315200028E080B586B000AF78607B681B6803F1200353
S315200028F03B617A6845F66463C2F200039A4207D0C8
S315200029007A6845F6E053C2F200039A4200D000BE30
S315200029103B691B6803F00203002B52D07B6893F8B7
S315200029208030022B15D10CE07B681B681B69FB608D
S315200029307B685B6F002B04D07B685B6FFA68104660
S3152000294098477B681B689B6803F04003002BEBD0FD
S3152000295032E07B6893F88030012B25D117E07B6825
S315200029601B681B69FB607B681A6B7B68DB6A9A4273
S3152000297007D27B689A6A7B681B6B1344FA68D2B2CB
S315200029801A707B681B6B03F101027B681A637B68F4
S315200029901B689B6803F04003002BE0D00CE07B68AB
S315200029A01B681B69FB6000E000BF7B681B689B6897
S315200029B003F04003002BF2D07B681B684FF0020225
S315200029C0DA603B691B6803F00103DBB2002B12D0EF
S315200029D07B6893F88030022B05D17B681B687A6868
S315200029E0926F5A6102E07868FFF7B4FE7B681B6835
S315200029F04FF00102DA603B691B6803F01003002BDD
S31520002A0023D07868FFF716FF7B681B6A002B0BD054
S31520002A107B681B6A7A68916A7A68126B0846114647
S31520002A2098477868FFF796FE7B684FF001025A6256
S31520002A307B681B687A681268926A22F010029A6292
S31520002A407B681B684FF01002DA603B691B6803F055
S31520002A500403002B0FD07B681B687A681268D26A41
S31520002A6042F00402DA627868FFF754FB7B681B6841
S31520002A704FF00402DA603B691B6803F00803002B61
S31520002A8031D07B681B687A681268D26A42F00802E5
S31520002A90DA627B6893F88030022B13D17B681A6840
S31520002AA07B681B68196840F2FF03CFF6007301EAC2
S31520002AB0030343F4807313607B681B687A68926F04
S31520002AC05A610BE07B6893F88030012B06D17B6836
S31520002AD04FF000021A617868FFF73CFE7B681B689E
S31520002AE04FF00802DA603B691B6803F02003002BD5
S31520002AF049D07868FFF79EFE7B681B6B7B617B68FD
S31520002B001B6A002B1CD07B684FF000025A627B6840
S31520002B104FF000025A617B684FF000029A617B6891
S31520002B204FF00002DA617B681B684FF01002DA6012
S31520002B307B681B687A681268926A42F010029A6271
S31520002B407B684FF000021A617B681B687A681268FE
S31520002B50D26A42F00C02DA627868FFF7FBFD7B68E6
S31520002B604FF000021A637B68DB6F002B06D07B6870
S31520002B70DB6F7A68926A1046796998477B681B688A
S31520002B804FF02002DA6007F11807BD4680BD00BF6E
S31520002B90684620F007018D4689B500AF45F664608A
S31520002BA0C2F20000FFF79CFE4FF00C00FFF7FAF987
S31520002BB0BD46BDE889408546704700BF684620F07F
S31520002BC007018D4689B500AF45F6E050C2F20000F8
S31520002BD0FFF786FE4FF00D00FFF7E4F9BD46BDE88E
S31520002BE089408546704700BF80B483B000AF034656
S31520002BF0FB804EF20013CEF20003B7F906204FEA0F
S31520002C005212F98801F01F014FF0010000FA01F17C
S31520002C1043F8221007F10C07BD4680BC704700BF61
S31520002C2080B483B000AF0346FB804EF20013CEF291
S31520002C300003B7F906204FEA5212F98801F01F0166
S31520002C404FF0010000FA01F102F1600243F8221070
S31520002C5007F10C07BD4680BC704700BF80B485B025
S31520002C6000AF03463960FB71FB79FB60FB681F2BC5
S31520002C7000D900BEFB681F2B08D8FA6845F21463FA
S31520002C80C2F2000353F822303A681A6007F114079B
S31520002C90BD4680BC704700BF80B485B000AF0246F9
S31520002CA00B46FA71BB71FB79FB60FB681F2B00D9C1
S31520002CB000BEFB681F2B09D840F20003C4F226236E
S31520002CC0FA68B97902F5886243F8221007F11407E9
S31520002CD0BD4680BC704700BF80B584B000AF0346B8
S31520002CE0FB71FB79FB60FB681F2B00D900BEFB68DC
S31520002CF01F2B1ED8FA6845F21463C2F2000353F85C
S31520002D0022301B68BB60FA6845F21463C2F20003E6
S31520002D1053F82230BA6842F008021A60FA6845F27F
S31520002D209463C2F2000333F812301BB21846FFF741
S31520002D305BFF07F11007BD4680BD00BF80B584B09C
S31520002D4000AF0346FB71FB79FB60FB681F2B00D9A4
S31520002D5000BEFB681F2B15D843F20003C4F2010303
S31520002D60FA684FF0010101FA02F2C3F88020FA68EE
S31520002D7045F29463C2F2000333F812301BB21846B0
S31520002D80FFF74EFF07F11007BD4680BD80B590B016
S31520002D9000AFF860B960FA807B71FB68002B23D105
S31520002DA045F2D463C2F2000307F1140C9E46BEE836
S31520002DB00F00ACE80F00BEE80F00ACE80F009EE85D
S31520002DC00300CCF800000CF1040CACF800100CF158
S31520002DD0020C4FEA11438CF8003007F11403184611
S31520002DE04FF0300100F0B2FD7B79072B23D945F255
S31520002DF0D463C2F2000307F1140C9E46BEE80F000E
S31520002E00ACE80F00BEE80F00ACE80F009EE8030018
S31520002E10CCF800000CF1040CACF800100CF1020CFC
S31520002E204FEA11438CF8003007F1140318464FF08F
S31520002E30310100F08BFDFA8841F6FF739A4223D9BF
S31520002E4045F2D463C2F2000307F1140C9E46BEE895
S31520002E500F00ACE80F00BEE80F00ACE80F009EE8BC
S31520002E600300CCF800000CF1040CACF800100CF1B7
S31520002E70020C4FEA11438CF8003007F11403184670
S31520002E804FF0320100F062FDFB68002B00F0C78096
S31520002E907B79072B00F2C380FA8841F6FF739A42AA
S31520002EA000F2BD80BB6803F10802FB8803F0FF0334
S31520002EB01046194600F08EFDBB6803F10C027979A5
S31520002EC0FB8803F47F434FEA631341EA030310466A
S31520002ED0194600F07FFDFB68BA681A60FB681B681C
S31520002EE003F10803184600F077FD0346FB87FB68CD
S31520002EF01B6803F10C03184600F06EFD034687F8A5
S31520002F003C3097F83C3023F0070387F83D3097F89C
S31520002F103D304FEA43139AB2FB8F42EA0303FB8705
S31520002F2097F83C3003F0070387F83C30FA8FFB888C
S31520002F309A4223D045F2D463C2F2000307F1140C5F
S31520002F409E46BEE80F00ACE80F00BEE80F00ACE8D6
S31520002F500F009EE80300CCF800000CF1040CACF83E
S31520002F6000100CF1020C4FEA11438CF8003007F1E7
S31520002F70140318464FF0540100F0E8FC97F83C2063
S31520002F807B799A4223D045F2D463C2F2000307F13B
S31520002F90140C9E46BEE80F00ACE80F00BEE80F00FA
S31520002FA0ACE80F009EE80300CCF800000CF1040CFE
S31520002FB0ACF800100CF1020C4FEA11438CF80030EB
S31520002FC007F1140318464FF0550100F0BFFCFB68CB
S31520002FD01B6803F11003184600F0FEFC034603F0BD
S31520002FE0020387F83B3012E0FB681B6803F10403F9
S31520002FF0184600F0F1FCFB681B6803F11003184625
S3152000300000F0EAFC034603F0020387F83B3097F80A
S315200030103B30002BE8D1FB684FF000021A7107F114
S315200030204007BD4680BD00BF80B590B000AFF860B8
S31520003030B9607A60FB68002B23D145F2D463C2F2D3
S31520003040000307F1100C9E46BEE80F00ACE80F0007
S31520003050BEE80F00ACE80F009EE80300CCF80000A5
S315200030600CF1040CACF800100CF1020C4FEA1143E1
S315200030708CF8003007F1100318464FF07C0100F061
S3152000308065FCBB68002B23D145F2D463C2F2000352
S3152000309007F1100C9E46BEE80F00ACE80F00BEE814
S315200030A00F00ACE80F009EE80300CCF800000CF1FE
S315200030B0040CACF800100CF1020C4FEA11438CF80A
S315200030C0003007F1100318464FF07D0100F03EFC5A
S315200030D07B68002B23D145F2D463C2F2000307F1AB
S315200030E0100C9E46BEE80F00ACE80F00BEE80F00AD
S315200030F0ACE80F009EE80300CCF800000CF1040CAD
S31520003100ACF800100CF1020C4FEA11438CF8003099
S3152000311007F1100318464FF07E0100F017FCFB68FC
S31520003120002B2BD0BB68002B28D07B68002B25D00A
S315200031304FF00003BB631DE0FB681B6803F110031F
S31520003140184600F049FC034603F0010387F83F3098
S3152000315097F83F30002BEFD0FB681A68B968BB6B35
S315200031600B441B781046194600F034FCBB6B03F168
S315200031700103BB63BA6B7B689A42DDD307F1400734
S31520003180BD4680BD80B5A4B000AFF860B9601346D7
S31520003190FB80FB68002B17D145F2FC63C2F20003CB
S315200031A007F1700C9E46BEE80F00ACE80F009EE8C3
S315200031B00F00ACE80700ACF8003007F170031846A2
S315200031C04FF0430100F0C2FBBB68002B17D145F23C
S315200031D0FC63C2F2000307F1500C9E46BEE80F00C6
S315200031E0ACE80F009EE80F00ACE80700ACF8003012
S315200031F007F1500318464FF0440100F0A7FBFB8867
S31520003200202B17D945F2FC63C2F2000307F1300CDC
S315200032109E46BEE80F00ACE80F009EE80F00ACE823
S315200032200700ACF8003007F1300318464FF045018F
S3152000323000F08CFBFB88002B17D145F2FC63C2F211
S31520003240000307F1100C9E46BEE80F00ACE80F0005
S315200032509EE80F00ACE80700ACF8003007F1100339
S3152000326018464FF0460100F071FBFB68002B52D048
S31520003270BB68002B4FD0F8684FF000014FF0480292
S3152000328000F0E8FBFB68BA681A60FB88202B07D899
S31520003290FB88002B04D0FB68FA88A3F8442004E0BE
S315200032A0FB684FF00102A3F84420FB681B68184610
S315200032B04FF000014FF001024FF0000300F08EFBAB
S315200032C0FB681B6803F1240318464FF0000100F049
S315200032D081FBFB681B6803F11C0318464FF00301B2
S315200032E000F078FBFB681B6803F1040318464FF0D7
S315200032F0FF0100F06FFBFB681B6803F118031846FB
S315200033004FF0000100F066FBFB681B6818464FF083
S31520003310030100F05FFB07F19007BD4680BD00BFAB
S3152000332080B58AB000AF78607B68002B17D145F254
S31520003330FC63C2F2000307F1080C9E46BEE80F00AC
S31520003340ACE80F009EE80F00ACE80700ACF80030B0
S3152000335007F1080318464FF0A40100F0F7FA7B683E
S31520003360002B31D07B681B6818464FF000014FF0C8
S3152000337001024FF0000300F031FB7B684FF00002A2
S3152000338083F846207B681B6803F11C0318464FF020
S31520003390030100F01FFB7B681B6803F1040318463A
S315200033A04FF0FF0100F016FB7B681B6803F1180342
S315200033B018464FF0000100F00DFB7B681B6818468D
S315200033C04FF0030100F006FB07F12807BD4680BD3C
S315200033D080B592B000AF78600B46FB704FF00003CB
S315200033E087F847307B68002B17D145F2FC63C2F281
S315200033F0000307F1280C9E46BEE80F00ACE80F003C
S315200034009EE80F00ACE80700ACF8003007F128036F
S3152000341018464FF0C80100F099FAFB78072B17D908
S3152000342045F2FC63C2F2000307F1080C9E46BEE893
S315200034300F00ACE80F009EE80F00ACE80700ACF8E0
S31520003440003007F1080318464FF0C90100F07EFA54
S315200034507B68002B3CD0FB78072B39D87B681B6810
S3152000346018464FF001014FF0020200F0C5FA03465C
S31520003470002B2DD07B681B6803F1200318464FF0E4
S3152000348004014FF0100200F0B7FA0346012B02D1D7
S31520003490786800F009F97B681B6803F12403184655
S315200034A000F09AFA03461A46FB784FF0010101FA1A
S315200034B003F3DBB242EA030387F847307B681B68D5
S315200034C003F1240297F847301046194600F082FA95
S315200034D007F14807BD4680BD80B592B000AF786041
S315200034E00B46FB704FF0000387F847307B68002BB4
S315200034F017D145F2FC63C2F2000307F1280C9E4661
S31520003500BEE80F00ACE80F009EE80F00ACE807000D
S31520003510ACF8003007F1280318464FF0E80100F018
S3152000352015FAFB78072B17D945F2FC63C2F2000384
S3152000353007F1080C9E46BEE80F00ACE80F009EE897
S315200035400F00ACE80700ACF8003007F10803184676
S315200035504FF0E90100F0FAF97B68002B3FD0FB78A9
S31520003560072B3CD87B681B6818464FF001014FF0AB
S31520003570020200F041FA0346002B30D07B681B681C
S3152000358003F1200318464FF004014FF0100200F01B
S3152000359033FA0346012B02D1786800F085F87B6860
S315200035A01B6803F12403184600F016FA03461A4650
S315200035B0FB784FF0010101FA03F3DBB26FEA030354
S315200035C0DBB202EA030387F847307B681B6803F106
S315200035D0240297F847301046194600F0FBF907F108
S315200035E04807BD4680BD00BF80B58CB000AF78606F
S315200035F039604FF00003FB627B68002B17D145F240
S31520003600FC63C2F2000307F10C0C9E46BEE80F00D5
S31520003610ACE80F009EE80F00ACE80700ACF80030DD
S3152000362007F10C0318464FF4847100F08FF97B687C
S31520003630002B33D07B681B6818464FF001014FF0F2
S31520003640020200F0D9F90346002B27D07B681B68BD
S3152000365003F11C0318464FF0030100F0BBF97B6809
S315200036601B6803F128031846396800F083F97B6844
S315200036701B6803F1200318464FF001014FF00202A8
S3152000368000F0BAF90346012BF1D17B681B6803F1E0
S315200036900803184600F070F90346FB62FB6A1846D9
S315200036A007F13007BD4680BD80B582B000AF786097
S315200036B07B681B6818464FF000014FF001024FF05F
S315200036C0000300F08BF97B681B6803F11C03184686
S315200036D04FF0030100F07EF97B681B6803F10403B9
S315200036E018464FF0FF0100F075F97B681B681846F5
S315200036F04FF000014FF001024FF0010300F06EF988
S3152000370007F10807BD4680BD80B400AFBD4680BC2A
S31520003710704700BF80B58AB000AF45F21C73C2F275
S315200037200003BC460FCB8CE80F0042F20003CEF21A
S3152000373004039B6C4FEA930303F003034FEA8303CE
S3152000374007F12802134453F8283C3B6142F2000358
S31520003750CEF204039B6C4FEA131303F003034FEAE4
S31520003760830307F12802134453F8283C7B6142F275
S315200037700003CEF204039B6C4FEA931303F003037A
S315200037804FEA830307F12802134453F8283CBB6110
S3152000379042F20003CEF20403DB6C4FEA132303F05C
S315200037A01F033B6242F20003CEF20403DB6C4FEAB6
S315200037B0533303F001037B623B6A03F10103FB6190
S315200037C07B6A002B03D0FB694FEA4303FB6100F0C1
S315200037D049F8024645F2C873C2F200031A6045F260
S315200037E0C873C2F200031A683B69B2FBF3F245F2D2
S315200037F0CC73C2F200031A6045F2C873C2F200030A
S315200038001A687B69B2FBF3F245F2D073C2F2000369
S315200038101A6045F2C873C2F200031A68BB69B2FB8C
S31520003820F3F245F2D473C2F200031A6045F2C8736C
S31520003830C2F200031A68FB69B2FBF3F245F2D873B1
S31520003840C2F200031A6045F2C873C2F200031A6876
S3152000385045F2C473C2F200031A6007F12807BD4679
S3152000386080BD00BF80B48BB000AF4FF000037B60FB
S3152000387040F61C03C6F20803BB6040F23023C6F2B2
S315200038800803FB60FB681B6823F070433B613A69C1
S3152000389041F2CF13C0F2A1539A4208D14EF62C73AF
S315200038A0C6F201037B617B691B687B603DE0BB68D8
S315200038B01A6844F24133C4F654439A4235D140F64D
S315200038C04003C6F20803BB61BB691B68FB61FB6949
S315200038D023F07F43FB61FA6940F20033C0F2010313
S315200038E09A4222D9FA694FF6FF73C0F201039A422F
S315200038F008D841F22C63C6F208033B623B6A1B6878
S315200039007B6012E0FA694FF6FF73C0F202039A4217
S3152000391008D841F6AC63C6F208037B627B6A1B6853
S315200039207B6002E04FF000037B607B68002B05D1B3
S3152000393000BE47F64003C0F27D137B607B681846C5
S3152000394007F12C07BD4680BC704700BF80B487B006
S3152000395000AF786039607B687B613B683B617B693F
S315200039601B78DBB2FB733B69BB60BB6803F10103C9
S31520003970BB60F0E701607047006870470EB503FA38
S3152000398001F303EA020301686FEA020201EA020177
S3152000399041EA030101600EBD006800EA020020FA38
S315200039A001F0704701807047008870470EB503FA12
S315200039B001F303EA020301886FEA020201EA020127
S315200039C041EA030101800EBD008800EA020020FAC8
S315200039D001F0704701707047007870470EB503FA02
S315200039E001F303EA020301786FEA020201EA020107
S315200039F041EA030101700EBD007800EA020020FAB8
S31520003A0001F0704770B545F2B07645F2B075C2F256
S31520003A100006C2F20005761BB61006D0002455F823
S31520003A20243001349847A642F9D845F2B07545F2BC
S31520003A30B476C2F20005C2F20006761B01F0ACFE97
S31520003A40B61006D0002455F8243001349847A642F3
S31520003A50F9D870BD032AC9B230B407D822B10023E1
S31520003A60C15401339342FBD130BC704700EB020CAA
S31520003A70034601E003F8011C03F003041A46013350
S31520003A80002CF7D14FF00133C2EB0C0403FB01F3FA
S31520003A901FE042F8403C42F83C3C42F8383C42F8B1
S31520003AA0343C42F8303C42F82C3C42F8283C42F860
S31520003AB0243C42F8203C42F81C3C42F8183C42F890
S31520003AC0143C42F8103C42F80C3C42F8083C42F8C0
S31520003AD0043C154640323F2CA4F14004D9DC2A464A
S31520003AE0C5EB0C0407E042F8103C42F80C3C42F8C7
S31520003AF0083C42F8043C154610320F2CA4F1100461
S31520003B00F1DC2A46C5EB0C0501E042F8043C1446DC
S31520003B100432032DA5F10405F7DC01E004F8011BAE
S31520003B206445FBD3A0E700BF30B5044689B00846FC
S31520003B300D4600F03DF845F234730195C2F20003BC
S31520003B4003930290431C07930123049301AB05932F
S31520003B50022306930CB1A369EBB145F2DC73204630
S31520003B60C2F200031B689B689A8912F4005F01BFAA
S31520003B7042F400529A81596E21F40052A16808BF7E
S31520003B805A6605AA00F028F9002814BF4FF0FF3026
S31520003B900A2009B030BD204600F0EEF8DDE700BF70
S31520003BA045F2DC730146C2F200031868BCE700BF89
S31520003BB020F0030110F00300C0F1000051F8043B8F
S31520003BC000F1040C4FEACC0C6FF000021CBF22FA65
S31520003BD00CF213434FF0010C4CEA0C2C4CEA0C4C23
S31520003BE0A3EB0C0222EA030212EACC1204BF51F81C
S31520003BF0043B0430F4D013F0FF0F1FBF013013F441
S31520003C007F4F013013F47F0F18BF0130704700BF7C
S31520003C10704700BF704700BF704700BF704700BFA6
S31520003C20002070470020704745F2DC7343F625419B
S31520003C30C2F20003C2F20001186800F091BA00BF78
S31520003C4045F2DC7343F62141C2F20003C2F20001C1
S31520003C50186800F085BA00BF45F26901C2F200017A
S31520003C6000F07EBA45F22C73C2F200031868F3E71F
S31520003C7010B5044600235C30A1811946E281082252
S31520003C8023606360A360636623616361A361FFF7BA
S31520003C90E1FE44F65D6044F6216144F6F95244F6AD
S31520003CA0F153C2F20000C2F20001C2F20002C2F2D7
S31520003CB000036062A162E2622363246210BD00BF3A
S31520003CC070B568250E4605FB01F505F10C0100F0DF
S31520003CD06DFA044648B100F10C03002146602A46DD
S31520003CE018462160A360FFF7B5FE204670BD00BFD1
S31520003CF045F22C73C2F2000370B51D680646AB6907
S31520003D00002B2AD0D8356B68AC68013B03D520E060
S31520003D106834013B1DD4B4F90C20002AF8D10025C3
S31520003D204FF0FF33656604F15C00E38129464FF0CE
S31520003D3001032560A3810822A56065602561656170
S31520003D40A561FFF787FEE5646563A563A564204644
S31520003D5070BD286828B10546D5E7284600F00CF83E
S31520003D60D0E730460421FFF7ABFF28600028F2D1C8
S31520003D700C2304463360EAE770B58669044606B12B
S31520003D8070BD43F659430125C2F20003C0F8D8603E
S31520003D908362C0F8DC60C0F8E0608561FFF7A8FFA9
S31520003DA060602046FFF7A4FFA0602046FFF7A0FF33
S31520003DB0324604212346E0606068FFF759FF2A4611
S31520003DC0A06809212346FFF753FF2346E068122106
S31520003DD00222BDE870404BE72DE9F04F936885B08D
S31520003DE090460C460390002B64D088891FFA80FAEF
S31520003DF01AF0080F00F0A0800B69002B00F09C80C1
S31520003E001AF0020BD8F800501CBF4FF0000A574694
S31520003E1036D11AF0010A1DBFDC46D9465F46564602
S31520003E2052D126B380B2A76810F4007F00F08F80AD
S31520003E30BE42BB4680F0A78020683746B3465A4626
S31520003E40514600F087FDA2682368B146D71BA760BC
S31520003E5037465B442360D8F80830C9EB0606CA44C7
S31520003E60DF1BC8F808702FB3A089002EDAD1D5F849
S31520003E7000A06E680835D4E7D5F800A06F6808352D
S31520003E80B7F5806F34BF3B464FF4806352460398A4
S31520003E90002FF1D0A66A216AB04700288244C0EBE1
S31520003EA0070740F3EC80D8F80830181AC8F808003D
S31520003EB00028E5D1002005B0BDE8F08FD5F80090A8
S31520003EC04FF0000C6F680835002FF7D0BCF1000FBB
S31520003ED000F0B5806369BB4534BFDA46BA46A668AA
S31520003EE0206822699E19904294BF00220122B24581
S31520003EF0D4BF002202F00102002A40F0AE809A458B
S31520003F00C0F28280A66A4A46CDF804C00398216A88
S31520003F10B047DDF804C0061E40F3B180BBEB060BAC
S31520003F2000F08680D8F80830B144BF1B9E1BC8F825
S31520003F300860002EC8D1BDE70398214600F0A0FFF7
S31520003F40002840F0D480A0891FFA80FA58E720681C
S31520003F50B9462369984294BF00230123B7422CBF58
S31520003F60002303F00103002B40F09D8063699E42ED
S31520003F70C0F08C80A76A52460398216AB847071E6C
S31520003F807DDDB94667E710F4906F08BF20683FF4DF
S31520003F9056AF62692169236802EB42095B1A09EB75
S31520003FA0D97903F1010CB4444FEA6909E1454A463F
S31520003FB03CBFE1464A4610F4806F00F083801146EC
S31520003FC00398029300F0F2F8029B002800F09980F3
S31520003FD01A4621690293019000F0F4FBA289029B04
S31520003FE0DDF804C022F4906242F08002A281C3EB85
S31520003FF009020CEB03003746B346A260C4F810C092
S315200040002060C4F814901AE7524649465646CDF821
S3152000401004C000F09FFCA2682368BBEB060BCAEB2A
S315200040200202DDF804C05344A26023607FF47AAF15
S315200040300398214601F020F808BBDC4672E7484683
S315200040400A213A4600F084FB00284BD000F1010BF0
S315200040504FF0010CC9EB0B0B3CE749463246CDF835
S3152000406004C000F077FC2368214603989B1923603F
S3152000407001F002F8DDF804C000283FF44FAFA38911
S315200040804FF0FF3043F04003A38114E732465146F8
S3152000409000F060FCA26823683746921BB1469B1944
S315200040A0A2602360D7E651463A4600F053FC2368C7
S315200040B003982146DB19236000F0DEFF00283FF439
S315200040C0CAAEDCE70398029300F0A4FC029B844668
S315200040D000288CD12169039801F0DEF803990C237E
S315200040E00B60CCE707F1010B4FF0010CF2E60399C8
S315200040F00922A3894FF0FF3043F040030A60A381D1
S31520004100D9E6039A0C231360B9E700BF2DE9F845D9
S3152000411007468A46FFF77CFD17F1D80608BFB0464A
S3152000412018D04FF000087568B468013D0FD4B4F973
S315200041300C304BB1B4F90E3021463846B3F1FF3F6F
S3152000414002D0D04748EA00086834013DEFD53668EA
S31520004150002EE8D1FFF75EFD4046BDE8F88500BF9A
S315200041602DE9F04106468846FFF752FDD83608BFAE
S31520004170374615D000277568B468013D0DD4B4F9CB
S315200041800C303BB1B4F90E302046B3F1FF3F01D0DD
S31520004190C04707436834013DF1D53668002EEAD181
S315200041A0FFF738FD3846BDE8F08100BF2DE9F04F16
S315200041B001F10B04162C83B006462FD800231024B9
S315200041C08C422CBF194643F00101002930D13046DC
S315200041D000F01CFCB4F5FC7F2ED24FEAD40E45F637
S315200041E0D005C2F2000505EBCE02D368934200F05B
S315200041F006825A6803F10805D968304622F0030C76
S315200042009A6863445C688A6044F00104D1605C600B
S3152000421000F0FEFB284603B0BDE8F08F24F007042B
S31520004220E30F8C422CBF194643F001010029CED062
S315200042300C2300253360EDE75FEA542E04BF4FEAD6
S31520004240D40E4FEACE0040F0908045F6D005C2F25B
S3152000425000052818C368984206D10DE0002A80F28E
S315200042606F81DB68984207D0596821F003010A1B49
S315200042700F2AF3DD0EF1FF3E0EF1010E45F6D007B3
S31520004280C2F2000707F108018B68994208BF7A68D5
S3152000429026D05A6822F0030CC4EB0C020F2A00F336
S315200042A09481002AC960896080F29980BCF5007FDC
S315200042B080F065814FEADC0C4FF0010A7A6807EB43
S315200042C0CC004FEAAC0C0AFA0CFCD860D0F8088077
S315200042D04CEA02027A60C3F80880C8F80C30836082
S315200042E04FF0010C4FEAAE030CFA03FC944500F2A2
S315200042F0828012EA0C0F08D12EF0030E4FEA4C0CE6
S315200043000EF1040E12EA0C0FF8D007EBCE09F24696
S31520004310C846D8F80C30984507D168E1002A80F2C3
S315200043207881DB68984500F06281586820F00300A8
S31520004330021B0F2AF2DD1D461F19D3F80CC044F0CC
S31520004340010E55F8084F3046BA5042F00102C3F824
S3152000435004E0CCF80840C4F80CC08F60CF607A60C7
S31520004360B960F96000F054FB54E7BEF1040F9EBF1C
S315200043704FEA941E0EF1380E4FEACE007FF665AF57
S31520004380BEF1140F9CBF0EF15B0E4FEACE007FF6F6
S315200043905CAFBEF1540F9EBF4FEA143E0EF16E0E77
S315200043A04FEACE007FF651AFBEF5AA7F9EBF4FEAF9
S315200043B0D43E0EF1770E4FEACE007FF646AF40F29E
S315200043C054539E4595BF4FEA944E4FF47C700EF1A0
S315200043D07C0E4FF07E0E98BF4FEACE0035E703EBFA
S315200043E00C0203F108053046536843F0010353607D
S315200043F000F00EFB0EE7D7F80880D8F8043023F03B
S315200044000309C4EB09024C4594BF002301230F2A5C
S31520004410D8BF43F00103002B00F0A18045F6E84BFE
S31520004420D5F80824C2F2000BDBF8003010331B1934
S31520004430B2F1FF3F06D003F57E631F3323F47E637C
S3152000444023F01F0319463046019300F0BDFC019B63
S31520004450B0F1FF3F824600F0F48008EB090181426B
S3152000446000F2EC80DBF804209A185145CBF80420A2
S3152000447000F04581D5F8085445F6D000C2F2000078
S31520004480B5F1FF3F08BFC0F808A403D05244511A23
S31520004490CBF804101AF00705304617BFC5F10805FA
S315200044A04FF48055AA4405F5805553441B051B0D32
S315200044B0ED1A294600F088FCB0F1FF3F00F02C8170
S315200044C0CAEB0001491941F00101DBF8042045F649
S315200044D0E843C7F808A0C2F20003AA18B845CBF8EB
S315200044E00420CAF8041017D0B9F10F0F40F2DF806C
S315200044F0A9F10C01052521F0070108EB01000F2980
S3152000450085604560D8F8040000F0010041EA00000B
S31520004510C8F8040000F2AC80D04645F6E843DBF844
S315200045202C10C2F200038A42DBF8301088BFDA6210
S3152000453045F6E843C2F200038A4288BF1A6382E046
S315200045405C189A68D9683046666803F108058A605F
S3152000455046F00103D160636000F05AFA5AE608EB90
S31520004560040342F0010244F001043046C8F8044036
S3152000457008F108055A60BB6000F04AFA4AE64FEA9D
S315200045805C22042A54D9142A00F289805B324FEA2D
S31520004590C208A84445F6D007C2F20007D8F808009A
S315200045A0404503D16FE08068804504D0426822F000
S315200045B003029445F7D3D0F80CC0C3F80CC098601A
S315200045C07A68C360CCF808308AE61F19304644F072
S315200045D00104CF605C6003F10805BA5042F0010285
S315200045E08F607A60B960F96000F012FA12E60AF17B
S315200045F0010A1AF0030F5FD003F1080889E603F1D8
S315200046000802D3689A4208BF0EF1020E3FF436AE76
S31520004610EFE51D461918DA68304655F8083F4C680C
S31520004620936044F00104DA604C6000F0F1F9F1E5A2
S315200046304FEA9C1238324FEAC208AAE7B8453FF43F
S3152000464011AFD7F80880D8F8042022F0030294424C
S3152000465094BF00230123121B0F2AD8BF43F0010366
S31520004660002B3FF47CAF3046002500F0D1F9D1E590
S3152000467008F108013046019300F00EFE019BD7F8A1
S3152000468008805A6849E74FF0010AD7F8048092104B
S3152000469084460AFA02F248EA02027A608DE7542A30
S315200046A024D84FEA1C326E324FEAC20871E7012342
S315200046B0D046CAF80430C6E74A461EF0030F134612
S315200046C00EF1FF3E33D053F808299A42F5D07B6885
S315200046D04FEA4C0C9C453FF68EAEBCF1000F3FF4E2
S315200046E08AAE1CEA030F27D0D6460EE6B2F5AA7F7D
S315200046F015D84FEADC3277324FEAC20849E7080577
S31520004700000D00287FF4B6AED7F808804B4443F05E
S315200047100103C8F8043000E701210025D5E640F260
S31520004720545082420DD94FF47C787E2231E77B6843
S3152000473023EA0C037B60CBE74FEA4C0C0AF1040A10
S31520004740CFE74FEA9C427C324FEAC20821E700BFFE
S3152000475010F0030FC9B210B410D0002A2FD003785E
S315200047608B422AD0013A05E0002A28D00378013A64
S315200047708B4222D0013010F0030FF5D1032A11D934
S3152000478041EA012444EA0444036884EA0303A3F1CA
S31520004790013C2CEA030313F0803F03D1043A043092
S315200047A0032AF1D85AB103788B4206D0013A32B1A6
S315200047B010F8013F013A8B42F9D110BC7047002016
S315200047C0FBE700BF032A2DE9F0070BD83AB10023F7
S315200047D011F803C000F803C001339342F8D1BDE8B5
S315200047E0F007704782180C46034603E014F8011CB4
S315200047F003F8011C03F003061946A44601330134CD
S31520004800002EF3D11CF00304634608BFC1EB020C53
S3152000481068D06542C4F1040A0CEB050733464FEA1B
S31520004820CA0A5CF805604FEAC408551A08E057F82A
S31520004830044F264604FA0AF449EA0404CC50043309
S315200048405C18032D26FA08F9A5F104050CEB0306DE
S31520004850EDDC002302E0F15CE154013319199142A9
S31520004860F9D3BCE753F8404C41F8404C53F83C4C44
S3152000487041F83C4C53F8384C41F8384C53F8344CFA
S3152000488041F8344C53F8304C41F8304C53F82C4C0A
S3152000489041F82C4C53F8284C41F8284C53F8244C1A
S315200048A041F8244C53F8204C41F8204C53F81C4C2A
S315200048B041F81C4C53F8184C41F8184C53F8144C3A
S315200048C041F8144C53F8104C41F8104C53F80C4C4A
S315200048D041F80C4C53F8084C41F8084C53F8044C5A
S315200048E041F8044C1C460D4640334031BCF13F0F85
S315200048F0ACF1400CB6DC21462B46541B0FE051F898
S31520004900105C43F8105C51F80C5C43F80C5C51F8D1
S31520004910085C43F8085C51F8045C43F8045C0F2CEF
S315200049200D469C4601F1100103F11003A4F1100479
S31520004930E5DCCCEB0201002303E0EC584CF8034005
S3152000494004335E19032903EB0C04A1F10401F4DC02
S315200049507FE700BF88428C4670B4054614460ED9C0
S315200049608B1898420BD242B1C2EB030C0146531E60
S315200049701CF80320CA54013BFAD270BC70470F2A98
S3152000498009D8002CF9D000231CF80320EA5401335F
S31520004990A342F9D1F1E741EA000313F0030FF0D166
S315200049A094460C4603462568ACF1100C1D606568DC
S315200049B05D60A5689D60E5681034DD601033BCF14C
S315200049C00F0FF0D8103A4FEA121C0CF10105CCEB70
S315200049D00C7C2D0102EB0C1601EB050C4519032E60
S315200049E03446CED900235CF80320EA500433F21A69
S315200049F0032AF8D8043EB3085A1CC3EB83739200EB
S31520004A00944406EB8304AD18BBE700BF704700BF94
S31520004A10704700BF2DE9F04F914683B007460E46FA
S31520004A20002900F03A81A1F1080809F10B04FFF7EB
S31520004A30EDFF162CD8F804100B4600F2A0801022A9
S31520004A40002514464C4538BF45F00105002D40F0A1
S31520004A502A8121F0030A9245A2BF4046554608F115
S31520004A60080875DA45F6D00308EB0A00C2F20003FF
S31520004A70D3F808E0864500F01A81D0F804C02CF05F
S31520004A80010B8344DBF804B01BF0010F7CD0AC464D
S31520004A90284611F0010F40F09B8056F8081CC1EB08
S31520004AA0080BDBF8045025F00305002800F0DD8014
S31520004AB0704500F01F8105EB0A030CEB03059542B8
S31520004AC0B8BF1D46C0F2D28081685B46C068AAF195
S31520004AD00402242A8160C86053F8081FDBF80C0002
S31520004AE08160C86000F2D080132A9C4621D93146C5
S31520004AF00BF1100C51F8040BCBF8080070680E1D52
S31520004B001B2ACBF80C0014D94868311D0BF1180C60
S31520004B10CBF8100070680E1D242ACBF8140008D19B
S31520004B204A680BF1200CCBF8182072680836CBF8AF
S31520004B301C20314698466246584651F8043B42F8B6
S31520004B40043B7368CCF804304B685360DBF80430C0
S31520004B50C4EB050CBCF10F0F26D8421903F0010354
S31520004B6043EA05054560536843F001035360384620
S31520004B704546FFF74DFF284603B0BDE8F08F24F0E9
S31520004B8007042246E50F5DE72CF0030C0CEB0A0523
S31520004B909542FFF67EAF82680B46C168404608F113
S31520004BA008088A60D160D3E7011903F0010301EBFD
S31520004BB00C0243EA04044CF0010344604B6038467F
S31520004BC05368083143F00103536000F065FBCEE7DC
S31520004BD049463846FFF7EAFA0546002841D0D8F874
S31520004BE00430A0F1080223F0010141448A4200F07A
S31520004BF0D780AAF104023146242A78D8132A0346FC
S31520004C0021D9344654F8043B211D40F8043B031DAA
S31520004C10D6F804C01B2AC5F804C014D9D4F804E079
S31520004C201C1D01F1040CC0F804E048680CF10401D5
S31520004C305860231D242A06D1DCF8042062604A68C5
S31520004C4008315A60083308461A4650F8044B42F891
S31520004C50044B49685960436853603146384600F032
S31520004C601BFB3846FFF7D4FE85E755449542AFDB5C
S31520004C705B46DBF80C00AAF1040253F8081F242A2D
S31520004C808160C8607FF630AF184631469846FFF7F8
S31520004C9061FE5846DBF804305AE7114603B0BDE8FA
S31520004CA0F04FFFF783BA0C2300253B6063E7DEF85D
S31520004CB0045004F1100B25F0030C0CEB0A005845A8
S31520004CC0B8BF7046FFF6E5AE08EB0402011B41F0C3
S31520004CD001019A6051603846D8F80410354601F033
S31520004CE001031C43C8F80440FFF792FE43E7FFF791
S31520004CF031FEB2E7554404F11001AC448C45B5DBD6
S31520004D005D46DBF80C00AAF1040255F8081F242A98
S31520004D108160C8604CD8132A284624D931460BF125
S31520004D20100051F804EBCBF808E0D6F804E00E1D8D
S31520004D301B2ACBF80CE016D9D1F804E0311D0BF173
S31520004D401800CBF810E0D6F804E00E1D242ACBF884
S31520004D5014E008D14A680BF12000CBF818207268BD
S31520004D600836CBF81C203146024651F804EB42F8AF
S31520004D7004EB76684660496851600BEB0402C4EB8D
S31520004D800C0141F001019A6051603846DBF80410AD
S31520004D9001F001031C43CBF80440FFF739FEEAE695
S31520004DA05568404608F1080825F003055544CFE626
S31520004DB0314628460093CDF804C0FFF7CBFDDDF839
S31520004DC004C0009BD9E700BF38B545F6E864C2F2B7
S31520004DD000040546084600232360FCF7B1FCB0F129
S31520004DE0FF3F00D038BD2368002BFBD02B6038BD99
S31520004DF0B1F90E1000F0C6B810B50C46B1F90E1078
S31520004E0000F02AFBA389B0F1FF3F15BF606523F4AC
S31520004E10805343F48053A38118BFA38110BD00BFE4
S31520004E202DE9F0411D468B890C461646074613F49C
S31520004E30807F06D00223B1F90E10002200F00CFB71
S31520004E40A38923F480533846A3813246B4F90E1041
S31520004E502B46BDE8F041FCF763BC00BF10B50C46FD
S31520004E60B1F90E1000F07CFB002803DB636D1B18E4
S31520004E70636510BDA38923F48053A38110BD00BFB1
S31520004E8070B545F2DC75C2F2000506460C46286868
S31520004E9010B18369002B36D045F23873C2F2000375
S31520004EA09C4238D045F25873C2F200039C4241D04E
S31520004EB045F27873C2F200039C4204BF2B68DC687B
S31520004EC0A289114693B213F0080F184618BF22691B
S31520004ED033D01AB313F0010107D063690021A16012
S31520004EE05B42A36142B1002070BD13F0020F08BFE0
S31520004EF06169A160002AF6D1A38913F0800FF2D050
S31520004F004FF0FF3070BDFEF737FF45F23873C2F21F
S31520004F1000039C42C6D12B685C68D1E703F420715C
S31520004F20B1F5007FD6D03046214600F0ABFAA389F2
S31520004F302269CFE72B689C68C2E713F0100FDFD0F9
S31520004F4013F0040F08BF226917D0616B51B104F129
S31520004F504403994203D0304600F09EF9A28990B2CC
S31520004F600023636322694FF6DB71C0F20001002340
S31520004F7000EA01016360A181226041F00803A38158
S31520004F809BB2A6E738B545F6E864C2F200040546AA
S31520004F90084600232360FCF777FBB0F1FF3F00D0E3
S31520004FA038BD2368002BFBD02B6038BD70B5054675
S31520004FB00C4600294BD0FEF72BFE15B1AB69002B12
S31520004FC048D045F23873C2F200039C4208BF6C6891
S31520004FD00ED045F25873C2F200039C4208BFAC685B
S31520004FE006D045F27873C2F200039C4208BFEC68F3
S31520004FF0B4F90C603EB32846214600F03DF8236BF9
S3152000500006463BB12846216A984736EA200628BF3D
S315200050104FF0FF36A38913F0800F1FD1616B41B18A
S3152000502004F14403994202D0284600F035F90023C2
S315200050306363A16C21B1284600F02EF90023A364F6
S315200050404FF00003A381FEF7E5FD304670BD0E4606
S31520005050304670BD2846FEF78FFEB2E72846216906
S3152000506000F01AF9DAE700BF45F2DC730146C2F216
S31520005070000318689AE700BF0B692DE9F0410C463A
S315200050808046002B71D010B18369002B78D045F271
S315200050903873C2F200039C4208BFD8F8044010D0EF
S315200050A045F25873C2F200039C4208BFD8F8084064
S315200050B007D045F27873C2F200039C4208BFD8F8A5
S315200050C00C40A3891AB212F0080F35D1626843F456
S315200050D00063A381002A5EDDE66A002E45D09BB2DE
S315200050E013F4805218BF656D59D013F0040F4AD1BE
S315200050F000234046216A2A46B047854238D1A189F5
S315200051004FF2FF732269C0F2000301EA0303002174
S31520005110616013F4805F616BA381226018BF6565AF
S3152000512019B304F14403994202D0404600F0B4F882
S3152000513000206063BDE8F0812669B6B12568266047
S31520005140AD1B12F0030F0CBF63690023A3600AE0B6
S3152000515032462B46A76A4046216AB8470028C0EB4C
S315200051600505064404DD002DF2DC0020BDE8F081B3
S31520005170A3894FF0FF3043F04003A381BDE8F081BF
S31520005180FEF7FAFD83E76268636BAD1A002BAFD09A
S31520005190236CED1AACE7226C002A9DDCE5E701239F
S315200051A04046216AB047B0F1FF3F054602D0A389A9
S315200051B0E66A9AE7D8F800301D2BD6D0A38943F0AB
S315200051C04003A381BDE8F081014628B145F2DC7396
S315200051D0C2F2000318684FE745F22C7345F27901B5
S315200051E0C2F20003C2F200011868FEF78FBF00BFAB
S315200051F0F8B545F6D004C2F200040F460546FFF77F
S3152000520005FCA3685E6826F0030606F57E630F3369
S31520005210DF1B3F0B013F3F03B7F5805F07DB002114
S315200052202846FFF7D1FDA368F318834204D0284609
S31520005230FFF7EEFB0020F8BD79422846FFF7C4FDB4
S31520005240B0F1FF3F10D0A26845F6EC43C2F200034E
S31520005250F61B46F00106284656601A68D71B1F60C3
S31520005260FFF7D6FB0120F8BD00212846FFF7ACFD4D
S31520005270A368C21A0F2ADADD45F6D84445F6EC4172
S31520005280C2F20004C2F2000142F001022468001BAF
S3152000529008605A60CBE700BF2DE9F04105460C4671
S315200052A0002900F08880FFF7B1FBA4F1080245F63B
S315200052B0D0005668C2F2000026F00103D0F808C0DC
S315200052C0D1188C454F6827F0030700F0958016F01B
S315200052D001064F605FD00026CC19646814F0010FD8
S315200052E006D1DB19002E7AD08C68C9688C60E16003
S315200052F043F00101D3505160002E47D1B3F5007F12
S315200053005BD3590A04299EBF4FEA931C0CF1380C33
S315200053104FEACC0428D914299CBF01F15B0C4FEA33
S31520005320CC0421D954299EBF4FEA133C0CF16E0CB4
S315200053304FEACC0418D9B1F5AA7F9EBF4FEAD33CD9
S315200053400CF1770C4FEACC040ED940F2545C61453F
S3152000535095BF4FEA934C4FF47C740CF17C0C4FF0C4
S315200053607E0C98BF4FEACC040419A168A14203D150
S3152000537064E089688C4204D0486820F003008342A8
S31520005380F7D3CB68D3609160CA609A602846BDE89F
S31520005390F041FFF73DBB54F8084C00F1080C121BF6
S315200053A01B199468644547D0D2F80CC0CCF8084045
S315200053B0C4F80CC090E7BDE8F081DB084FF0010C83
S315200053C0466800EBC3019B100CFA03F3D1608C688E
S315200053D046EA030343609460E2608A60D6E78C68FD
S315200053E01C4FBC4281D1D35043F00103E260A2603E
S315200053F053609460D460C9E7FB1816F0010F07D1FB
S3152000540054F8081C521A5B18D4689168A160CC60C5
S3152000541045F6DC418260C2F2000143F00100506093
S315200054200A689342B2D345F6E8432846C2F20003FF
S315200054301968FFF7DDFEA9E701264DE70126446836
S315200054404FEAAC0C0B4606FA0CFC44EA0C0444600A
S3152000545098E700BFD858002038B545F6E864C2F270
S3152000546000040546084611461A4600232360FCF729
S315200054703BF9B0F1FF3F00D038BD2368002BFBD0AD
S315200054802B6038BD8B89F0B50C469AB291B012F0DC
S31520005490020F054641D1B1F90E10002918DB01AAE9
S315200054A000F074F8002811DB029B03F47043B3F577
S315200054B0005F14BF00270127B3F5004F40D0A38912
S315200054C04FF4806643F40063A3810BE0A3899AB26C
S315200054D012F0800F43F400630CBF4FF48066402621
S315200054E00027A38128463146FEF760FE70B1A189C8
