:020000042000DA
:100000000000012099020020090300200B030020BA
:100010000D0300200F03002011030020000000004A
:10002000000000000000000000000000130300209A
:100030001503002000000000170300201903002012
:100040001B0300201D0300201F03002021030020AC
:10005000230300202503002027030020290300207C
:100060002B0300202D030020F51F0020212000205D
:10007000AD2C0020D92C00203703002039030020AC
:100080003B0300203D0300203F03002041030020EC
:10009000C107002005080020470300204903002075
:1000A0004B030020000000000000000000000000E2
:1000B0000000000000000000000000004D030020D0
:1000C0002508002051030020530300205503002081
:1000D00057030020590300205B0300205D0300202C
:1000E0005F030020610300206303002065030020FC
:1000F00067030020690300206B0300206D030020CC
:100100006F0300207103002073030020750300209B
:1001100077030020790300207B0300207D0300206B
:100120007F0300208103002083030020850300203B
:1001300087030020890300208B0300208D0300200B
:100140008F030020910300209303002095030020DB
:1001500097030020990300209B0300209D030020AB
:100160009F030020A1030020A3030020A50300207B
:10017000A7030020A9030020AB030020AD0300204B
:10018000AF030020B1030020B3030020B50300201B
:10019000B7030020B9030020BB030020BD030020EB
:1001A000BF030020C1030020C3030020C5030020BB
:1001B000C7030020C9030020CB030020CD0300208B
:1001C000CF030020D1030020D3030020D50300205B
:1001D000D7030020D9030020DB030020DD0300202B
:1001E000DF030020E1030020E3030020E5030020FB
:1001F000E7030020E9030020EB030020ED030020CB
:10020000EF030020F1030020F3030020F50300209A
:10021000F7030020F9030020FB030020FD0300206A
:10022000FF03002001040020030400200504002037
:1002300007040020090400200B0400200D04002006
:100240000F040020110400201304002015040020D6
:1002500017040020190400201B0400201D040020A6
:100260001F04002021040020230400202504002076
:1002700027040020290400202B0400202D04002046
:100280002F04002031040020330400203504002016
:100290003704002039040020684880476848002857
:1002A0000BD168486849694A884206D091421CBF10
:1002B00050F8043B41F8043BF8D165486549664A6B
:1002C000884206D091421CBF50F8043B41F8043BE1
:1002D000F8D162486249634A914218BF41F8040B61
:1002E000FAD1000000000000000000000000000043
:1002F000DFF874010FF2030E00474FF000004FF0DB
:100300000001DFF868F1FEE7FEE7FEE7FEE7FEE743
:10031000FEE7FEE7FEE7FEE7FEE7FEE7FEE7FEE7B5
:10032000FEE7FEE7FEE7FEE7FEE7FEE7FEE7FEE7A5
:10033000FEE7FEE7FEE7FEE7FEE7FEE7FEE7FEE795
:10034000FEE7FEE7FEE7FEE7FEE7FEE7FEE7FEE785
:10035000FEE7FEE7FEE7FEE7FEE7FEE7FEE7FEE775
:10036000FEE7FEE7FEE7FEE7FEE7FEE7FEE7FEE765
:10037000FEE7FEE7FEE7FEE7FEE7FEE7FEE7FEE755
:10038000FEE7FEE7FEE7FEE7FEE7FEE7FEE7FEE745
:10039000FEE7FEE7FEE7FEE7FEE7FEE7FEE7FEE735
:1003A000FEE7FEE7FEE7FEE7FEE7FEE7FEE7FEE725
:1003B000FEE7FEE7FEE7FEE7FEE7FEE7FEE7FEE715
:1003C000FEE7FEE7FEE7FEE7FEE7FEE7FEE7FEE705
:1003D000FEE7FEE7FEE7FEE7FEE7FEE7FEE7FEE7F5
:1003E000FEE7FEE7FEE7FEE7FEE7FEE7FEE7FEE7E5
:1003F000FEE7FEE7FEE7FEE7FEE7FEE7FEE7FEE7D5
:10040000FEE7FEE7FEE7FEE7FEE7FEE7FEE7FEE7C4
:10041000FEE7FEE7FEE7FEE7FEE7FEE7FEE7FEE7B4
:10042000FEE7FEE7FEE7FEE7FEE7FEE7FEE7FEE7A4
:10043000FEE7FEE7FEE7FEE7FEE7000025380020C6
:10044000000000000000002000000020E0A20020CA
:10045000E0A20020E0A2002008A800200000000088
:1004600008A8002020AA0020213B0020F908002035
:100470004AF60803C2F200031A780AB9012018707C
:10048000704700BF4AF2E020C2F2000008B50368DE
:100490002BB140F20003C0F2000303B1984708BD3E
:1004A00080B483B000AF0346FB804EF20013CEF25F
:1004B0000003B7F906204FEA5212F98801F01F0134
:1004C0004FF0010000FA01F143F8221007F10C0788
:1004D000BD4680BC704700BF80B483B000AF034608
:1004E000FB804EF20013CEF20003B7F906204FEA6C
:1004F0005212F98801F01F014FF0010000FA01F1DA
:1005000002F1200243F8221007F10C07BD4680BC1F
:10051000704700BF80B483B000AF0346FB804EF24B
:100520000013CEF20003B7F906204FEA5212F98801
:1005300001F01F014FF0010000FA01F102F1600229
:1005400043F8221007F10C07BD4680BC704700BF7E
:1005500080B582B000AF0346FB714FF01400FFF787
:10056000BBFF42F20003CEF2040342F20002CEF2DD
:100570000402126B22F040021A6345F20003C4F237
:1005800000034FF000025A6540F20003C4F20A2350
:100590004FF00002C3F8802140F20003C4F20A23A6
:1005A0004FF00002C3F8882140F20003C4F20A238E
:1005B000FA79C3F8842145F20003C4F200034FF036
:1005C00001021A614FF01400FFF7A4FF07F10807BA
:1005D000BD4680BD80B400AF40F20003C4F20A23E0
:1005E0004FF00102C3F88021BD4680BC704700BFB8
:1005F00080B400AF40F20003C4F20A234FF00002BF
:10060000C3F88021BD4680BC704700BF80B483B072
:1006100000AF786045F20003C4F200037A685A60C4
:1006200007F10C07BD4680BC704700BF80B500AF26
:1006300040F20003C4F20A234FF00102C3F88821FC
:100640004FF01400FFF72CFF80BD00BF80B500AF56
:1006500040F20003C4F20A234FF00002C3F88821DD
:100660004FF01400FFF738FF80BD00BF80B400AF2B
:1006700045F20003C4F200034FF001021A61BFF318
:100680004F8FBD4680BC704780B582B000AF034637
:10069000FB714FF01500FFF71FFF42F20003CEF28F
:1006A000040342F20002CEF20402126B22F0400276
:1006B0001A6345F20003C4F200034FF000025A65CA
:1006C00040F20003C4F20A234FF00002C3F8802472
:1006D00040F20003C4F20A234FF00002C3F888245A
:1006E00040F20003C4F20A23FA79C3F8842445F2E5
:1006F0000003C4F200034FF001029A624FF01500AC
:10070000FFF708FF07F10807BD4680BD80B400AFC2
:1007100040F20003C4F20A234FF00102C3F8802420
:10072000BD4680BC704700BF80B400AF40F20003FC
:10073000C4F20A234FF00002C3F88024BD4680BCF7
:10074000704700BF80B483B000AF786045F200030B
:10075000C4F200037A68DA6107F10C07BD4680BC79
:10076000704700BF80B500AF40F20003C4F20A2317
:100770004FF00102C3F888244FF01500FFF790FEF8
:1007800080BD00BF80B500AF40F20003C4F20A2371
:100790004FF00002C3F888244FF01500FFF79CFECD
:1007A00080BD00BF80B400AF45F20003C4F2000377
:1007B0004FF001029A62BFF34F8FBD4680BC704775
:1007C00080B500AF4AF2E423C2F200034FF0010209
:1007D0001A60FFF74BFFFFF70BFFFFF737FF4AF6F3
:1007E000B003C2F200031A6849F61873C2F200039C
:1007F0001B689A4202D200F01FFE01E000F0DCFC10
:1008000080BD00BF80B500AF4AF2E823C2F200030A
:100810004FF001021A60FFF7C5FFFFF785FFFFF7F2
:10082000B1FF80BD684620F007018D4681B583B0D9
:1008300000AF4AF2E423C2F200031B68002B49D048
:1008400040F67123BB8007F104034AF69C00C2F214
:10085000000019464FF0020202F074FC44F24020FE
:10086000C0F20F0000F032FF00F058FF00F03EFD34
:1008700049F61C72C2F200023B461268114619800A
:1008800003F102034FEA12421A703B464AF69C00FB
:10089000C2F2000019464FF0030202F053FC4FF081
:1008A0000100FFF755FE4AF20030C1F2E110FFF7F8
:1008B000ADFEFFF78FFEFFF7B9FE4AF2E423C2F266
:1008C00000034FF000021A6044F24020C0F20F0013
:1008D00000F0FCFE4FF0000002F0BEFA4FF0000006
:1008E0004FF0000102F066FA07F10C07BD46BDE8C3
:1008F00081408546704700BF80B594B002AF40F29A
:100900001003C4F20503FB6040F21403C4F20503B4
:100910003B6140F22003C4F205037B6140F22403F3
:10092000C4F20503BB6140F23403C4F20503FB616A
:1009300040F23803C4F205033B624FF000037B62D0
:10094000BB694FF000021A604AF69C00C2F2000038
:1009500040F20011C4F2050140F28A224FF0010377
:1009600002F0A2FA00F028FC4FF01F00FFF798FDFC
:100970004FF000004FF0400102F0FEF94FF0000090
:1009800002F038FA4BF6A033C0F20D03BB624BF60F
:10099000A033C0F20D03FB623B69BA6A1A60FB68C0
:1009A000FA6A1A6000F082FA4AF6C000C2F2000049
:1009B0004FF461414FF0030200F0D4FF4AF6C0004B
:1009C000C2F2000041F26D51C2F200014FF080020C
:1009D00001F0BCFA4AF6B003C2F200034FF0640221
:1009E0001A604AF6B003C2F200034FF005029A60A3
:1009F0004AF6B003C2F2000342F210725A604AF69D
:100A0000B003C2F2000345F69072C0F20102DA6050
:100A100049F62070C2F2000003F014F94AF6A4036C
:100A2000C2F200036FF07F021A704AF6A403C2F20A
:100A300000034FF042025A704AF6A403C2F20003C8
:100A40004FF000029A704AF6A403C2F200034FF07E
:100A50000002DA704AF6A403C2F200034FF000026B
:100A60001A714AF6A403C2F200034FF000025A7151
:100A70004AF6A403C2F200034FF000029A714AF64C
:100A8000A403C2F200034FF00002DA714AF6A40395
:100A9000C2F200034FF000021A724AF61010C2F2BE
:100AA00000004FF0000101F003FD4FF0060300933A
:100AB0004AF61010C2F200004AF6A401C2F2000188
:100AC0004FF003024AF69003C2F2000301F0BCFDAE
:100AD0004AF61010C2F200004FF0000101F06CFD68
:100AE0004AF69003C2F200035B7803F01003002B78
:100AF0000CBF002301233B634AF69003C2F20003BC
:100B00005B7803F04003002B0CBF002301237B63C1
:100B10004AF69003C2F200035B7803F02003002B37
:100B20000CBF00230123BB634AF69003C2F200030B
:100B30005B785BB24FEAD373FB634AF69003C2F271
:100B400000035B7803F00203002B0CBF002301239A
:100B50003B643B6B002B2ED17B6B002B2BD0BA6AF6
:100B600044F23F23C0F20F039A4204D93B694FF489
:100B70007A721A6051E04AF6B003C2F200035B6871
:100B8000BA6A1344BB62BA6A44F24023C0F20F034C
:100B90009A4204D944F24023C0F20F03BB62BA6AFE
:100BA00044F6D353C1F26203A3FB02134FEA93123C
:100BB0003B691A6031E07B6B002B2ED13B6B002B25
:100BC0002BD0BA6A43F20053C0F20C039A4204D805
:100BD0003B694FF448721A601FE04AF6B003C2F254
:100BE00000035B68BA6AC3EB0203BB62BA6A43F2F2
:100BF000FF43C0F20C039A4204D843F20053C0F200
:100C00000C03BB62BA6A44F6D353C1F26203A3FB7E
:100C100002134FEA93123B691A60BB6B002B1FD182
:100C2000FB6B002B1CD0FB6A002B04D1FB684FF040
:100C300000021A6045E04AF6B003C2F200035B68A6
:100C4000FA6AC3EB0203FB62FA6A44F6D353C1F2B9
:100C50006203A3FB02134FEA9312FB681A6030E0B1
:100C6000FB6B002B2DD1BB6B002B2AD0FA6A47F20D
:100C70003F73C0F21B039A4204D9FB684FF4E16250
:100C80001A601EE04AF6B003C2F200035B68FA6A1B
:100C90001344FB62FA6A47F24073C0F21B039A42A4
:100CA00004D947F24073C0F21B03FB62FA6A44F6B0
:100CB000D353C1F26203A3FB02134FEA9312FB6802
:100CC0001A603B6C002B53D17B694FF038021A60DD
:100CD0004AF2E823C2F200031B68002B4DD040F615
:100CE00071233B8107F108034AF69C00C2F2000021
:100CF00019464FF0020202F025FA44F24020C0F2F9
:100D00000F0000F0E3FC49F62872C2F2000207F17E
:100D1000040312681146198003F102034FEA1242DC
:100D20001A7007F104034AF69C00C2F2000019464B
:100D30004FF0030202F006FA44F24020C0F20F0026
:100D400000F0C4FC4FF00100FFF79EFC49F2806008
:100D5000C0F29800FFF7F6FCFFF7D8FCFFF702FDA2
:100D60004AF2E823C2F200034FF000021A6005E0E5
:100D70007B694FF000021A6000E000BF4AF6900362
:100D8000C2F20003DB7887F846304AF69003C2F2DD
:100D900000035B7987F8473097F94630002B07D17D
:100DA00097F94730002B03D14FF00A037B626AE0CA
:100DB00097F94630002B08D197F9473013F1020F0D
:100DC00003D14FF00B037B625DE097F94630002BB7
:100DD00008D197F94730B3F1FF3F03D14FF0090332
:100DE0007B6250E097F94630B3F1FF3F07D197F9A6
:100DF0004730002B03D14FF006037B6243E097F9A5
:100E00004630B3F1FF3F08D197F94730B3F1FF3FC8
:100E100003D14FF005037B6235E097F94630B3F11B
:100E2000FF3F08D197F9473013F1020F03D14FF07C
:100E300007037B6227E097F9463013F1020F07D1D1
:100E400097F94730002B03D14FF00E037B621AE075
:100E500097F9463013F1020F08D197F94730B3F1F3
:100E6000FF3F03D14FF00D037B620CE097F9463052
:100E700013F1020F07D197F9473013F1020F02D196
:100E80004FF00F037B62FB697A6A1A604AF6B0037F
:100E9000C2F20003DB68386A194600F07FF948F2B5
:100EA000A060C0F2010000F011FCB7E580B584B08D
:100EB00002AF4AF6A403C2F200036FF07F021A7079
:100EC0004AF6A403C2F200034FF042025A704AF6F7
:100ED000A403C2F200034FF000029A704AF6A40382
:100EE000C2F200034FF0FF32DA704AF6A403C2F2F6
:100EF00000034FF0FF321A714AF61010C2F20000E0
:100F000001F0FCF84FF0080300934AF61010C2F20B
:100F100000004FF000014FF040724FF0070301F066
:100F200037FA4AF61010C2F200004FF0000101F04B
:100F3000BFFA4FF003037B6016E04FF00503009308
:100F40004AF61010C2F200004AF6A401C2F20001F3
:100F50004FF005024AF69003C2F2000301F074FB61
:100F60007B6803F1FF337B607B68002BE5D14AF699
:100F70001010C2F200004FF0000101F01DFB4AF614
:100F8000A403C2F200036FF07F021A704AF6A403B2
:100F9000C2F200036FF03D025A704AF6A403C2F297
:100FA00000034FF000029A704AF6A403C2F2000355
:100FB0006FF07F02DA704AF6A403C2F200034FF02A
:100FC00000021A714AF61010C2F200004FF0000140
:100FD00001F06EFA4FF0050300934AF61010C2F2CA
:100FE00000004AF6A401C2F200014FF005024AF6E1
:100FF0009003C2F2000301F027FB4AF61010C2F280
:1010000000004FF0000101F0D7FA4AF6A403C2F243
:1010100000036FF07F021A704AF6A403C2F20003C5
:101020004FF022025A704AF6A403C2F200034FF0B6
:1010300000029A704AF6A403C2F200036FF07F0226
:10104000DA704AF6A403C2F200036FF03F021A718D
:101050004AF6A403C2F200034FF000025A714AF6A6
:10106000A403C2F200034FF000029A714AF6A403EF
:10107000C2F200034FF00002DA714AF6A403C2F292
:1010800000034FF000021A724AF61010C2F200007C
:101090004FF0000101F00CFA4FF0090300934AF6FB
:1010A0001010C2F200004AF6A401C2F200014FF093
:1010B00009024AF69003C2F2000301F0C5FA4AF6AB
:1010C0001010C2F200004FF0000101F075FA4AF66C
:1010D000A403C2F200036FF07F021A704AF6A40361
:1010E000C2F200036FF03D025A704AF6A403C2F246
:1010F00000034FF000029A704AF6A403C2F2000304
:101100004FF00002DA704AF6A403C2F200034FF077
:101110005A021A714AF6A403C2F200034FF05A02AF
:101120005A714AF6A403C2F200034FF05A029A71B0
:101130004AF6A403C2F200034FF05A02DA714AF6EB
:10114000A403C2F200034FF05A021A724AF61010BA
:10115000C2F200004FF0000101F0AAF94FF00903BC
:1011600000934AF61010C2F200004AF6A401C2F23F
:1011700000014FF009024AF69003C2F2000301F0A9
:1011800063FA4AF61010C2F200004FF0000101F0BD
:1011900013FA07F10807BD4680BD00BF80B483B0D5
:1011A00000AF786039603A687B681A6007F10C0715
:1011B000BD4680BC704700BF80B582B000AF4FF025
:1011C00000037B604AF64800C2F2000040F20021B2
:1011D000C4F205014FF0010202F062F84AF648003D
:1011E000C2F2000002F02AF94AF64800C2F20000FA
:1011F0004FF0000102F07AF94AF64800C2F200000E
:10120000796802F07FFA4AF64800C2F200004FF017
:10121000000102F0EFF94AF64800C2F200004FF078
:10122000000102F063F94FF0FF337B604AF648009B
:10123000C2F20000796802F065FA4FF0FF337B607C
:101240004AF64800C2F20000796802F05BFA4FF0FB
:10125000FF337B604AF64800C2F20000796802F072
:1012600051FA4FF0FF337B604AF64800C2F20000AB
:10127000796802F047FA4FF0FF337B604AF6480086
:10128000C2F20000796802F03DFA4FF0FF337B6054
:101290004AF64800C2F20000796802F033FA4AF6D2
:1012A0004800C2F200004FF0000102F0A3F94FF035
:1012B00011337B604AF64800C2F200004FF0000193
:1012C00002F014F94AF64800C2F20000796802F010
:1012D00019FA4AF64800C2F200004FF0000102F08D
:1012E00089F907F10807BD4680BD00BF80B582B00F
:1012F00000AF4FF000037B604AF64800C2F20000E6
:1013000040F20021C4F205014FF0010201F0C8FFD4
:101310004AF64800C2F2000002F090F84AF648008F
:10132000C2F200004FF0000102F0E0F84AF6480077
:10133000C2F20000796802F0E5F94AF64800C2F20C
:1013400000004FF0000102F055F94AF64800C2F2E1
:1013500000004FF0000102F0C9F840F2FF03CFF6A1
:1013600000737B604AF64800C2F20000796802F020
:10137000C9F940F2FF03CFF600737B604AF64800DC
:10138000C2F20000796802F0BDF940F2FF03CFF627
:1013900000737B604AF64800C2F20000796802F0F0
:1013A000B1F940F2FF03CFF600737B604AF64800C4
:1013B000C2F20000796802F0A5F940F2FF03CFF60F
:1013C00000737B604AF64800C2F20000796802F0C0
:1013D00099F940F2FF03CFF600737B604AF64800AC
:1013E000C2F20000796802F08DF94AF64800C2F2B4
:1013F00000004FF0000102F0FDF84FF011337B6068
:101400004AF64800C2F200004FF0000102F06EF808
:101410004AF64800C2F20000796802F073F94AF611
:101420004800C2F200004FF0000102F0E3F807F1BB
:101430000807BD4680BD00BF80B582B000AF4FF049
:1014400000037B604AF64800C2F2000040F200212F
:10145000C4F205014FF0010201F022FF4AF64800F4
:10146000C2F2000001F0EAFF4AF64800C2F20000B2
:101470004FF0000102F03AF84AF64800C2F20000CC
:10148000796802F03FF94AF64800C2F200004FF0D6
:10149000000102F0AFF84AF64800C2F200004FF037
:1014A000000102F023F86FF47F437B604AF64800A6
:1014B000C2F20000796802F025F96FF47F437B6087
:1014C0004AF64800C2F20000796802F01BF96FF496
:1014D0007F437B604AF64800C2F20000796802F060
:1014E00011F96FF47F437B604AF64800C2F20000B6
:1014F000796802F007F96FF47F437B604AF6480091
:10150000C2F20000796802F0FDF86FF47F437B605F
:101510004AF64800C2F20000796802F0F3F84AF691
:101520004800C2F200004FF0000102F063F84FF0F3
:1015300011337B604AF64800C2F200004FF0000110
:1015400001F0D4FF4AF64800C2F20000796802F0C8
:10155000D9F84AF64800C2F200004FF0000102F04C
:1015600049F807F10807BD4680BD00BF80B588B0C7
:1015700000AF786007F108034FF000021A6003F132
:1015800004034FF000021A6003F104034FF000025D
:101590001A6003F104034FF000021A6003F1040320
:1015A00007F10803786819464FF0100200F04EFB6F
:1015B0000346BB614AF6B003C2F2000342F2107266
:1015C0005A604AF6B003C2F200034FF005029A6077
:1015D0004AF6B003C2F2000345F69072C0F201026F
:1015E000DA603B7BFB61FB69032B0DD149F62C7064
:1015F000C2F2000002F094FB4AF6B003C2F200030C
:101600004FF003029A6022E0FB69022B0DD149F6EC
:101610003070C2F2000002F083FB4AF6B003C2F25F
:10162000000342F6E0625A6011E0FB69012B0ED123
:1016300049F63470C2F2000002F072FB4AF6B003C1
:10164000C2F2000348F2A062C0F20102DA6000F0C8
:1016500057F807F12007BD4680BD00BF80B584B0B4
:1016600000AF4FF000033B714FF000037B714FF070
:101670000003BB714FF00003FB714FF000033B729E
:101680004FF000037B724FF00003BB724FF000037A
:10169000FB724FF000033B734FF000037B734AF67D
:1016A000B003C2F200031B68DBB23B7207F1040314
:1016B0004AF6C000C2F2000019464FF00A0200F0DC
:1016C00053FA07F11007BD4680BD00BF80B485B056
:1016D00000AF78604FF00003FB604FF00003BB6089
:1016E00005E0BB68FB60BB6803F10103BB60BA683F
:1016F0007B689A42F5DB07F11407BD4680BC704752
:1017000080B500AF4AF6B003C2F200034FF06402A6
:101710001A60FFF751FDFFF7A1FF80BD80B500AF54
:101720004AF6B003C2F200031B68002B07D14AF649
:10173000B003C2F200034FF00002DA6012E04AF692
:10174000B003C2F200031A684AF6B003C2F2000303
:101750009B68C3EB02024AF6B003C2F200031A60B0
:10176000FFF77CFF80BD00BF80B483B000AF78601E
:101770004FF0FF33184607F10C07BD4680BC704799
:1017800080B483B000AF7860FEE700BF80B483B060
:1017900000AF786039603B684FF400525A604FF0F8
:1017A0000003184607F10C07BD4680BC704700BF18
:1017B00080B483B000AF78604FF00103184607F1A2
:1017C0000C07BD4680BC704780B485B000AFF860A0
:1017D000B9607A604FF00003184607F11407BD4660
:1017E00080BC704780B485B000AFF860B9607A60A3
:1017F0004FF00003184607F11407BD4680BC704740
:1018000080B584B000AFF860B9607A603B604AF69A
:101810000C03C2F200031B68002B10D14AF6E8004B
:10182000C2F200004FF461414FF0030200F09AF859
:101830004AF60C03C2F200034FF001021A603B6843
:101840004AF6E800C2F2000079681A4600F08CF906
:101850003B68184607F11007BD4680BD80B584B0CF
:1018600000AF78604AF61003C2F200031B68002B39
:1018700008D14AF61003C2F200034AF62022C2F24F
:1018800000021A604AF61003C2F200031B68BB6034
:10189000EFF30883FB604AF61003C2F200031A68F4
:1018A0007B681A44FB689A420FD94FF000004FF052
:1018B000010149F63872C2F200024FF01903FFF736
:1018C0009FFF4FF00100FFF75BFF4AF61003C2F2E3
:1018D00000031A687B681A444AF61003C2F2000338
:1018E0001A60BB68184607F11007BD4680BD00BFEF
:1018F00080B483B000AF0346FB804EF20013CEF2FB
:101900000003B7F906204FEA5212F98801F01F01CF
:101910004FF0010000FA01F143F8221007F10C0723
:10192000BD4680BC704700BF80B483B000AF0346A3
:10193000FB804EF20013CEF20003B7F906204FEA07
:101940005212F98801F01F014FF0010000FA01F175
:1019500002F1600243F8221007F10C07BD4680BC7B
:10196000704700BF80B588B000AFF860B96013461B
:10197000FB714FF00103FB824FF00003BB61FA687B
:101980004AF6E803C2F200039A4207D0FA684AF620
:10199000C003C2F200039A4200D000BEBB68002B15
:1019A00000D100BE01F044FFFA684AF6E803C2F233
:1019B00000039A422ED1FB684FF080421A60FB6808
:1019C0004FF084425A60FB684FF00A021A814AF2D3
:1019D000F423C2F200031B68BB6142F20003CEF2A3
:1019E000040342F20002CEF20402126B42F08002C3
:1019F0001A634FF00A00FFF797FF42F20003CEF29E
:101A0000040342F20002CEF20402126B22F08002C2
:101A10001A6331E0FA6840F20003C4F20103136074
:101A2000FA6840F20003C4F220235360FB684FF0D1
:101A30000B021A814AF2F823C2F200031B68BB6151
:101A400042F20003CEF2040342F20002CEF204029C
:101A5000126B42F480721A634FF00B00FFF764FFC1
:101A600042F20003CEF2040342F20002CEF204027C
:101A7000126B22F480721A63FB681B684FF000023D
:101A80001A71BB68002B21D0BA69BB68B2FBF3F3B3
:101A9000FB61FB6903F00803002B06D0FB694FEAEA
:101AA000131303F10103FB6103E0FB694FEA131316
:101AB000FB61FA694FF6FF739A4200D900BEFA69DA
:101AC0004FF6FF739A4201D8FB69FB82FB685B68A3
:101AD0004FF00102C3F89C21FB681B68FA8A4FEAA9
:101AE000122292B2D2B21A71FB681B68FA8AD2B281
:101AF0001A70FB685B684FF00002C3F89C21FB681A
:101B00001B68FA791A73FB681B684FF00E021A7291
:101B1000FB685B684FF00002C3F81022FB684FF0CF
:101B200000021A61FB684FF00002DA60FB684FF0B8
:101B300000025A61FB684FF00002DA61FA6841F670
:101B40004563C2F200031362FB684FF000029A6122
:101B5000FB684FF000025A62FB684FF000029A7275
:101B600007F12007BD4680BD80B489B000AFF860A2
:101B7000B9607A604FF000033B61FA684AF6E80307
:101B8000C2F200039A4207D0FA684AF6C003C2F2D2
:101B900000039A4200D000BEBB68002B00D100BEFB
:101BA0007B68002B00D100BEFA684AF6E803C2F257
:101BB00000039A4206D0FA684AF6C003C2F2000354
:101BC0009A423DD1BB68002B3AD07B68002B37D0BE
:101BD000FB681B681B7DFB76FB689A7AFB7E42EAFA
:101BE0000303DAB2FB689A72FB7E03F02003002B3A
:101BF00023D04FF01003FB617B680F2B01D87B686B
:101C0000FB614FF000037B610EE0FB681B68B96865
:101C10003A690A4412781A703B6903F101033B6187
:101C20007B6903F101037B617A69FB699A42ECD31A
:101C30007A687B69C3EB02037B607B68002BC7D1AA
:101C400007F12407BD4680BC704700BF80B487B051
:101C500000AFF860B9607A604FF000033B614FF06D
:101C60000003FB75FA684AF6E803C2F200039A42E1
:101C700007D0FA684AF6C003C2F200039A4200D0C5
:101C800000BEBB68002B00D100BE7B68002B00D1DA
:101C900000BEFA684AF6E803C2F200039A4206D090
:101CA000FA684AF6C003C2F200039A4234D1BB6814
:101CB000002B31D07B68002B2ED0FB681B681B7D6E
:101CC000FB75FB689A7AFB7D42EA0303DAB2FB6894
:101CD0009A7217E0BA683B691344FA68126812787E
:101CE000D2B21A703B6903F101033B61FB681B68C8
:101CF0001B7DFB75FB689A7AFB7D42EA0303DAB22F
:101D0000FB689A72FB7D03F00103DBB2002B03D06A
:101D10003A697B689A42DDD33B69184607F11C0794
:101D2000BD4680BC704700BF80B584B000AF78600E
:101D30007A684AF6E803C2F200039A4207D07A684A
:101D40004AF6C003C2F200039A4200D000BE7A688D
:101D50004AF6E803C2F200039A4206D07A684AF6CD
:101D6000C003C2F200039A4267D17B681B681B7AEA
:101D7000DBB203F00F03FB73FB7B0C2B54D801A2E7
:101D800052F823F0B91D0020291E0020D51D002087
:101D9000291E0020F11D0020291E00200D1E0020FC
:101DA000291E0020291E0020291E0020291E002097
:101DB000291E0020F11D00207B685B6A002B00D1EA
:101DC00000BE7B685B6A002B30D07B685B6A7868FA
:101DD000984732E07B681B6A002B00D100BE7B680D
:101DE0001B6A002B24D07B681B6A7868984724E024
:101DF0007B68DB69002B00D100BE7B68DB69002BB0
:101E000018D07B68DB697868984716E07B689B6927
:101E1000002B00D100BE7B689B69002B0CD07B6837
:101E20009B697868984708E000BE06E000BF04E0C0
:101E300000BF02E000BF00E000BF07F11007BD4691
:101E400080BD00BF80B487B000AF78607A684AF682
:101E5000E803C2F200039A4207D07A684AF6C00348
:101E6000C2F200039A4200D000BE7B68DB68002B00
:101E700000D100BE7B681B69002B00D100BE7A68D0
:101E80004AF6E803C2F200039A4206D07A684AF69C
:101E9000C003C2F200039A4252D17B68DB68002B78
:101EA0004ED07B681B69002B4AD07B681B681B7D6A
:101EB000FB727B689A7AFB7A42EA0303DAB27B68A8
:101EC0009A72FB7A03F02003002B29D04FF0100305
:101ED0003B617B681A697B685B69C3EB02037B61CA
:101EE0007B690F2B01D87B693B614FF00003FB60DE
:101EF00012E07B681B687A68D1687A6852690A4484
:101F000012781A707B685B6903F101027B685A6181
:101F1000FB6803F10103FB60FA683B699A42E8D36E
:101F20007B685A697B681B699A4209D17B684FF0CC
:101F300000021A617B685B684FF00002C3F88420DE
:101F400007F11C07BD4680BC704700BF80B584B058
:101F500000AFF860B9601346FB71FA684AF6E8030F
:101F6000C2F200039A4207D0FA684AF6C003C2F2EE
:101F700000039A4200D000BEBB68002B00D100BE17
:101F8000FB79C02B00D900BEFA684AF6E803C2F21A
:101F900000039A4206D0FA684AF6C003C2F2000370
:101FA0009A4223D1BB68002B20D0FB79C02B1DD8CF
:101FB000FB68BA68DA61FB681A68FB7903F0C00352
:101FC00043F00A03DBB21372FB681B891BB218468D
:101FD000FFF7AAFCFB685B684FF00102C3F88020A2
:101FE000FB681B891BB21846FFF782FC07F110073C
:101FF000BD4680BD684620F007018D4689B500AF1B
:102000004AF6E800C2F20000FFF78EFE4FF00A0029
:10201000FFF78AFCBD46BDE889408546704700BF92
:10202000684620F007018D4689B500AF4AF6C0002A
:10203000C2F20000FFF778FE4FF00B00FFF774FCD0
:10204000BD46BDE889408546704700BF80B483B077
:1020500000AF0346FB804EF20013CEF20003B7F947
:1020600006204FEA5212F98801F01F014FF00100DB
:1020700000FA01F143F8221007F10C07BD4680BCBD
:10208000704700BF80B483B000AF0346FB804EF2C0
:102090000013CEF20003B7F906204FEA5212F98876
:1020A00001F01F014FF0010000FA01F102F12002DE
:1020B00043F8221007F10C07BD4680BC704700BFF3
:1020C00080B483B000AF0346FB804EF20013CEF223
:1020D0000003B7F906204FEA5212F98801F01F01F8
:1020E0004FF0010000FA01F102F1600243F8221002
:1020F00007F10C07BD4680BC704700BF80B584B0B7
:1021000000AF78607A684AF69413C2F200039A42EC
:1021100007D07A684AF61013C2F200039A4200D040
:1021200000BE7B689B881BB21846FFF7ABFF786840
:102130004FF000014FF0840201F01AFD7B684FF070
:1021400001025A624FF00003FB810DE0FB897A68BF
:1021500003F106034FEAC30313444FF0FF325A6002
:10216000FB8903F10103FB81FB89072BEED97A6818
:102170004AF69413C2F200039A4226D17A6841F2D9
:102180000003C4F2000313607B684FF00C029A80D6
:1021900042F20003CEF2040342F20002CEF2040245
:1021A000126B42F400721A634FF00C00FFF788FFC5
:1021B00042F20003CEF2040342F20002CEF2040225
:1021C000126B22F400721A6325E07A6841F2000370
:1021D000C4F2010313607B684FF00D029A8042F253
:1021E0000003CEF2040342F20002CEF20402126BAC
:1021F00042F480621A634FF00D00FFF761FF42F274
:102200000003CEF2040342F20002CEF20402126B8B
:1022100022F480621A637B681B687A68126812680D
:1022200022F000421A6007F11007BD4680BD00BFD2
:1022300080B58AB000AF78607B681B681B68FB6064
:102240007B681B689B693B617B681B685B687B6183
:102250007B681B689B6ABB617B681B681B6BFB61AF
:102260007B681B685B6B3B627B681B68DB697B621E
:102270007A684AF69413C2F200039A422ED17A6821
:1022800041F20003C4F2000313607B684FF00C02BC
:102290009A8042F20003CEF2040342F20002CEF230
:1022A0000402126B42F400721A634FF00C00FFF745
:1022B00007FF42F20003CEF2040342F20002CEF224
:1022C0000402126B22F400721A637B681B687A683E
:1022D0001268126822F000421A602DE07A6841F21A
:1022E0000003C4F2010313607B684FF00D029A8073
:1022F00042F20003CEF2040342F20002CEF20402E4
:10230000126B42F480621A634FF00D00FFF7D8FEA3
:1023100042F20003CEF2040342F20002CEF20402C3
:10232000126B22F480621A637B681B687A681268F9
:10233000126822F000421A60FB6823F00103FB6080
:102340007B681B68FA681A607B681B683A699A6147
:102350007B681B687A695A607B681B687A681268B8
:10236000126842F001021A607B681B68BA699A62BF
:102370007B681B68FA691A637B681B683A6A5A6350
:102380007B681B687A6ADA6107F12807BD4680BD61
:1023900080B584B000AFF8607A600A46FA72FB70CC
:1023A000FA684AF69413C2F200039A4207D0FA6818
:1023B0004AF61013C2F200039A4200D000BEFB7A24
:1023C000072B00D900BE3B7E202B00D900BEFB6846
:1023D0009B881BB21846FFF755FEFB684FF00002C2
:1023E00083F88020FB681B68FA681268126822F084
:1023F00001021A60FB681B68FA681268126842F0F2
:1024000002021A60FB681B68FA681268126842F0E0
:1024100001021A60FB7A072B3FD87B68002B0BD098
:102420007B68B3F1007F07D07B68B3F1807F03D076
:102430007B68B3F1407F0FD1FA7A796840F20213DA
:10244000C2F2004341EA0303F96802F106024FEACF
:10245000C2020A4453600EE0FA7A796840F202132D
:10246000C2F2000341EA0303F96802F106024FEAEF
:10247000C2020A445360FB7AFA6803F106034FEA8A
:10248000C30313443A7E1A72FB7AFA6803F1060317
:102490004FEAC3031344FA785A72FB689B881BB255
:1024A0001846FFF7D3FD07F11007BD4680BD00BFFA
:1024B00080B584B000AF78600B46FB707A684AF64E
:1024C0009413C2F200039A4207D07A684AF61013B6
:1024D000C2F200039A4200D000BE7B681B681B68F2
:1024E00003F00203002B00D100BEFB787A6803F1F1
:1024F00006034FEAC30313445B68B3F1FF3F00D107
:1025000000BE7B689B881BB21846FFF7BBFD7B684B
:102510001B689B6803F00403FB60FB68002B02D080
:102520007868FFF785FE7B681B687A681268126816
:1025300022F001021A607B681A68FB78796803F15F
:1025400006034FEAC3030B445B6813607B681A6899
:10255000FB78796803F106034FEAC3030B445B7A07
:1025600093617B681A68FB78796803F106034FEA88
:10257000C3030B441B7A53607B681B687A6812683C
:10258000126842F001021A607B681B687A68126860
:10259000D169FA784FF0010000FA02F241EA020232
:1025A000DA617B689B881BB21846FFF74FFD07F185
:1025B0001007BD4680BD00BF80B584B000AF786015
:1025C0000B46FB707A684AF69413C2F200039A42F3
:1025D00007D07A684AF61013C2F200039A4200D07C
:1025E00000BE7B681B681B6803F00203002B00D150
:1025F00000BE7B689B881BB21846FFF743FD7B68D3
:102600001B689B6803F00403FB60FB68002B02D08F
:102610007868FFF70DFE7B681B687A681268D169DD
:10262000FA784FF0010000FA02F26FEA020201EAC2
:102630000202DA617B689B881BB21846FFF706FD31
:1026400007F11007BD4680BD80B58EB000AFF860C1
:10265000B9603B601346FB804FF000037B834FF073
:102660000003FB84FA684AF69413C2F200039A420C
:1026700007D0FA684AF61013C2F200039A4200D05B
:1026800000BEFB681B681B6803F00203002B00D12F
:1026900000BEFA88B7F840301344FB86FB8E002B4F
:1026A00003D14FF001033B6201E0FB8E3B62FB680C
:1026B0001B68FA681268D26A42F00C02DA62FB68A0
:1026C0001B689B6803F00403FB62FB6A002B02D0CB
:1026D000F868FFF7ADFDFB681B68FA6812681268BE
:1026E00022F001021A60FB681968FB681B681B680E
:1026F00040F2FF02CFF6007203EA02023B6A4FEAA1
:1027000003204FF60073C0F2FF0300EA030342EA1E
:1027100003030B60FB681B684FF008025A60FB68FC
:102720001B68FA681268126842F001021A60FB68BE
:102730001B689B6803F040033B6309E0FB681B6870
:102740001B697B61FB681B689B6803F040033B636C
:102750003B6B002BF2D04FF00003BB834FF0000324
:10276000FB83BA8BFB889A420FD2FB681B68B98B3C
:10277000BA680A4412785A61BB8B03F10103BB8328
:10278000FB8C03F10103FB846AE0BA8BFB8E9A4257
:1027900066D2FB681B684FF000025A61BB8B03F1E5
:1027A0000103BB83FB8C03F10103FB8458E0FB684E
:1027B0001B689B6803F040033B633B6B002B1ED1FF
:1027C000FB681B681B697B617A8BFB889A420ED37E
:1027D000FA8BB7F840309A4205D2FA8B3B68134423
:1027E0007A69D2B21A70FB8B03F10103FB837B8BF6
:1027F00003F101037B83FB8C03F1FF33FB84FB6854
:102800001B689B6803F48073BB62BB6A002B27D1F3
:10281000FB8C032B24D8BA8BFB889A420FD2FB681F
:102820001B68B98BBA680A4412785A61BB8B03F1F2
:102830000103BB83FB8C03F10103FB8410E0BA8B23
:10284000FB8E9A420CD2FB681B684FF000025A6163
:10285000BB8B03F10103BB83FB8C03F10103FB84FE
:102860007A8BFB8E9A42A2D307F13807BD4680BD12
:1028700080B485B000AF78604FF00003FB600EE0DD
:102880007B681B687A6891687A6812690A441278D2
:102890005A617B681B6903F101027B681A617B68DE
:1028A0001B689B6803F48073002B05D17B681A6951
:1028B0007B68DB689A42E3D37B681A697B68DB68D4
:1028C0009A421CD30EE07B681B687A6851697A686B
:1028D000D2690A4412785A617B68DB6903F101020C
:1028E0007B68DA617B681B689B6803F48073002B4C
:1028F00005D17B68DA697B689B699A42E3D37B6880
:102900005B6A002B1FD07B681A697B68DB689A4280
:1029100019D37B68DA697B689B699A4213D308E014
:102920007B681B684FF000025A61FB6803F10103EA
:10293000FB607B681B689B6803F48073002B02D1EB
:10294000FB681F2BECD907F11407BD4680BC70470C
:1029500080B584B000AF78607B6893F88030022B3C
:1029600015D10CE07B681B681B69FB607B685B6FA3
:10297000002B04D07B685B6FFA68104698477B6831
:102980001B689B6803F04003002BEBD032E07B68B0
:1029900093F88030012B25D117E07B681B681B69F9
:1029A000FB607B681A6B7B68DB6A9A4207D27B68A4
:1029B0009A6A7B681B6B1344FA68D2B21A707B6800
:1029C0001B6B03F101027B681A637B681B689B68C1
:1029D00003F04003002BE0D00CE07B681B681B6910
:1029E000FB6000E000BF7B681B689B6803F040034E
:1029F000002BF2D007F11007BD4680BD80B586B030
:102A000000AF78607B681B6803F120033B617A6844
:102A10004AF69413C2F200039A4207D07A684AF643
:102A20001013C2F200039A4200D000BE3B691B683B
:102A300003F00203002B52D07B6893F88030022B06
:102A400015D10CE07B681B681B69FB607B685B6FC2
:102A5000002B04D07B685B6FFA68104698477B6850
:102A60001B689B6803F04003002BEBD032E07B68CF
:102A700093F88030012B25D117E07B681B681B6918
:102A8000FB607B681A6B7B68DB6A9A4207D27B68C3
:102A90009A6A7B681B6B1344FA68D2B21A707B681F
:102AA0001B6B03F101027B681A637B681B689B68E0
:102AB00003F04003002BE0D00CE07B681B681B692F
:102AC000FB6000E000BF7B681B689B6803F040036D
:102AD000002BF2D07B681B684FF00202DA603B6982
:102AE0001B6803F00103DBB2002B12D07B6893F864
:102AF0008030022B05D17B681B687A68926F5A611F
:102B000002E07868FFF7B4FE7B681B684FF00102B3
:102B1000DA603B691B6803F01003002B23D0786850
:102B2000FFF716FF7B681B6A002B0BD07B681B6AC4
:102B30007A68916A7A68126B0846114698477868F5
:102B4000FFF796FE7B684FF001025A627B681B68B4
:102B50007A681268926A22F010029A627B681B6897
:102B60004FF01002DA603B691B6803F00403002B8E
:102B70000FD07B681B687A681268D26A42F0040240
:102B8000DA627868FFF754FB7B681B684FF0040239
:102B9000DA603B691B6803F00803002B31D07B68C7
:102BA0001B687A681268D26A42F00802DA627B68AF
:102BB00093F88030022B13D17B681A687B681B68FE
:102BC000196840F2FF03CFF6007301EA030343F4F0
:102BD000807313607B681B687A68926F5A610BE0A0
:102BE0007B6893F88030012B06D17B684FF00002A0
:102BF0001A617868FFF73CFE7B681B684FF008029B
:102C0000DA603B691B6803F02003002B49D0786829
:102C1000FFF79EFE7B681B6B7B617B681B6A002B4A
:102C20001CD07B684FF000025A627B684FF00002B4
:102C30005A617B684FF000029A617B684FF0000296
:102C4000DA617B681B684FF01002DA607B681B68F2
:102C50007A681268926A42F010029A627B684FF0BA
:102C600000021A617B681B687A681268D26A42F0B7
:102C70000C02DA627868FFF7FBFD7B684FF0000218
:102C80001A637B68DB6F002B06D07B68DB6F7A688A
:102C9000926A1046796998477B681B684FF020025A
:102CA000DA6007F11807BD4680BD00BF684620F016
:102CB00007018D4689B500AF4AF69410C2F20000B4
:102CC000FFF79CFE4FF00C00FFF7FAF9BD46BDE898
:102CD00089408546704700BF684620F007018D4651
:102CE00089B500AF4AF61010C2F20000FFF786FE69
:102CF0004FF00D00FFF7E4F9BD46BDE88940854679
:102D0000704700BF80B483B000AF0346FB804EF233
:102D10000013CEF20003B7F906204FEA5212F988E9
:102D200001F01F014FF0010000FA01F143F82210F9
:102D300007F10C07BD4680BC704700BF80B483B06C
:102D400000AF0346FB804EF20013CEF20003B7F94A
:102D500006204FEA5212F98801F01F014FF00100DE
:102D600000FA01F102F1600243F8221007F10C07AA
:102D7000BD4680BC704700BF80B485B000AF03463D
:102D80003960FB71FB79FB60FB681F2B00D900BE2B
:102D9000FB681F2B08D8FA6849F65473C2F2000387
:102DA00053F822303A681A6007F11407BD4680BC18
:102DB000704700BF80B485B000AF02460B46FA7181
:102DC000BB71FB79FB60FB681F2B00D900BEFB6861
:102DD0001F2B09D840F20003C4F22623FA68B97900
:102DE00002F5886243F8221007F11407BD4680BC43
:102DF000704700BF80B584B000AF0346FB71FB791C
:102E0000FB60FB681F2B00D900BEFB681F2B1ED880
:102E1000FA6849F65473C2F2000353F822301B6873
:102E2000BB60FA6849F65473C2F2000353F82230CB
:102E3000BA6842F008021A60FA6849F6D473C2F21E
:102E4000000333F812301BB21846FFF75BFF07F19F
:102E50001007BD4680BD00BF80B584B000AF0346FB
:102E6000FB71FB79FB60FB681F2B00D900BEFB6880
:102E70001F2B15D843F20003C4F20103FA684FF088
:102E8000010101FA02F2C3F88020FA6849F6D4730E
:102E9000C2F2000333F812301BB21846FFF74EFFA0
:102EA00007F11007BD4680BD80B590B000AFF86057
:102EB000B960FA807B71FB68002B23D14AF21403BE
:102EC000C2F2000307F1140C9E46BEE80F00ACE806
:102ED0000F00BEE80F00ACE80F009EE80300CCF83E
:102EE00000000CF1040CACF800100CF1020C4FEADD
:102EF00011438CF8003007F1140318464FF03001ED
:102F000000F0B2FD7B79072B23D94AF21403C2F2F9
:102F1000000307F1140C9E46BEE80F00ACE80F005A
:102F2000BEE80F00ACE80F009EE80300CCF80000FC
:102F30000CF1040CACF800100CF1020C4FEA114338
:102F40008CF8003007F1140318464FF0310100F0FF
:102F50008BFDFA8841F6FF739A4223D94AF2140393
:102F6000C2F2000307F1140C9E46BEE80F00ACE865
:102F70000F00BEE80F00ACE80F009EE80300CCF89D
:102F800000000CF1040CACF800100CF1020C4FEA3C
:102F900011438CF8003007F1140318464FF032014A
:102FA00000F062FDFB68002B00F0C7807B79072BE7
:102FB00000F2C380FA8841F6FF739A4200F2BD80A6
:102FC000BB6803F10802FB8803F0FF0310461946B3
:102FD00000F08EFDBB6803F10C027979FB8803F4E5
:102FE0007F434FEA631341EA03031046194600F09A
:102FF0007FFDFB68BA681A60FB681B6803F1080371
:10300000184600F077FD0346FB87FB681B6803F159
:103010000C03184600F06EFD034687F83C3097F825
:103020003C3023F0070387F83D3097F83D304FEAF6
:1030300043139AB2FB8F42EA0303FB8797F83C30B5
:1030400003F0070387F83C30FA8FFB889A4223D0BD
:103050004AF21403C2F2000307F1140C9E46BEE8C4
:103060000F00ACE80F00BEE80F00ACE80F009EE8D0
:103070000300CCF800000CF1040CACF800100CF1CB
:10308000020C4FEA11438CF8003007F11403184684
:103090004FF0540100F0E8FC97F83C207B799A420D
:1030A00023D04AF21403C2F2000307F1140C9E4627
:1030B000BEE80F00ACE80F00BEE80F00ACE80F0060
:1030C0009EE80300CCF800000CF1040CACF80010F2
:1030D0000CF1020C4FEA11438CF8003007F1140395
:1030E00018464FF0550100F0BFFCFB681B6803F168
:1030F0001003184600F0FEFC034603F0020387F8B5
:103100003B3012E0FB681B6803F10403184600F033
:10311000F1FCFB681B6803F11003184600F0EAFCA1
:10312000034603F0020387F83B3097F83B30002B4F
:10313000E8D1FB684FF000021A7107F14007BD4665
:1031400080BD00BF80B590B000AFF860B9607A6014
:10315000FB68002B23D14AF21403C2F2000307F1EB
:10316000100C9E46BEE80F00ACE80F00BEE80F0052
:10317000ACE80F009EE80300CCF800000CF1040C52
:10318000ACF800100CF1020C4FEA11438CF800303F
:1031900007F1100318464FF07C0100F065FCBB6896
:1031A000002B23D14AF21403C2F2000307F1100CE2
:1031B0009E46BEE80F00ACE80F00BEE80F00ACE88A
:1031C0000F009EE80300CCF800000CF1040CACF8F2
:1031D00000100CF1020C4FEA11438CF8003007F19B
:1031E000100318464FF07D0100F03EFC7B68002B79
:1031F00023D14AF21403C2F2000307F1100C9E46D9
:10320000BEE80F00ACE80F00BEE80F00ACE80F000E
:103210009EE80300CCF800000CF1040CACF80010A0
:103220000CF1020C4FEA11438CF8003007F1100347
:1032300018464FF07E0100F017FCFB68002B2BD0E6
:10324000BB68002B28D07B68002B25D04FF00003F3
:10325000BB631DE0FB681B6803F11003184600F018
:1032600049FC034603F0010387F83F3097F83F30ED
:10327000002BEFD0FB681A68B968BB6B0B441B7856
:103280001046194600F034FCBB6B03F10103BB632D
:10329000BA6B7B689A42DDD307F14007BD4680BD1B
:1032A00080B5A4B000AFF860B9601346FB80FB683E
:1032B000002B17D14AF23C03C2F2000307F1700C55
:1032C0009E46BEE80F00ACE80F009EE80F00ACE899
:1032D0000700ACF8003007F1700318464FF04301C7
:1032E00000F0C2FBBB68002B17D14AF23C03C2F2CC
:1032F000000307F1500C9E46BEE80F00ACE80F003B
:103300009EE80F00ACE80700ACF8003007F150036E
:1033100018464FF0440100F0A7FBFB88202B17D97B
:103320004AF23C03C2F2000307F1300C9E46BEE8AD
:103330000F00ACE80F009EE80F00ACE80700ACF807
:10334000003007F1300318464FF0450100F08CFBC8
:10335000FB88002B17D14AF23C03C2F2000307F1AD
:10336000100C9E46BEE80F00ACE80F009EE80F0070
:10337000ACE80700ACF8003007F1100318464FF036
:10338000460100F071FBFB68002B52D0BB68002B9C
:103390004FD0F8684FF000014FF0480200F0E8FB12
:1033A000FB68BA681A60FB88202B07D8FB88002BC3
:1033B00004D0FB68FA88A3F8442004E0FB684FF0CF
:1033C0000102A3F84420FB681B6818464FF0000177
:1033D0004FF001024FF0000300F08EFBFB681B680A
:1033E00003F1240318464FF0000100F081FBFB6855
:1033F0001B6803F11C0318464FF0030100F078FB33
:10340000FB681B6803F1040318464FF0FF0100F04E
:103410006FFBFB681B6803F1180318464FF00001AF
:1034200000F066FBFB681B6818464FF0030100F0D4
:103430005FFB07F19007BD4680BD00BF80B58AB035
:1034400000AF78607B68002B17D14AF23C03C2F2D0
:10345000000307F1080C9E46BEE80F00ACE80F0021
:103460009EE80F00ACE80700ACF8003007F1080355
:1034700018464FF0A40100F0F7FA7B68002B31D01A
:103480007B681B6818464FF000014FF001024FF0B7
:10349000000300F031FB7B684FF0000283F8462008
:1034A0007B681B6803F11C0318464FF0030100F012
:1034B0001FFB7B681B6803F1040318464FF0FF01F4
:1034C00000F016FB7B681B6803F1180318464FF0E9
:1034D000000100F00DFB7B681B6818464FF00301EC
:1034E00000F006FB07F12807BD4680BD80B592B00D
:1034F00000AF78600B46FB704FF0000387F8473051
:103500007B68002B17D14AF23C03C2F2000307F19B
:10351000280C9E46BEE80F00ACE80F009EE80F00A6
:10352000ACE80700ACF8003007F1280318464FF06C
:10353000C80100F099FAFB78072B17D94AF23C032F
:10354000C2F2000307F1080C9E46BEE80F00ACE88B
:103550000F009EE80F00ACE80700ACF8003007F160
:10356000080318464FF0C90100F07EFA7B68002B73
:103570003CD0FB78072B39D87B681B6818464FF086
:1035800001014FF0020200F0C5FA0346002B2DD0D6
:103590007B681B6803F1200318464FF004014FF0CD
:1035A000100200F0B7FA0346012B02D1786800F050
:1035B00009F97B681B6803F12403184600F09AFAA6
:1035C00003461A46FB784FF0010101FA03F3DBB220
:1035D00042EA030387F847307B681B6803F1240243
:1035E00097F847301046194600F082FA07F148076D
:1035F000BD4680BD80B592B000AF78600B46FB70D1
:103600004FF0000387F847307B68002B17D14AF250
:103610003C03C2F2000307F1280C9E46BEE80F00EF
:10362000ACE80F009EE80F00ACE80700ACF80030F3
:1036300007F1280318464FF0E80100F015FAFB786F
:10364000072B17D94AF23C03C2F2000307F1080C1A
:103650009E46BEE80F00ACE80F009EE80F00ACE805
:103660000700ACF8003007F1080318464FF0E901F5
:1036700000F0FAF97B68002B3FD0FB78072B3CD891
:103680007B681B6818464FF001014FF0020200F002
:1036900041FA0346002B30D07B681B6803F12003FE
:1036A00018464FF004014FF0100200F033FA0346C1
:1036B000012B02D1786800F085F87B681B6803F164
:1036C0002403184600F016FA03461A46FB784FF01A
:1036D000010101FA03F3DBB26FEA0303DBB202EA92
:1036E000030387F847307B681B6803F1240297F8CF
:1036F00047301046194600F0FBF907F14807BD4670
:1037000080BD00BF80B58CB000AF786039604FF0ED
:103710000003FB627B68002B17D14AF23C03C2F224
:10372000000307F10C0C9E46BEE80F00ACE80F004A
:103730009EE80F00ACE80700ACF8003007F10C037E
:1037400018464FF4847100F08FF97B68002B33D05A
:103750007B681B6818464FF001014FF0020200F031
:10376000D9F90346002B27D07B681B6803F11C03A3
:1037700018464FF0030100F0BBF97B681B6803F1AA
:1037800028031846396800F083F97B681B6803F149
:10379000200318464FF001014FF0020200F0BAF981
:1037A0000346012BF1D17B681B6803F1080318461F
:1037B00000F070F90346FB62FB6A184607F1300718
:1037C000BD4680BD80B582B000AF78607B681B6865
:1037D00018464FF000014FF001024FF0000300F0D7
:1037E0008BF97B681B6803F11C0318464FF003013B
:1037F00000F07EF97B681B6803F1040318464FF064
:10380000FF0100F075F97B681B6818464FF0000156
:103810004FF001024FF0010300F06EF907F10807C5
:10382000BD4680BD80B400AFBD4680BC704700BFC0
:1038300080B58AB000AF4AF25C03C2F20003BC4616
:103840000FCB8CE80F0042F20003CEF204039B6C16
:103850004FEA930303F003034FEA830307F12802BF
:10386000134453F8283C3B6142F20003CEF20403B8
:103870009B6C4FEA131303F003034FEA830307F132
:103880002802134453F8283C7B6142F20003CEF235
:1038900004039B6C4FEA931303F003034FEA830383
:1038A00007F12802134453F8283CBB6142F200039D
:1038B000CEF20403DB6C4FEA132303F01F033B62D9
:1038C00042F20003CEF20403DB6C4FEA533303F001
:1038D00001037B623B6A03F10103FB617B6A002BFE
:1038E00003D0FB694FEA4303FB6100F049F802464D
:1038F0004AF2F023C2F200031A604AF2F023C2F245
:1039000000031A683B69B2FBF3F24AF2F423C2F2F5
:1039100000031A604AF2F023C2F200031A687B69BE
:10392000B2FBF3F24AF2F823C2F200031A604AF241
:10393000F023C2F200031A68BB69B2FBF3F24AF249
:10394000FC23C2F200031A604AF2F023C2F2000321
:103950001A68FB69B2FBF3F24AF20033C2F20003C9
:103960001A604AF2F023C2F200031A684AF2EC230A
:10397000C2F200031A6007F12807BD4680BD00BFF0
:1039800080B48BB000AF4FF000037B6040F61C03A7
:10399000C6F20803BB6040F23023C6F20803FB60A6
:1039A000FB681B6823F070433B613A6941F2CF1317
:1039B000C0F2A1539A4208D14EF62C73C6F201030D
:1039C0007B617B691B687B603DE0BB681A6844F2E1
:1039D0004133C4F654439A4235D140F64003C6F20F
:1039E0000803BB61BB691B68FB61FB6923F07F4374
:1039F000FB61FA6940F20033C0F201039A4222D916
:103A0000FA694FF6FF73C0F201039A4208D841F2F7
:103A10002C63C6F208033B623B6A1B687B6012E0C2
:103A2000FA694FF6FF73C0F202039A4208D841F6D2
:103A3000AC63C6F208037B627B6A1B687B6002E0B2
:103A40004FF000037B607B68002B05D100BE47F67A
:103A50004003C0F27D137B607B68184607F12C079A
:103A6000BD4680BC704700BF80B487B000AF7860AF
:103A700039607B687B613B683B617B691B78DBB2AB
:103A8000FB733B69BB60BB6803F10103BB60F0E7FC
:103A900001607047006870470EB503FA01F303EA4E
:103AA000020301686FEA020201EA020141EA03012E
:103AB00001600EBD006800EA020020FA01F07047C4
:103AC00001807047008870470EB503FA01F303EADE
:103AD000020301886FEA020201EA020141EA0301DE
:103AE00001800EBD008800EA020020FA01F0704754
:103AF00001707047007870470EB503FA01F303EACE
:103B0000020301786FEA020201EA020141EA0301BD
:103B100001700EBD007800EA020020FA01F0704743
:103B200070B54AF2D0264AF2D025C2F20006C2F29F
:103B30000005761BB61006D0002455F82430013459
:103B40009847A642F9D84AF2D0254AF2D426C2F2C2
:103B50000005C2F20006761B06F0AEFBB61006D0DA
:103B6000002455F8243001349847A642F9D870BD96
:103B7000032AC9B230B407D822B10023C15401339B
:103B80009342FBD130BC704700EB020C034601E0CE
:103B900003F8011C03F003041A460133002CF7D18B
:103BA0004FF00133C2EB0C0403FB01F31FE042F8BA
:103BB000403C42F83C3C42F8383C42F8343C42F845
:103BC000303C42F82C3C42F8283C42F8243C42F875
:103BD000203C42F81C3C42F8183C42F8143C42F8A5
:103BE000103C42F80C3C42F8083C42F8043C1546B4
:103BF00040323F2CA4F14004D9DC2A46C5EB0C042A
:103C000007E042F8103C42F80C3C42F8083C42F80D
:103C1000043C154610320F2CA4F11004F1DC2A46A6
:103C2000C5EB0C0501E042F8043C14460432032DB8
:103C3000A5F10405F7DC01E004F8011B6445FBD3A2
:103C4000A0E700BF0FB44AF20433C2F2000310B57C
:103C50001C6882B024B1A36913B9204602F008FFA2
:103C6000204605AC049A23468168019400F09EF832
:103C700002B0BDE8104004B0704700BF0EB410B5EC
:103C8000044683B018B183690BB902F0F1FE2046F7
:103C900006AC059A23468168019400F087F803B0CA
:103CA000BDE8104003B0704730B5044689B00846FF
:103CB0000D4600F03DF84AF274030195C2F200038C
:103CC00003930290431C07930123049301AB0593D4
:103CD000022306930CB1A369EBB14AF204332046E8
:103CE000C2F200031B689B689A8912F4005F01BF4F
:103CF00042F400529A81596E21F40052A16808BF23
:103D00005A6605AA03F018F8002814BF4FF0FF30D8
:103D10000A2009B030BD204602F0AAFEDDE700BF50
:103D20004AF204330146C2F200031868BCE700BF40
:103D300020F0030110F00300C0F1000051F8043B33
:103D400000F1040C4FEACC0C6FF000021CBF22FA09
:103D50000CF213434FF0010C4CEA0C2C4CEA0C4CC7
:103D6000A3EB0C0222EA030212EACC1204BF51F8C0
:103D7000043B0430F4D013F0FF0F1FBF013013F4E5
:103D80007F4F013013F47F0F18BF0130704700BF21
:103D9000936810B5144613B95360184610BD02F06D
:103DA000CBFF00236360A36010BD00BF2DE9F04F7F
:103DB000ADF5AE6D83B00E4615469A46814603F0CA
:103DC000ABF900681D90B9F1000F04D0D9F8183094
:103DD000002B00F05A814AF2EC03C2F200039E422B
:103DE00008BFD9F8046010D04AF20C13C2F20003E5
:103DF0009E4208BFD9F8086007D04AF22C13C2F2DD
:103E000000039E4208BFD9F80C60B6F80CC01FFA38
:103E10008CF313F4005F09D14CF4005C726EA6F8C9
:103E20000CC01FFA8CF322F40052726613F0080FD4
:103E300001F001833269002A01F0FD8203F01A03C8
:103E40000A2B00F0E080002212921A9200231C92AA
:103E50000DF59C641192043419920DF5A4621B9324
:103E600004320DF590632832033318920793002330
:103E7000CDF84C45CDF85035CDF854352B781A1E79
:103E800018BF0122252B0CBF002202F0010232B321
:103E90002F4617F8013F1A1E18BF0122252B0CBF11
:103EA000002202F00102002AF3D1B7EB050808BF97
:103EB0003D4614D0C4F80480DDF85035DDF85425B3
:103EC00001332560072B4244CDF85035CDF85425F9
:103ED00078DC083411983D46404411903B78002B23
:103EE0007CD06B1C4FF0FF372B204FF0200C0021B3
:103EF0004FF000020F918DF87725CDF82CA06A784D
:103F00000A915D1CA2F12003582B00F28682DFE8A3
:103F100013F0980284028402A402840284028402C0
:103F2000840284028402AD02BA028402C102CA027F
:103F30008402E702F002F002F002F002F002F00266
:103F4000F002F002F00284028402840284028402FD
:103F5000840284028402840284020403260384020D
:103F6000260384028402840284026A038402840297
:103F70008104840284028402840284021404840280
:103F800084022F0484028402840284028402840254
:103F900084028402840284024F04650426032603FB
:103FA0002603730365048402840279038402850373
:103FB0009603AD030A048402CC038402F403840252
:103FC0008402C0000DF5A862484631460C32FFF766
:103FD000DFFE58B90DF59C6404347BE7DDF85435F9
:103FE000002B41F092810023CDF85035B38913F0B6
:103FF000400F02D04FF0FF30119011985FB00DF5D7
:10400000806DBDE8F08FB6F90E30002BFFF61BAFC8
:10401000376A2CF0020CD6F828E00DF58E64ADF866
:1040200088C40C34B6F80EC02A465346484621468A
:104030001FADCDF89C740027CDF88C54CDF87C547E
:104040004FF48065CDF8A4E4ADF88AC4CDF890545F
:10405000CDF89474CDF88454FFF7A8FE0028119091
:1040600009DB2146484602F093FB1199B84218BF7C
:104070004FF0FF311191BDF8883413F0400FBCD0E0
:10408000B38943F04003B381B7E7484602F0F0FC40
:10409000A1E60A984AF2BC0CC2F2000C169210F08B
:1040A000200FCDF864C000F06E830B99CB1D23F078
:1040B000070303F108020B92D3E900AB5AEA0B02A3
:1040C0000A9B0CBF00220122134240F06B860223A0
:1040D0004FF000018DF87715002FA2BFDDF828C042
:1040E0002CF0800CCDF828C0002F18BF42F0010240
:1040F000002A00F01E84012B00F0DE85022B00F068
:10410000C185189913914FEADA084FEADB0C48EAA7
:104110004B780AF00700E346C24630305AEA0B02F9
:1041200001F8010DEFD1DDF828C013911CF0010F4B
:1041300040F08C861898401A10909DF87735109AA8
:104140001797BA42B8BF3A460C9213B10C9A013293
:104150000C920A9B0A9813F0020315931EBFDDF818
:1041600030C00CF1020CCDF830C010F08400149077
:104170004DD10F990C9A8F1A002F48DD102F4AF25B
:104180007808D8BFC2F2000830DDC2F200080DF591
:10419000A86B43464FF0100AA8460BF10C0B1D46C6
:1041A00002E0103F102F1EDDC4F804A0DDF85035EA
:1041B000DDF85425013325601032072BCDF8542546
:1041C00004F10804CDF85035EBDD0DF59C6448464C
:1041D00031465A460434FFF7DBFD00287FF406AF72
:1041E000103F102FE0DC2B46454698466760DDF80F
:1041F0005035C4F800805A1CDDF85435CDF85025F0
:10420000DB19072ACDF8543500F38A8508349DF868
:1042100077359BB101236360DDF850350DF5AE6253
:1042200007322260DDF854250133CDF850350132D4
:10423000072BCDF8542500F3B6840834159B9BB1A9
:1042400002236360DDF850350DF5AE620432226062
:10425000DDF854250133CDF850350232072BCDF867
:10426000542500F3AF840834DDF850C0BCF1800F52
:1042700000F07683179B109A9F1A002F43DD102FB2
:10428000DFF88C8B2EDD43460DF5A86BA8464FF06A
:10429000100A0BF10C0B1D4602E0103F102F1EDD23
:1042A000C4F804A0DDF85035DDF85425013325604D
:1042B0001032072BCDF8542504F10804CDF8503501
:1042C000EBDD0DF59C64484631465A460434FFF751
:1042D0005FFD00287FF48AAE103F102FE0DC2B46F4
:1042E000454698466760DDF85035DDF854250133C2
:1042F000C4F80080D219072BCDF85425CDF85035DD
:1043000000F342840834DDF828C01CF4807F40F0BC
:104310009D82109813996060DDF85035DDF85425C2
:10432000013321601218072BCDF85035D8BF04F1A6
:104330000803CDF8542500F39B830A9911F0040F6C
:1043400055D00F9ADDF830C0CCEB0207002F4EDDC0
:10435000102F4AF27808D8BFC2F200082EDDC2F250
:1043600000080DF5A86A42461024A8460AF10C0A76
:10437000154602E0103F102F1DDD5C60DDF8502572
:10438000DDF8541501321D601031072ACDF854159F
:1043900003F10803CDF85025ECDD4846314652467E
:1043A000FFF7F6FC0DF59C63043300287FF41EAE86
:1043B000103F102FE1DC2A46454690465F60DDF84D
:1043C0005025C3F80080DDF854350132CDF8502572
:1043D000FB18072ACDF854350BDD0DF5A8624846C9
:1043E00031460C32FFF7D4FC00287FF4FFADDDF836
:1043F000543511980C9A0F998A42ACBF8018401816
:104400001190002B40F042830DF59C640023DDF8F1
:104410002CA00434CDF8503530E51692002A3FF434
:10442000DDAD0DF5A46001234FF0000C04300C93BA
:104430008DF824258DF877C51390109300211791DE
:1044400087E69DF87735002B40F02B850B992B469E
:104450008DF877C52A780B9153E50B990A9B43F0A9
:1044600001030A932B462A780B914AE50B990B9A84
:1044700009680F91111D0F9B002BC0F280872A78CD
:104480002B460B913DE50B992B468DF877052A7845
:104490000B9136E50B990A9B43F004030A932B46D4
:1044A0002A780B912DE52B4613F8012B2A2A01F0CF
:1044B000CD80A2F13001092901F2378002350027B1
:1044C00015F8012C07EB87072B46013501EB470751
:1044D000A2F130010929F3D947EAE7771D4611E532
:1044E0000B992B460A9A42F080020A922A780B9185
:1044F00007E5A2F130014FF000082B4608EB8808D1
:1045000013F8012B01EB4808A2F130011D460929DF
:10451000F3D9CDF83C801D46F4E40A9B169243F093
:1045200010030A93DDF828C01CF0200F00F05D8115
:104530000B98C31D23F0070303F108010B91D3E986
:1045400000ABBAF1000F7BF10002C0F29B845AEA83
:104550000B034FF001030CBF00220122BCE50A98B7
:10456000169210F0080F00F0ED840B99CB1D23F08C
:10457000070303F108020B92D3F80480D3F800A0DC
:10458000CDF86C80CDF848A05046414604F030F993
:104590008346002800F099855046002200234146BA
:1045A00005F0F6F8002840F00B859DF877354AF2C3
:1045B000B0014AF2AC021698C2F20001C2F2000247
:1045C0004FF0030C4728D8BF114613910A99CDF834
:1045D00030C021F08001CDF840C00A914FF0000CAE
:1045E000CDF85CC0B1E50B990A9B43F008030A9330
:1045F0002B462A780B9184E40A9941F040010A91F4
:104600000B993CE72A786C2A00F055850B990A9B98
:104610000B9143F010030A932B4672E40A9A12F0AE
:10462000200F00F082840B98119A036810464FEA1D
:10463000E0710B9AC3E9000102F1040A1EE416922C
:104640000A9A12F0200300F0EF800B9BDA1D002382
:1046500022F0070202F1080CCDF82CC0D2E900AB21
:104660005AEA0B000CBF0022012231E50B98782199
:10467000DDF828C0169103684AF2BC008DF8751564
:1046800030218DF874154CF0020C0B991A1E18BFCE
:104690000122C2F200009A464FF0000B0431CDF81F
:1046A00028C0199002230B9112E50B9B16924FF034
:1046B0000002181D8DF877251B680B901393002BB3
:1046C00000F0C686002F1398C0F28F8600213A466C
:1046D00003F0A6F80346002800F0F58613981B1A8D
:1046E0001093BB4240F3BE851097002127EAE7777D
:1046F0009DF877350C97179127E5DDF828C01692BD
:104700001CF0200F23D00B980123C21D22F00702BA
:1047100002F108010B91D2E900AB5AEA0B020CBF7F
:1047200000220122D4E40A992B4641F020010A918B
:104730000B992A780B91FFF7E4BB0A9B169243F082
:1047400010030A93DDF828C01CF0200FDBD10A9B70
:1047500013F0100F00F0D5830B980123021D0B926C
:1047600001680A1E18BF01228A464FF0000BAFE411
:104770000A9816924AF2980210F0200FC2F2000234
:1047800019927FF492AC0A9B13F0100F40F01A8339
:104790000A9A12F0400F00F015830B9B03F1040CF2
:1047A000CDF82CC0B3F800A0D2464FF0000B85E442
:1047B00016920DF5A4610B9A4FF0010C4FF000001A
:1047C0000431CDF830C0136804328DF877050B92B0
:1047D0001391CDF840C08DF824352FE6DDF828C0C0
:1047E00016921CF0200F7FF4A3AE0A9A12F0100F5D
:1047F00040F0F1820A9A12F0400F00F0EC820B9B1D
:1048000003F1040CCDF82CC0B3F900A0D2464FEA56
:10481000EA7B96E60A99169241F010010A910A9AEB
:1048200012F020037FF411AF0A9911F0100200F08A
:1048300054830B9A02F1040CCDF82CC011680A1EA7
:1048400018BF01228A464FF0000B41E4169A652AF0
:1048500040F328811298002200231B9904F08EFF58
:10486000002800F0BE8101236360DDF850254AF284
:10487000D803C2F200032360DDF854350132CDF8CD
:1048800050250133072ACDF85435D8BF04F1080369
:1048900000F39B83DDF870251A98824204DB0A99A5
:1048A00011F0010F3FF449AD01225A60DDF85025A7
:1048B000DDF8541501321D980131072ACDF8541541
:1048C0001860CDF8502500F35F8508331A994F1E04
:1048D000002F7FF732AD102FDFF8348540F3EA82E6
:1048E00042460DF5A86AA84610240AF10C0A15469E
:1048F00003E0103F102F40F3DA825C60DDF85025B2
:10490000DDF8541501321D601031072ACDF8541519
:1049100003F10803CDF85025EBDD484631465246F9
:10492000FFF736FA0DF59C6304330028E1D0FFF75A
:104930005DBB7BB90A9911F0010F0BD00DF5A46294
:10494000302304328DF84B35273201231392109314
:10495000FFF7F3BB1898002110911390FFF7EDBB00
:104960000F980C99471A002F7FF784AC102FDFF8AF
:10497000A0842EDD43460DF5A86BA8464FF0100A23
:104980000BF10C0B1D4602E0103F102F1EDDC4F88A
:1049900004A0DDF85035DDF85425013325601032D0
:1049A000072BCDF8542504F10804CDF85035EBDD84
:1049B0000DF59C64484631465A460434FFF7E8F941
:1049C00000287FF413AB103F102FE0DC2B46454648
:1049D00098466760DDF85035C4F800805A1CDDF851
:1049E0005435CDF85025DB19072ACDF8543500F39E
:1049F0003A8208343EE413996360DDF85025216063
:104A0000DDF854150132CDF85025CB18072ACDF822
:104A1000543500F3498508341D9A0123DDF870757B
:104A20006360DDF850352260DDF854250133CDF8A0
:104A300050350132072BCDF85425D8BF04F10803B7
:104A400000F323851398DDF87025C7191A981F60A5
:104A5000811A5960DDF854158A1ADDF850151218BC
:104A6000CDF854250131CDF85015072940F3328295
:104A70000DF5A862484631460C32FFF789F9002847
:104A80007FF4B4AA0DF59C63043356E40DF5A862D7
:104A9000484631460C32FFF77BF900283FF4B4ACAE
:104AA000FFF7A4BA1A9901294CDD01236360DDF8F0
:104AB0005035DDF85425013313980132072BCDF81A
:104AC00054252060CDF8503500F3B281083401231D
:104AD0006360DDF85035DDF8542501331D9901324E
:104AE000072BCDF854252160CDF8503500F3928185
:104AF00008341298002200231B9904F03FFE00287E
:104B000040F01D811A9B13985A1E6260DDF85035E3
:104B1000411C2160DDF854150133CDF850358A1859
:104B2000072BCDF8542521DC08341C9B0DF5AC6215
:104B30001C9822606360DDF85035DDF854250133A0
:104B4000FFF7F0BB0A9A12F0010FAED1139A0123BE
:104B50006360DDF850352260DDF854250133CDF86F
:104B600050350132072BCDF85425DDDD0DF5A86257
:104B7000484631460C32FFF70BF900287FF436AA7D
:104B80000DF59C640434D0E70DF5A8624846314623
:104B90000C32FFF7FDF800287FF428AA0DF59C647D
:104BA0000434FFF7B0BB0DF5A862484631460C321D
:104BB000FFF7EEF800287FF419AA0DF59C64043481
:104BC000FFF73CBB0DF5A862484631460C32FFF7B3
:104BD000DFF800287FF40AAA0DF59C640434FFF77F
:104BE00043BBDDF87035002B40F3FD811A998B42F1
:104BF000FFF601AF139A6160DDF850352260DDF8F1
:104C000054250133CDF850355218072BCDF85425D3
:104C1000D8BF04F1080300F32984DDF870451A9821
:104C2000241A002C40F3B381102CDFF8E48140F308
:104C30009D8142460DF5A86AA84610270AF10C0A84
:104C4000154603E0103C102C40F38D815F60DDF8C9
:104C50005025DDF8541501321D601031072ACDF8BA
:104C6000541503F10803CDF85025EBDD48463146D5
:104C70005246FFF78DF80DF59C6304330028E1D010
:104C8000FFF7B4B9189A1998134613920AF00F0255
:104C90004FEA1A1141EA0B714FEA1B1C825C8A46EB
:104CA000E3465AEA0B0C03F8012DEFD11898139341
:104CB000C01A1090FFF741BA09220023524573EB46
:104CC0000B00DDF860801FD223464446B8461F46DD
:104CD000504659460A22002304F0AAFD00235046FC
:104CE000594602F1300C0A2204F801CD04F0A0FD6F
:104CF0000922002382468B46524573EB0B03E7D310
:104D00003B464746A0461C4608F1FF300AF1300AF0
:104D1000139008F801AC1899091A1091FFF70DBA11
:104D20000DF5A862484631460C32FFF731F80028ED
:104D30007FF45CA90DF59C640434FFF768BA1A99F6
:104D40004F1E002F7FF7F1AE102FDFF8C4804EDD2D
:104D500043460DF5A86BA8464FF0100A0BF10C0B5B
:104D60001D4602E0103F102F3EDDC4F804A0DDF820
:104D70005035DDF85425013325601032072BCDF86E
:104D8000542504F10804CDF85035EBDD0DF59C6495
:104D9000484631465A460434FEF7FAFF0028E1D06F
:104DA000FFF724B916983021DDF828C0012202232C
:104DB0008DF874154CF0020C8DF87505CDF828C0EF
:104DC000FFF786B90B98011D03680B919A464FF0C7
:104DD000000BFFF773B90B98011D03680B919A46FE
:104DE0004FEAEA7BFFF7ADBB2B4645469846676026
:104DF000DDF85035DDF854250133C4F80080D219B0
:104E0000072BCDF85425CDF850357FF78DAEADE6A4
:104E100088A000200DF5A862484631460C32FEF706
:104E2000B7FF00287FF4E2A80DF59C64043460E627
:104E30000DF5A862484631460C32FEF7A9FF00285E
:104E40007FF4D4A80DF59C64043440E6302800F0CB
:104E5000EC821398302300F8013D18991390091A39
:104E60001091FFF76AB90DF5A862484631460C3239
:104E7000FEF78EFF00287FF4B9A80DF59C6404347A
:104E8000FFF7F8B9DAF1000A6BEB4B0B2D235AEA66
:104E90000B0C8DF877350CBF002201220123FFF7A0
:104EA0001BB90B992B462A780B91FFF72AB82A4693
:104EB000454690465F60DDF85025DDF85415013217
:104EC000C3F80080C919072ACDF85415CDF850252C
:104ED0003FF7CEAD0833FFF730BA0A9810F0400321
:104EE00000F0ED810B9913460A1D0B92B1F800A05A
:104EF000BAF1000218BF0122D2464FF0000BFFF7B3
:104F0000E7B80A9B13F0400F00F0CC810B98012307
:104F1000011D0B91B0F800A0BAF1000218BF0122E8
:104F2000D2464FF0000BFFF7D3B80A9B13F0100FD7
:104F300000F0A4810B98119900F1040A036819602C
:104F4000FEF79CBF0B98C31D23F0070303F1080174
:104F50000B91D3F80480D3F800A0CDF86C80CDF885
:104F600048A0FFF711BB2A46454690465C60DDF835
:104F70005025DDF854150132C3F800800919072ABD
:104F8000CDF85415CDF8502500F3EA8208330A997C
:104F900011F0010F3FF4D1A901225A60DDF850252C
:104FA000DDF8541501321D980131072ACDF854154A
:104FB0001860CDF850253FF75BAD0833FFF7BDB95A
:104FC0002D238DF87735FFF7F2BA0DF5A862484624
:104FD00031460C32FEF7DCFE00287FF407A80DF501
:104FE0009C63043356E401236360DDF850254AF2E4
:104FF000D803C2F200032360DDF854350132CDF846
:1050000050250133072ACDF85435D8BF04F10803E1
:1050100000F38781DDF870253AB91A9A2AB9DDF8CC
:1050200028C01CF0010F3FF488A901225A60DDF866
:105030005025DDF8541501321D980131072ACDF8AD
:1050400054151860CDF8502500F379810833DDF848
:1050500070757F42002F40F3B381102FDFF8508628
:1050600040F3D28142460DF5A86AA84610240AF101
:105070000C0A154603E0103F102F40F3C2815C601C
:10508000DDF85025DDF8541501321D601031072A76
:10509000CDF8541503F10803CDF85025EBDD484653
:1050A00031465246FEF774FE0DF59C63043300282A
:1050B000E1D0FEF79BBF0B996B1C0A9A42F02002CD
:1050C0000A926A780B91FEF71CBF5046414603F0E6
:1050D000A1FB002840F0FF80B7F1FF3F00F05182B4
:1050E0001698672814BF00230123472808BF43F000
:1050F000010313B1002F08BF01270DF5AB60434634
:1051000052460A99C0E90023DDF85C3541F480710C
:105110000A91002BC0F2648200211791169866282C
:1051200014BF00230123462808BF43F00103109356
:10513000002B00F0D181BC460323CDF830A00DF543
:10514000AE61CDF834804846009302910DF5AC6114
:10515000DDE90C230C31CDF804C003910DF5AD61F0
:10516000CDF824C0049100F0C7FB169ADDF824C0E6
:10517000B2F1670318BF0123472A0CBF002303F0D5
:105180000103139033B90A9B13F0010F08BFDDF838
:1051900068B516D01398109900EB0C0B31B1037859
:1051A000302B00F0DA80DDF870359B445046002249
:1051B0000023414604F0E2FA002800F0C281CDF855
:1051C00068B5169A1398672A14BF00230123472A4B
:1051D00008BF43F00103C0EB0B001A90002B00F056
:1051E0008A81DDF8701511F1030F109102DB8F42F7
:1051F00080F28C81169A023A16921099169A4B1EDA
:10520000CDF87035002B8DF86025C0F234822B224A
:105210008DF86125092B00F3B6810DF5AC623033B2
:1052200004328DF8633530238DF862350DF5AC63AB
:105230001A981A99D31A18181C930129109040F340
:10524000108210980130109020EAE0710C911798AC
:10525000002800F06E812D2300218DF877351791FD
:10526000FEF774BF109A4FF0000C9DF8773522EAD4
:10527000E272CDF85CC00C92FEF767BF0A9A12F09A
:10528000400F17BF0B980B9A119900F1040A11BF38
:10529000036802F1040A1368119814BF198018609A
:1052A000FEF7ECBD0B9A131D0B93116801230A1E28
:1052B00018BF01228A464FF0000BFEF709BF0B987A
:1052C000021D0B9201680A1E18BF01228A464FF088
:1052D000000BFEF7FDBE4AF2B8024AF2B40316997B
:1052E000C2F20003C2F2000203204729D8BF1A46C7
:1052F00013920A9A0C9022F08002CDF85CB00A92C8
:105300009DF877351090FEF720BF0DF5A86248464E
:1053100031460C32FEF73CFD00287EF467AEFEF706
:1053200062BE0DF5A862484631460C32FEF730FDEC
:1053300000287EF45BAE0DF59C6304336AE60DF540
:10534000A862484631460C32FEF722FD00287EF462
:105350004DAE0DF59C63043379E6504600220023E0
:105360004146CDF824C004F009FADDF824C0002835
:105370007FF419AFCCF10103CDF8703515E70F9A22
:1053800052420F92FFF787B80DF5A86248463146A2
:105390000C32FEF7FDFC00287EF428AE0DF59C6370
:1053A0000433FFF793BA0DF5A862484631460C3234
:1053B000FEF7EEFC00287EF419AE0DF59C63043375
:1053C0001A9913985960DDF85025DDF854151860C6
:1053D00001321A98CDF850250918072ACDF854152E
:1053E0003FF746AB0833FEF7A8BF00211791FEF741
:1053F0009FFC9DF8773520EAE07210900C92FEF742
:10540000A4BE2A46454690465F60DDF85025DDF88B
:1054100054150132C3F80080C919072ACDF8541574
:10542000CDF85025BFDC0833CAE7189A1399511AF2
:105430001091FEF782BE4846314600F049F9002837
:105440007EF4D8ADB6F80CC01FFA8CF3FEF7F6BCAC
:10545000062F28BF06274AF2D001C2F2000127EA30
:10546000E772109713910C92FEF7E8BF0DF5A86252
:10547000484631460C32FEF78BFC00287EF4B6AD70
:105480000DF59C630433FFF7C8BB0DF5A8624846D1
:1054900031460C32FEF77CFC00287EF4A7AD0DF5FA
:1054A0009C630433FFF7CEBA0DF5A8624846314637
:1054B0000C32FEF76DFC00287EF498AD0DF59C646F
:1054C0000434FFF7A9BA109727EAE77717900C97EB
:1054D0009DF87735FEF739BE1699652914BF00236C
:1054E0000123452908BF43F00103002B46D007F1F3
:1054F000010C022321E6169B652B76DD169A662A9F
:105500001CBFDDF87035109300F083801A9B109853
:1055100083426EDC0A9911F0010F40F08E8020EA80
:10552000E07267230C92169391E600271D46FEF762
:10553000E9BC10999DF8773521EAE1710C91FEF7ED
:1055400004BEDDF868359B4598BF9B467FF639AEB3
:10555000302203F8012B9B45CDF86835F9D830E6A9
:105560000DF5A862484631460C32FEF711FC0028C2
:105570007EF43CAD0DF59C63043308E5BC46023374
:10558000DBE50737B9E546F2676C0DF5906103314D
:10559000C6F2666C8CFB0320DA17C2EBA00202EBAA
:1055A0008200A3EB400013463030092A01F8010DB8
:1055B000F0DC3033481EDAB201F8012C079B83423D
:1055C0006AD90DF5AC63033301E011F8012B03F840
:1055D000012C1A46DDF81CC001338C45F5D825E6B0
:1055E0002D2208F10048179298E5DDF8700510901B
:1055F00003E6109B1A99002BDABF1098C0F1020342
:1056000001235B186722109323EAE37316920C932D
:105610001DE6DDF870050028109031DD1FB90A99EC
:1056200011F0010F0ED0109866211691431CDB1962
:10563000109323EAE3720C9209E610986721169101
:105640000130109020EAE0720C9200E60B991A7873
:105650000F6804310B91002FB8BF4FF0FF37FEF7F2
:1056600050BC0A9A12F0010F04BF20EAE0730C93B9
:105670003FF4EDADE5E52D225B428DF86125C9E5EE
:1056800077B90A9B13F0010F0AD14FF0010CCDF846
:1056900030C0CDF840C0DAE50DF5AC620232C5E5A8
:1056A0000237662127EAE772109716910C92CEE531
:1056B00088A0002010B44AF20434C2F200048C46E0
:1056C000134601466246206810BCFEF76FBB00BF60
:1056D00070B54AF20435C2F2000506460C46286849
:1056E00010B18369002B36D04AF2EC03C2F20003FA
:1056F0009C4238D04AF20C13C2F200039C4241D0C3
:105700004AF22C13C2F200039C4204BF2B68DC68EF
:10571000A289114693B213F0080F184618BF2269E8
:1057200033D01AB313F0010107D063690021A160DF
:105730005B42A36142B1002070BD13F0020F08BFAD
:105740006169A160002AF6D1A38913F0800FF2D01D
:105750004FF0FF3070BD01F08BF94AF2EC03C2F25A
:1057600000039C42C6D12B685C68D1E703F420712A
:10577000B1F5007FD6D03046214601F001FDA38966
:105780002269CFE72B689C68C2E713F0100FDFD0C7
:1057900013F0040F08BF226917D0616B51B104F1F7
:1057A0004403994203D0304601F0E6F9A28990B251
:1057B0000023636322694FF6DB71C0F2000100230E
:1057C00000EA01016360A181226041F00803A38126
:1057D0009BB2A6E7000000002DE9F84F03690E69AF
:1057E000824689469E4200F38380F21C01F1140533
:1057F00000F11404013E92008B18121803F1040802
:1058000059685068013103F05BFA0746002839D027
:1058100000239C461A46E958E0581FFA81FE4FEAD9
:10582000114B81B20EFB07CE51180BFB07FC0CEBA2
:105830001E4C1FFA8EFECEEB01011FFA8CF24FEACE
:105840001C4CC2EB10421FFA81FE02EB21424EEAD1
:105850000241E1500433121459198845DBD2321D3C
:105860000AEB8203596869B99C4209D25AF822208E
:1058700012B105E01A681AB9043B013E9C42F9D303
:10588000CAF810604946504602F07EF900282CDB29
:10589000002301379C46EA58E05891B2120C1FFAD7
:1058A00080F9C2EB1042C1EB0901614402EB2142D5
:1058B00089B241EA0241E15004334FEA224C5A19BD
:1058C0009045E8D2321D0AEB8203596869B99C42BF
:1058D00009D25AF8222012B105E01A681AB9043B1D
:1058E000013E9C42F9D3CAF810603846BDE8F88FF3
:1058F0000020BDE8F88F00BF2DE9F04F466AA1B047
:105900000446904699462D9D002E00F0238432686F
:1059100082B1616A4FF0010C766820460B685660D0
:105920004A6819460CFA02F29A6002F067FA636A52
:1059300000221A60B9F1000638DB00232B6040F228
:105940000003C7F6F0731A4606EA0303934217D022
:105950000022002340464946CDE9068903F00EFFA8
:10596000002829D02C9801232E990360002900F0EB
:10597000D080794B581E2E9A136021B0BDE8F08F6D
:105980002C9842F20F730360B8F1000F00F095807D
:105990004AF2E800C2F200002E990029EDD0C27848
:1059A000C31C002AE7D000F10803E4E726F0004614
:1059B0000123B1462B60C2E72046DDE906231EA97C
:1059C00000911FA9019102F06BFAC6F30A558346B4
:1059D000002D7ED0DDE90601A5F57E751F9F073DF0
:1059E00021F07F4323F4700343F07E51002341F400
:1059F000E001199340F200030022C3F6F87303F0AC
:105A0000A1FA4FA3D3E9002303F050FC4EA3D3E93E
:105A1000002303F099FACDE90801284603F0E0FBE2
:105A20004BA3D3E9002303F041FC02460B46DDE91A
:105A3000080103F089FACDE9080103F0D1FE002244
:105A400000230646DDE9080103F0A2FE40B130461E
:105A500003F0C6FBDDE9082303F090FE00B9013E28
:105A6000162E5BD901231893013FB7EB050A42BFFD
:105A7000CAF1000ACDF83CA04FF0000A01D4002280
:105A80000F92002EC0F27183B24400231796159333
:105A90002A9B092B62D8052B40F377862A9800278A
:105AA00004382A902A998B1E032B00F2DD83DFE84D
:105AB00013F0A503D803D503C40326F07F4626F4CC
:105AC0007006002E7FF464AF4AF2DC00C2F20000E0
:105AD00062E71F9F1E9BFB1803F586639D1C202D0C
