:020000042000DA
:100000000000012099020020090300200B030020BA
:100010000D0300200F03002011030020000000004A
:10002000000000000000000000000000130300209A
:100030001503002000000000170300201903002012
:100040001B0300201D0300201F03002021030020AC
:10005000230300202503002027030020290300207C
:100060002B0300202D0300202F030020310300204C
:10007000111B00203D1B0020370300203903002006
:100080003B0300203D0300203F03002041030020EC
:100090008906002045030020470300204903002073
:1000A0004B030020000000000000000000000000E2
:1000B0000000000000000000000000004D030020D0
:1000C000A9060020510300205303002055030020FF
:1000D00057030020590300205B0300205D0300202C
:1000E0005F030020610300206303002065030020FC
:1000F00067030020690300206B0300206D030020CC
:100100006F0300207103002073030020750300209B
:1001100077030020790300207B0300207D0300206B
:100120007F0300208103002083030020850300203B
:1001300087030020890300208B0300208D0300200B
:100140008F030020910300209303002095030020DB
:1001500097030020990300209B0300209D030020AB
:100160009F030020A1030020A3030020A50300207B
:10017000A7030020A9030020AB030020AD0300204B
:10018000AF030020B1030020B3030020B50300201B
:10019000B7030020B9030020BB030020BD030020EB
:1001A000BF030020C1030020C3030020C5030020BB
:1001B000C7030020C9030020CB030020CD0300208B
:1001C000CF030020D1030020D3030020D50300205B
:1001D000D7030020D9030020DB030020DD0300202B
:1001E000DF030020E1030020E3030020E5030020FB
:1001F000E7030020E9030020EB030020ED030020CB
:10020000EF030020F1030020F3030020F50300209A
:10021000F7030020F9030020FB030020FD0300206A
:10022000FF03002001040020030400200504002037
:1002300007040020090400200B0400200D04002006
:100240000F040020110400201304002015040020D6
:1002500017040020190400201B0400201D040020A6
:100260001F04002021040020230400202504002076
:1002700027040020290400202B0400202D04002046
:100280002F04002031040020330400203504002016
:100290003704002039040020684880476848002857
:1002A0000BD168486849694A884206D091421CBF10
:1002B00050F8043B41F8043BF8D165486549664A6B
:1002C000884206D091421CBF50F8043B41F8043BE1
:1002D000F8D162486249634A914218BF41F8040B61
:1002E000FAD1000000000000000000000000000043
:1002F000DFF874010FF2030E00474FF000004FF0DB
:100300000001DFF868F1FEE7FEE7FEE7FEE7FEE743
:10031000FEE7FEE7FEE7FEE7FEE7FEE7FEE7FEE7B5
:10032000FEE7FEE7FEE7FEE7FEE7FEE7FEE7FEE7A5
:10033000FEE7FEE7FEE7FEE7FEE7FEE7FEE7FEE795
:10034000FEE7FEE7FEE7FEE7FEE7FEE7FEE7FEE785
:10035000FEE7FEE7FEE7FEE7FEE7FEE7FEE7FEE775
:10036000FEE7FEE7FEE7FEE7FEE7FEE7FEE7FEE765
:10037000FEE7FEE7FEE7FEE7FEE7FEE7FEE7FEE755
:10038000FEE7FEE7FEE7FEE7FEE7FEE7FEE7FEE745
:10039000FEE7FEE7FEE7FEE7FEE7FEE7FEE7FEE735
:1003A000FEE7FEE7FEE7FEE7FEE7FEE7FEE7FEE725
:1003B000FEE7FEE7FEE7FEE7FEE7FEE7FEE7FEE715
:1003C000FEE7FEE7FEE7FEE7FEE7FEE7FEE7FEE705
:1003D000FEE7FEE7FEE7FEE7FEE7FEE7FEE7FEE7F5
:1003E000FEE7FEE7FEE7FEE7FEE7FEE7FEE7FEE7E5
:1003F000FEE7FEE7FEE7FEE7FEE7FEE7FEE7FEE7D5
:10040000FEE7FEE7FEE7FEE7FEE7FEE7FEE7FEE7C4
:10041000FEE7FEE7FEE7FEE7FEE7FEE7FEE7FEE7B4
:10042000FEE7FEE7FEE7FEE7FEE7FEE7FEE7FEE7A4
:10043000FEE7FEE7FEE7FEE7FEE700000D1D0020F9
:100440000000000000000020000000201C1F002011
:100450001C1F00201C1F0020241F00200000000083
:10046000241F002048200020191D002039070020EB
:1004700041F62473C2F200031A780AB901201870F9
:10048000704700BF41F61C70C2F2000008B5036857
:100490002BB140F20003C0F2000303B1984708BD3E
:1004A00080B483B000AF0346FB804EF20013CEF25F
:1004B0000003B7F906204FEA5212F98801F01F0134
:1004C0004FF0010000FA01F143F8221007F10C0788
:1004D000BD4680BC704700BF80B483B000AF034608
:1004E000FB804EF20013CEF20003B7F906204FEA6C
:1004F0005212F98801F01F014FF0010000FA01F1DA
:1005000002F1200243F8221007F10C07BD4680BC1F
:10051000704700BF80B483B000AF0346FB804EF24B
:100520000013CEF20003B7F906204FEA5212F98801
:1005300001F01F014FF0010000FA01F102F1600229
:1005400043F8221007F10C07BD4680BC704700BF7E
:1005500080B582B000AF0346FB714FF01400FFF787
:10056000BBFF42F20003CEF2040342F20002CEF2DD
:100570000402126B22F040021A6345F20003C4F237
:1005800000034FF000025A6540F20003C4F20A2350
:100590004FF00002C3F8802140F20003C4F20A23A6
:1005A0004FF00002C3F8882140F20003C4F20A238E
:1005B000FA79C3F8842145F20003C4F200034FF036
:1005C00001021A614FF01400FFF7A4FF07F10807BA
:1005D000BD4680BD80B400AF40F20003C4F20A23E0
:1005E0004FF00102C3F88021BD4680BC704700BFB8
:1005F00080B400AF40F20003C4F20A234FF00002BF
:10060000C3F88021BD4680BC704700BF80B483B072
:1006100000AF786045F20003C4F200037A685A60C4
:1006200007F10C07BD4680BC704700BF80B500AF26
:1006300040F20003C4F20A234FF00102C3F88821FC
:100640004FF01400FFF72CFF80BD00BF80B500AF56
:1006500040F20003C4F20A234FF00002C3F88821DD
:100660004FF01400FFF738FF80BD00BF80B400AF2B
:1006700045F20003C4F200034FF001021A61BFF318
:100680004F8FBD4680BC704780B500AF41F62073E8
:10069000C2F200034FF001021A60FFF7E7FFFFF715
:1006A000A7FFFFF7D3FF80BD684620F007018D4606
:1006B00081B583B000AF41F62073C2F200031B681E
:1006C000002B27D040F22403C4F205033B603B68B3
:1006D0001B687B607B6803F101037B603B687A6881
:1006E0001A603B6803F104033B604FF00100FFF721
:1006F0002FFF46F20050C1F6CD50FFF787FFFFF7FE
:1007000069FFFFF793FF41F62073C2F200034FF039
:1007100000021A604FF0000001F0D0FA4FF0000024
:100720004FF0000101F078FA07F10C07BD46BDE873
:1007300081408546704700BF80B594B002AF40F25B
:100740001003C4F20503BB6040F21403C4F20503B6
:10075000FB6040F22003C4F205033B6140F2240336
:10076000C4F205037B6140F23403C4F20503BB61AC
:1007700040F23803C4F20503FB614FF000033B6213
:100780007B694FF000021A604FF01F00FFF788FEF0
:100790004FF000004FF0400101F020FA4FF0000050
:1007A00001F05AFA4BF6A033C0F20D037B624FF012
:1007B0000003BB62FB687A6A1A60BB68BA6A1A6097
:1007C00000F0F0F941F63473C2F200036FF07F02DB
:1007D0001A7041F63473C2F200034FF042025A70AD
:1007E00041F63473C2F200034FF000029A7041F6F2
:1007F0003473C2F200034FF00002DA7041F6347332
:10080000C2F200034FF000021A7141F63473C2F2D3
:1008100000034FF000025A7141F63473C2F2000334
:100820004FF000029A7141F63473C2F200034FF0A8
:100830000002DA7141F63473C2F200034FF0000295
:100840001A7241F64070C2F200004FF0000100F051
:1008500061FD4FF00603009341F64070C2F20000C4
:1008600041F63471C2F200014FF0030241F62873E1
:10087000C2F2000300F01AFE41F64070C2F200001E
:100880004FF0000100F0CAFD41F62873C2F20003E8
:100890005B7803F01003002B0CBF00230123FB62E5
:1008A00041F62873C2F200035B7803F04003002B8B
:1008B0000CBF002301233B6341F62873C2F20003FF
:1008C0005B7803F02003002B0CBF002301237B6324
:1008D00041F62873C2F200035B785BB24FEAD37330
:1008E000BB6341F62873C2F200035B7803F0020396
:1008F000002B0CBF00230123FB634FF000033B647C
:10090000FB6A002B24D13B6B002B21D07A6A44F682
:100910008073C0F212039A4204D1FB684FF49662CE
:100920001A6010E07B6A03F51C5303F110037B622D
:100930007A6A44F6D353C1F26203A3FB02134FEA6F
:100940009312FB681A603B6C03F101033B6426E0E1
:100950003B6B002B23D1FB6A002B20D07A6A42F23A
:10096000C073C0F209039A4204D1FB684FF41672B7
:100970001A6010E07B6AA3F51C53A3F110037B629D
:100980007A6A44F6D353C1F26203A3FB02134FEA1F
:100990009312FB681A603B6C03F102033B647B6BB0
:1009A000002B20D1BB6B002B1DD0BB6A002B04D1C8
:1009B000BB684FF000021A6010E0BB6AA3F51C533D
:1009C000A3F11003BB62BA6A44F6D353C1F26203C7
:1009D000A3FB02134FEA9312BB681A603B6C03F14E
:1009E00004033B6426E0BB6B002B23D17B6B002B05
:1009F00020D0BA6A47F24073C0F21B039A4204D176
:100A0000BB684FF4E1621A6010E0BB6A03F51C5347
:100A100003F11003BB62BA6A44F6D353C1F2620316
:100A2000A3FB02134FEA9312BB681A603B6C03F1FD
:100A300008033B64FB6B002B0FD141F62073C2F21D
:100A400000031B68002B08D03B694FF038021A6086
:100A50003B6C03F110033B6403E03B694FF0000281
:100A60001A6041F62873C2F20003DB7887F846303B
:100A700041F62873C2F200035B7987F8473097F993
:100A80004630002B07D197F94730002B03D14FF0A8
:100A90000A033B626AE097F94630002B08D197F9C8
:100AA000473013F1020F03D14FF00B033B625DE0BF
:100AB00097F94630002B08D197F94730B3F1FF3F43
:100AC00003D14FF009033B6250E097F94630B3F190
:100AD000FF3F07D197F94730002B03D14FF00603B2
:100AE0003B6243E097F94630B3F1FF3F08D197F9F5
:100AF0004730B3F1FF3F03D14FF005033B6235E0D0
:100B000097F94630B3F1FF3F08D197F9473013F119
:100B1000020F03D14FF007033B6227E097F94630FD
:100B200013F1020F07D197F94730002B03D14FF093
:100B30000E033B621AE097F9463013F1020F08D119
:100B400097F94730B3F1FF3F03D14FF00D033B62FC
:100B50000CE097F9463013F1020F07D197F94730AF
:100B600013F1020F02D14FF00F033B62BB693A6AE7
:100B70001A60F8694AF6C87100F08CF997F94630A6
:100B8000002B4FF000037B6003E07B6803F101035F
:100B90007B607A6848F29F63C0F201039A42F4DDF9
:100BA00010E600BF80B584B002AF41F63473C2F2E4
:100BB00000036FF07F021A7041F63473C2F2000333
:100BC0004FF042025A7041F63473C2F200034FF004
:100BD00000029A7041F63473C2F200034FF0FF3204
:100BE000DA7041F63473C2F200034FF0FF321A712B
:100BF00041F64070C2F2000000F0B2F94FF0080375
:100C0000009341F64070C2F200004FF000014FF037
:100C100040724FF0070300F0EDFA41F64070C2F267
:100C200000004FF0000100F075FB4FF003037B6004
:100C300016E04FF00503009341F64070C2F2000049
:100C400041F63471C2F200014FF0050241F62873FB
:100C5000C2F2000300F02AFC7B6803F1FF337B60E3
:100C60007B68002BE5D141F64070C2F200004FF0E6
:100C7000000100F0D3FB41F63473C2F200036FF0C1
:100C80007F021A7041F63473C2F200036FF03D0226
:100C90005A7041F63473C2F200034FF000029A70AA
:100CA00041F63473C2F200036FF07F02DA7041F64E
:100CB0003473C2F200034FF000021A7141F6407023
:100CC000C2F200004FF0000100F024FB4FF00503DA
:100CD000009341F64070C2F2000041F63471C2F256
:100CE00000014FF0050241F62873C2F2000300F044
:100CF000DDFB41F64070C2F200004FF0000100F051
:100D00008DFB41F63473C2F200036FF07F021A705C
:100D100041F63473C2F200034FF022025A7041F6DA
:100D20003473C2F200034FF000029A7041F634733C
:100D3000C2F200036FF07F02DA7041F63473C2F240
:100D400000036FF03F021A7141F63473C2F20003E0
:100D50004FF000025A7141F63473C2F200034FF0B3
:100D600000029A7141F63473C2F200034FF00002A0
:100D7000DA7141F63473C2F200034FF000021A72C6
:100D800041F64070C2F200004FF0000100F0C2FADC
:100D90004FF00903009341F64070C2F2000041F6A3
:100DA0003471C2F200014FF0090241F62873C2F219
:100DB000000300F07BFB41F64070C2F200004FF0F0
:100DC000000100F02BFB41F63473C2F200036FF018
:100DD0007F021A7041F63473C2F200036FF03D02D5
:100DE0005A7041F63473C2F200034FF000029A7059
:100DF00041F63473C2F200034FF00002DA7041F69C
:100E00003473C2F200034FF05A021A7141F6347380
:100E1000C2F200034FF05A025A7141F63473C2F223
:100E200000034FF05A029A7141F63473C2F2000384
:100E30004FF05A02DA7141F63473C2F200034FF0F8
:100E40005A021A7241F64070C2F200004FF00001DF
:100E500000F060FA4FF00903009341F64070C2F2CF
:100E6000000041F63471C2F200014FF0090241F670
:100E70002873C2F2000300F019FB41F64070C2F281
:100E800000004FF0000100F0C9FA07F10807BD4665
:100E900080BD00BF80B483B000AF786039603A682D
:100EA0007B681A6007F10C07BD4680BC704700BF25
:100EB00080B483B000AF0346FB804EF20013CEF245
:100EC0000003B7F906204FEA5212F98801F01F011A
:100ED0004FF0010000FA01F143F8221007F10C076E
:100EE000BD4680BC704700BF80B483B000AF0346EE
:100EF000FB804EF20013CEF20003B7F906204FEA52
:100F00005212F98801F01F014FF0010000FA01F1BF
:100F100002F1200243F8221007F10C07BD4680BC05
:100F2000704700BF80B483B000AF0346FB804EF231
:100F30000013CEF20003B7F906204FEA5212F988E7
:100F400001F01F014FF0010000FA01F102F160020F
:100F500043F8221007F10C07BD4680BC704700BF64
:100F600080B584B000AF78607A6841F6C473C2F28D
:100F700000039A4207D07A6841F64073C2F2000338
:100F80009A4200D000BE7B689B881BB21846FFF7D0
:100F9000ABFF78684FF000014FF0840200F0E4FEF0
:100FA0007B684FF001025A624FF00003FB810DE0B5
:100FB000FB897A6803F106034FEAC30313444FF039
:100FC000FF325A60FB8903F10103FB81FB89072B88
:100FD000EED97A6841F6C473C2F200039A4226D170
:100FE0007A6841F20003C4F2000313607B684FF09B
:100FF0000C029A8042F20003CEF2040342F2000295
:10100000CEF20402126B42F400721A634FF00C002D
:10101000FFF788FF42F20003CEF2040342F200021F
:10102000CEF20402126B22F400721A6325E07A6891
:1010300041F20003C4F2010313607B684FF00D021C
:101040009A8042F20003CEF2040342F20002CEF292
:101050000402126B42F480621A634FF00D00FFF736
:1010600061FF42F20003CEF2040342F20002CEF22C
:101070000402126B22F480621A637B681B687A6830
:101080001268126822F000421A6007F11007BD468C
:1010900080BD00BF80B58AB000AF78607B681B68F8
:1010A0001B68FB607B681B689B693B617B681B68F6
:1010B0005B687B617B681B689B6ABB617B681B68A4
:1010C0001B6BFB617B681B685B6B3B627B681B680F
:1010D000DB697B627A6841F6C473C2F200039A420C
:1010E0002ED17A6841F20003C4F2000313607B68DA
:1010F0004FF00C029A8042F20003CEF2040342F257
:101100000002CEF20402126B42F400721A634FF036
:101110000C00FFF707FF42F20003CEF2040342F295
:101120000002CEF20402126B22F400721A637B6892
:101130001B687A681268126822F000421A602DE07B
:101140007A6841F20003C4F2010313607B684FF038
:101150000D029A8042F20003CEF2040342F2000232
:10116000CEF20402126B42F480621A634FF00D005B
:10117000FFF7D8FE42F20003CEF2040342F200026F
:10118000CEF20402126B22F480621A637B681B6841
:101190007A681268126822F000421A60FB6823F035
:1011A0000103FB607B681B68FA681A607B681B6838
:1011B0003A699A617B681B687A695A607B681B6828
:1011C0007A681268126842F001021A607B681B6834
:1011D000BA699A627B681B68FA691A637B681B6844
:1011E0003A6A5A637B681B687A6ADA6107F12807F2
:1011F000BD4680BD80B584B000AFF8607A600A4615
:10120000FA72FB70FA6841F6C473C2F200039A42A4
:1012100007D0FA6841F64073C2F200039A4200D048
:1012200000BEFB7A072B00D900BE3B7E202B00D9E5
:1012300000BEFB689B881BB21846FFF755FEFB6893
:101240004FF0000283F88020FB681B68FA68126880
:10125000126822F001021A60FB681B68FA681268C3
:10126000126842F002021A60FB681B68FA68126892
:10127000126842F001021A60FB7A072B3FD87B68A4
:10128000002B0BD07B68B3F1007F07D07B68B3F1F4
:10129000807F03D07B68B3F1407F0FD1FA7A796801
:1012A00040F20213C2F2004341EA0303F96802F17B
:1012B00006024FEAC2020A4453600EE0FA7A7968E5
:1012C00040F20213C2F2000341EA0303F96802F19B
:1012D00006024FEAC2020A445360FB7AFA6803F13D
:1012E00006034FEAC30313443A7E1A72FB7AFA6884
:1012F00003F106034FEAC3031344FA785A72FB68FA
:101300009B881BB21846FFF7D3FD07F11007BD46B7
:1013100080BD00BF80B584B000AF78600B46FB7025
:101320007A6841F6C473C2F200039A4207D07A6821
:1013300041F64073C2F200039A4200D000BE7B68BF
:101340001B681B6803F00203002B00D100BEFB7872
:101350007A6803F106034FEAC30313445B68B3F1F1
:10136000FF3F00D100BE7B689B881BB21846FFF789
:10137000BBFD7B681B689B6803F00403FB60FB6894
:10138000002B02D07868FFF785FE7B681B687A68BF
:101390001268126822F001021A607B681A68FB78F2
:1013A000796803F106034FEAC3030B445B681360DB
:1013B0007B681A68FB78796803F106034FEAC30378
:1013C0000B445B7A93617B681A68FB78796803F158
:1013D00006034FEAC3030B441B7A53607B681B6808
:1013E0007A681268126842F001021A607B681B6812
:1013F0007A681268D169FA784FF0010000FA02F2B7
:1014000041EA0202DA617B689B881BB21846FFF74B
:101410004FFD07F11007BD4680BD00BF80B584B009
:1014200000AF78600B46FB707A6841F6C473C2F275
:1014300000039A4207D07A6841F64073C2F2000373
:101440009A4200D000BE7B681B681B6803F0020351
:10145000002B00D100BE7B689B881BB21846FFF7AB
:1014600043FD7B681B689B6803F00403FB60FB681B
:10147000002B02D07868FFF70DFE7B681B687A6846
:101480001268D169FA784FF0010000FA02F26FEAAF
:10149000020201EA0202DA617B689B881BB21846ED
:1014A000FFF706FD07F11007BD4680BD80B58EB081
:1014B00000AFF860B9603B601346FB804FF000035B
:1014C0007B834FF00003FB84FA6841F6C473C2F2D9
:1014D00000039A4207D0FA6841F64073C2F2000353
:1014E0009A4200D000BEFB681B681B6803F0020331
:1014F000002B00D100BEFA88B7F840301344FB86B9
:10150000FB8E002B03D14FF001033B6201E0FB8E09
:101510003B62FB681B68FA681268D26A42F00C02F0
:10152000DA62FB681B689B6803F00403FB62FB6ADA
:10153000002B02D0F868FFF7ADFDFB681B68FA6866
:101540001268126822F001021A60FB681968FB68D1
:101550001B681B6840F2FF02CFF6007203EA02022A
:101560003B6A4FEA03204FF60073C0F2FF0300EA24
:10157000030342EA03030B60FB681B684FF0080299
:101580005A60FB681B68FA681268126842F0010230
:101590001A60FB681B689B6803F040033B6309E02B
:1015A000FB681B681B697B61FB681B689B6803F019
:1015B00040033B633B6B002BF2D04FF00003BB8337
:1015C0004FF00003FB83BA8BFB889A420FD2FB6873
:1015D0001B68B98BBA680A4412785A61BB8B03F155
:1015E0000103BB83FB8C03F10103FB846AE0BA8B2C
:1015F000FB8E9A4266D2FB681B684FF000025A616C
:10160000BB8B03F10103BB83FB8C03F10103FB8460
:1016100058E0FB681B689B6803F040033B633B6B2F
:10162000002B1ED1FB681B681B697B617A8BFB88D2
:101630009A420ED3FA8BB7F840309A4205D2FA8B11
:101640003B6813447A69D2B21A70FB8B03F1010331
:10165000FB837B8B03F101037B83FB8C03F1FF3363
:10166000FB84FB681B689B6803F48073BB62BB6AE6
:10167000002B27D1FB8C032B24D8BA8BFB889A42F2
:101680000FD2FB681B68B98BBA680A4412785A619A
:10169000BB8B03F10103BB83FB8C03F10103FB84D0
:1016A00010E0BA8BFB8E9A420CD2FB681B684FF09D
:1016B00000025A61BB8B03F10103BB83FB8C03F176
:1016C0000103FB847A8BFB8E9A42A2D307F1380781
:1016D000BD4680BD80B485B000AF78604FF0000398
:1016E000FB600EE07B681B687A6891687A68126913
:1016F0000A4412785A617B681B6903F101027B6816
:101700001A617B681B689B6803F48073002B05D10A
:101710007B681A697B68DB689A42E3D37B681A6945
:101720007B68DB689A421CD30EE07B681B687A6892
:1017300051697A68D2690A4412785A617B68DB6918
:1017400003F101027B68DA617B681B689B6803F424
:101750008073002B05D17B68DA697B689B699A42AC
:10176000E3D37B685B6A002B1FD07B681A697B68B8
:10177000DB689A4219D37B68DA697B689B699A4275
:1017800013D308E07B681B684FF000025A61FB68C6
:1017900003F10103FB607B681B689B6803F48073A3
:1017A000002B02D1FB681F2BECD907F11407BD46B3
:1017B00080BC704780B584B000AF78607B6893F8D8
:1017C0008030022B15D10CE07B681B681B69FB6025
:1017D0007B685B6F002B04D07B685B6FFA681046F8
:1017E00098477B681B689B6803F04003002BEBD095
:1017F00032E07B6893F88030012B25D117E07B68BD
:101800001B681B69FB607B681A6B7B68DB6A9A420A
:1018100007D27B689A6A7B681B6B1344FA68D2B262
:101820001A707B681B6B03F101027B681A637B688B
:101830001B689B6803F04003002BE0D00CE07B6842
:101840001B681B69FB6000E000BF7B681B689B682E
:1018500003F04003002BF2D007F11007BD4680BD16
:1018600080B586B000AF78607B681B6803F1200309
:101870003B617A6841F6C473C2F200039A4207D012
:101880007A6841F64073C2F200039A4200D000BE6B
:101890003B691B6803F00203002B52D07B6893F86E
:1018A0008030022B15D10CE07B681B681B69FB6044
:1018B0007B685B6F002B04D07B685B6FFA68104617
:1018C00098477B681B689B6803F04003002BEBD0B4
:1018D00032E07B6893F88030012B25D117E07B68DC
:1018E0001B681B69FB607B681A6B7B68DB6A9A422A
:1018F00007D27B689A6A7B681B6B1344FA68D2B282
:101900001A707B681B6B03F101027B681A637B68AA
:101910001B689B6803F04003002BE0D00CE07B6861
:101920001B681B69FB6000E000BF7B681B689B684D
:1019300003F04003002BF2D07B681B684FF00202DB
:10194000DA603B691B6803F00103DBB2002B12D0A5
:101950007B6893F88030022B05D17B681B687A681E
:10196000926F5A6102E07868FFF7B4FE7B681B68EB
:101970004FF00102DA603B691B6803F01003002B93
:1019800023D07868FFF716FF7B681B6A002B0BD00B
:101990007B681B6A7A68916A7A68126B08461146FE
:1019A00098477868FFF796FE7B684FF001025A620D
:1019B0007B681B687A681268926A22F010029A6249
:1019C0007B681B684FF01002DA603B691B6803F00C
:1019D0000403002B0FD07B681B687A681268D26AF8
:1019E00042F00402DA627868FFF754FB7B681B68F8
:1019F0004FF00402DA603B691B6803F00803002B18
:101A000031D07B681B687A681268D26A42F008029B
:101A1000DA627B6893F88030022B13D17B681A68F6
:101A20007B681B68196840F2FF03CFF6007301EA78
:101A3000030343F4807313607B681B687A68926FBA
:101A40005A610BE07B6893F88030012B06D17B68EC
:101A50004FF000021A617868FFF73CFE7B681B6854
:101A60004FF00802DA603B691B6803F02003002B8B
:101A700049D07868FFF79EFE7B681B6B7B617B68B3
:101A80001B6A002B1CD07B684FF000025A627B68F7
:101A90004FF000025A617B684FF000029A617B6848
:101AA0004FF00002DA617B681B684FF01002DA60C9
:101AB0007B681B687A681268926A42F010029A6228
:101AC0007B684FF000021A617B681B687A681268B5
:101AD000D26A42F00C02DA627868FFF7FBFD7B689D
:101AE0004FF000021A637B68DB6F002B06D07B6827
:101AF000DB6F7A68926A1046796998477B681B6841
:101B00004FF02002DA6007F11807BD4680BD00BF24
:101B1000684620F007018D4689B500AF41F6C470D4
:101B2000C2F20000FFF79CFE4FF00C00FFF7FAF93D
:101B3000BD46BDE889408546704700BF684620F035
:101B400007018D4689B500AF41F64070C2F2000032
:101B5000FFF786FE4FF00D00FFF7E4F9BD46BDE844
:101B600089408546704700BF80B483B000AF03460C
:101B7000FB804EF20013CEF20003B7F906204FEAC5
:101B80005212F98801F01F014FF0010000FA01F133
:101B900043F8221007F10C07BD4680BC704700BF18
:101BA00080B483B000AF0346FB804EF20013CEF248
:101BB0000003B7F906204FEA5212F98801F01F011D
:101BC0004FF0010000FA01F102F1600243F8221027
:101BD00007F10C07BD4680BC704700BF80B485B0DC
:101BE00000AF03463960FB71FB79FB60FB681F2B7C
:101BF00000D900BEFB681F2B08D8FA6841F63C6389
:101C0000C2F2000353F822303A681A6007F1140751
:101C1000BD4680BC704700BF80B485B000AF0246AF
:101C20000B46FA71BB71FB79FB60FB681F2B00D977
:101C300000BEFB681F2B09D840F20003C4F2262324
:101C4000FA68B97902F5886243F8221007F114079F
:101C5000BD4680BC704700BF80B584B000AF03466E
:101C6000FB71FB79FB60FB681F2B00D900BEFB6892
:101C70001F2B1ED8FA6841F63C63C2F2000353F8EA
:101C800022301B68BB60FA6841F63C63C2F2000375
:101C900053F82230BA6842F008021A60FA6841F636
:101CA000BC63C2F2000333F812301BB21846FFF7D0
:101CB0005BFF07F11007BD4680BD00BF80B584B053
:101CC00000AF0346FB71FB79FB60FB681F2B00D95B
:101CD00000BEFB681F2B15D843F20003C4F20103BA
:101CE000FA684FF0010101FA02F2C3F88020FA68A5
:101CF00041F6BC63C2F2000333F812301BB218463F
:101D0000FFF74EFF07F11007BD4680BD80B400AF5E
:101D1000BD4680BC704700BF70B541F6147641F6F1
:101D20001475C2F20006C2F20005761BB61006D08A
:101D3000002455F8243001349847A642F9D841F6DA
:101D4000147541F61876C2F20005C2F20006761B41
:101D500000F0D4F8B61006D0002455F82430013431
:101D60009847A642F9D870BD032AC9B230B407D843
:101D700022B10023C15401339342FBD130BC7047E0
:101D800000EB020C034601E003F8011C03F003041E
:101D90001A460133002CF7D14FF00133C2EB0C048B
:101DA00003FB01F31FE042F8403C42F83C3C42F8A0
:101DB000383C42F8343C42F8303C42F82C3C42F883
:101DC000283C42F8243C42F8203C42F81C3C42F8B3
:101DD000183C42F8143C42F8103C42F80C3C42F8E3
:101DE000083C42F8043C154640323F2CA4F1400424
:101DF000D9DC2A46C5EB0C0407E042F8103C42F857
:101E00000C3C42F8083C42F8043C154610320F2CBA
:101E1000A4F11004F1DC2A46C5EB0C0501E042F800
:101E2000043C14460432032DA5F10405F7DC01E05F
:101E300004F8011B6445FBD3A0E700BF003001405C
:101E400004300140083001400C30014010300140A6
:101E500014300140183001401C3001402030014056
:101E600024300140283001402C3001403030014006
:101E700034300140383001403C30014040300140B6
:101E800044300140483001404C3001405030014066
:101E900054300140583001405C3001406030014016
:101EA00064300140683001406C30014070300140C6
:101EB00074300140783001407C3001402000210026
:101EC00022002300240025002600270028002900E6
:101ED0002A002B002C002D002E002F003000310096
:101EE0003200330034003500360037003800390046
:101EF0003A003B003C003D003E003F00F8B500BF0B
:101F0000F8BC08BC9E467047F8B500BFF8BC08BCDA
:0C1F10009E4670478504002071040020EC
:081F1C000000000001000000BC
:04000005200002993C
:00000001FF
