:020000042000DA
:100000000000012099020020090300200B030020BA
:100010000D0300200F03002011030020000000004A
:10002000000000000000000000000000130300209A
:100030001503002000000000170300201903002012
:100040001B0300201D0300201F03002021030020AC
:10005000230300202503002027030020290300207C
:100060002B0300202D0300202F030020310300204C
:10007000551D0020811D002037030020390300207A
:100080003B0300203D0300203F03002041030020EC
:10009000C1070020E107002047030020490300209A
:1000A0004B030020000000000000000000000000E2
:1000B0000000000000000000000000004D030020D0
:1000C00001080020510300205303002055030020A5
:1000D00057030020590300205B0300205D0300202C
:1000E0005F030020610300206303002065030020FC
:1000F00067030020690300206B0300206D030020CC
:100100006F0300207103002073030020750300209B
:1001100077030020790300207B0300207D0300206B
:100120007F0300208103002083030020850300203B
:1001300087030020890300208B0300208D0300200B
:100140008F030020910300209303002095030020DB
:1001500097030020990300209B0300209D030020AB
:100160009F030020A1030020A3030020A50300207B
:10017000A7030020A9030020AB030020AD0300204B
:10018000AF030020B1030020B3030020B50300201B
:10019000B7030020B9030020BB030020BD030020EB
:1001A000BF030020C1030020C3030020C5030020BB
:1001B000C7030020C9030020CB030020CD0300208B
:1001C000CF030020D1030020D3030020D50300205B
:1001D000D7030020D9030020DB030020DD0300202B
:1001E000DF030020E1030020E3030020E5030020FB
:1001F000E7030020E9030020EB030020ED030020CB
:10020000EF030020F1030020F3030020F50300209A
:10021000F7030020F9030020FB030020FD0300206A
:10022000FF03002001040020030400200504002037
:1002300007040020090400200B0400200D04002006
:100240000F040020110400201304002015040020D6
:1002500017040020190400201B0400201D040020A6
:100260001F04002021040020230400202504002076
:1002700027040020290400202B0400202D04002046
:100280002F04002031040020330400203504002016
:100290003704002039040020684880476848002857
:1002A0000BD168486849694A884206D091421CBF10
:1002B00050F8043B41F8043BF8D165486549664A6B
:1002C000884206D091421CBF50F8043B41F8043BE1
:1002D000F8D162486249634A914218BF41F8040B61
:1002E000FAD1000000000000000000000000000043
:1002F000DFF874010FF2030E00474FF000004FF0DB
:100300000001DFF868F1FEE7FEE7FEE7FEE7FEE743
:10031000FEE7FEE7FEE7FEE7FEE7FEE7FEE7FEE7B5
:10032000FEE7FEE7FEE7FEE7FEE7FEE7FEE7FEE7A5
:10033000FEE7FEE7FEE7FEE7FEE7FEE7FEE7FEE795
:10034000FEE7FEE7FEE7FEE7FEE7FEE7FEE7FEE785
:10035000FEE7FEE7FEE7FEE7FEE7FEE7FEE7FEE775
:10036000FEE7FEE7FEE7FEE7FEE7FEE7FEE7FEE765
:10037000FEE7FEE7FEE7FEE7FEE7FEE7FEE7FEE755
:10038000FEE7FEE7FEE7FEE7FEE7FEE7FEE7FEE745
:10039000FEE7FEE7FEE7FEE7FEE7FEE7FEE7FEE735
:1003A000FEE7FEE7FEE7FEE7FEE7FEE7FEE7FEE725
:1003B000FEE7FEE7FEE7FEE7FEE7FEE7FEE7FEE715
:1003C000FEE7FEE7FEE7FEE7FEE7FEE7FEE7FEE705
:1003D000FEE7FEE7FEE7FEE7FEE7FEE7FEE7FEE7F5
:1003E000FEE7FEE7FEE7FEE7FEE7FEE7FEE7FEE7E5
:1003F000FEE7FEE7FEE7FEE7FEE7FEE7FEE7FEE7D5
:10040000FEE7FEE7FEE7FEE7FEE7FEE7FEE7FEE7C4
:10041000FEE7FEE7FEE7FEE7FEE7FEE7FEE7FEE7B4
:10042000FEE7FEE7FEE7FEE7FEE7FEE7FEE7FEE7A4
:10043000FEE7FEE7FEE7FEE7FEE7000049230020B7
:1004400000000000000000200000002044260020E2
:1004500044260020442600205026002000000000F2
:1004600050260020802700200D24002001090020B4
:1004700042F25063C2F200031A780AB901201870E0
:10048000704700BF42F24460C2F2000008B5036842
:100490002BB140F20003C0F2000303B1984708BD3E
:1004A00080B483B000AF0346FB804EF20013CEF25F
:1004B0000003B7F906204FEA5212F98801F01F0134
:1004C0004FF0010000FA01F143F8221007F10C0788
:1004D000BD4680BC704700BF80B483B000AF034608
:1004E000FB804EF20013CEF20003B7F906204FEA6C
:1004F0005212F98801F01F014FF0010000FA01F1DA
:1005000002F1200243F8221007F10C07BD4680BC1F
:10051000704700BF80B483B000AF0346FB804EF24B
:100520000013CEF20003B7F906204FEA5212F98801
:1005300001F01F014FF0010000FA01F102F1600229
:1005400043F8221007F10C07BD4680BC704700BF7E
:1005500080B582B000AF0346FB714FF01400FFF787
:10056000BBFF42F20003CEF2040342F20002CEF2DD
:100570000402126B22F040021A6345F20003C4F237
:1005800000034FF000025A6540F20003C4F20A2350
:100590004FF00002C3F8802140F20003C4F20A23A6
:1005A0004FF00002C3F8882140F20003C4F20A238E
:1005B000FA79C3F8842145F20003C4F200034FF036
:1005C00001021A614FF01400FFF7A4FF07F10807BA
:1005D000BD4680BD80B400AF40F20003C4F20A23E0
:1005E0004FF00102C3F88021BD4680BC704700BFB8
:1005F00080B400AF40F20003C4F20A234FF00002BF
:10060000C3F88021BD4680BC704700BF80B483B072
:1006100000AF786045F20003C4F200037A685A60C4
:1006200007F10C07BD4680BC704700BF80B500AF26
:1006300040F20003C4F20A234FF00102C3F88821FC
:100640004FF01400FFF72CFF80BD00BF80B500AF56
:1006500040F20003C4F20A234FF00002C3F88821DD
:100660004FF01400FFF738FF80BD00BF80B400AF2B
:1006700045F20003C4F200034FF001021A61BFF318
:100680004F8FBD4680BC704780B582B000AF034637
:10069000FB714FF01500FFF71FFF42F20003CEF28F
:1006A000040342F20002CEF20402126B22F0400276
:1006B0001A6345F20003C4F200034FF000025A65CA
:1006C00040F20003C4F20A234FF00002C3F8802472
:1006D00040F20003C4F20A234FF00002C3F888245A
:1006E00040F20003C4F20A23FA79C3F8842445F2E5
:1006F0000003C4F200034FF001029A624FF01500AC
:10070000FFF708FF07F10807BD4680BD80B400AFC2
:1007100040F20003C4F20A234FF00102C3F8802420
:10072000BD4680BC704700BF80B400AF40F20003FC
:10073000C4F20A234FF00002C3F88024BD4680BCF7
:10074000704700BF80B483B000AF786045F200030B
:10075000C4F200037A68DA6107F10C07BD4680BC79
:10076000704700BF80B500AF40F20003C4F20A2317
:100770004FF00102C3F888244FF01500FFF790FEF8
:1007800080BD00BF80B500AF40F20003C4F20A2371
:100790004FF00002C3F888244FF01500FFF79CFECD
:1007A00080BD00BF80B400AF45F20003C4F2000377
:1007B0004FF001029A62BFF34F8FBD4680BC704775
:1007C00080B500AF42F24863C2F200034FF001026D
:1007D0001A60FFF74BFFFFF70BFFFFF737FF80BDF6
:1007E00080B500AF42F24C63C2F200034FF0010249
:1007F0001A60FFF7D7FFFFF797FFFFF7C3FF80BD32
:10080000684620F007018D4681B587B000AF42F2FF
:100810004863C2F200031B68002B60D040F224033F
:10082000C4F205033B613B691B687B617B6903F193
:1008300001037B613B697A691A603B6903F1040338
:100840003B6142F23053C2F200031B783B7307F165
:100850000C0342F26060C2F2000019464FF0010240
:1008600001F0C4FC4FF00003BB6003E0BB6803F180
:100870000103BB60BA6844F23F23C0F20F039A42FF
:10088000F4DD42F23452C2F2000207F104031268AE
:100890001146198003F102034FEA12421A7007F160
:1008A000040342F26060C2F2000019464FF00302F6
:1008B00001F09CFC4FF00100FFF74AFE46F20050A9
:1008C000C1F6CD50FFF7A2FEFFF784FEFFF7AEFEA4
:1008D00042F24863C2F200034FF000021A604FF088
:1008E000000001F00DFB4FF000004FF0000101F09F
:1008F000B5FA07F11C07BD46BDE881408546704743
:1009000080B594B002AF40F21003C4F20503BB609F
:1009100040F21403C4F20503FB6040F22003C4F26A
:1009200005033B6140F22403C4F205037B6140F2FE
:100930003403C4F20503BB6140F23803C4F205037B
:10094000FB614FF000033B627B694FF000021A60CD
:1009500042F26060C2F2000040F20011C4F20501F0
:1009600040F28A224FF0010301F0F2FA4FF01F002B
:10097000FFF796FD4FF000004FF0400101F050FAF4
:100980004FF0000001F08AFA4BF6A033C0F20D03DD
:100990007B624BF6A033C0F20D03BB62FB687A6A40
:1009A0001A60BB68BA6A1A6000F01EFA42F2686305
:1009B000C2F200036FF07F021A7042F26863C2F263
:1009C00000034FF042025A7042F26863C2F2000321
:1009D0004FF000029A7042F26863C2F200034FF0D7
:1009E0000002DA7042F26863C2F200034FF00002C4
:1009F0001A7142F26863C2F200034FF000025A71AA
:100A000042F26863C2F200034FF000029A7142F2B0
:100A10006863C2F200034FF00002DA7142F26863C9
:100A2000C2F200034FF000021A7242F27460C2F286
:100A300000004FF0000100F08FFD4FF0060300931F
:100A400042F27460C2F2000042F26861C2F2000138
:100A50004FF0030242F25463C2F2000300F048FE7A
:100A600042F27460C2F200004FF0000100F0F8FDA5
:100A700042F25463C2F200035B7803F01003002BD0
:100A80000CBF00230123FB6242F25463C2F2000355
:100A90005B7803F04003002B0CBF002301233B6372
:100AA00042F25463C2F200035B7803F02003002B90
:100AB0000CBF002301237B6342F25463C2F20003A4
:100AC0005B785BB24FEAD373BB6342F25463C2F20A
:100AD00000035B7803F00203002B0CBF002301230B
:100AE000FB634FF000033B64FB6A002B24D13B6B9C
:100AF000002B21D07A6A44F24023C0F20F039A42BD
:100B000004D1FB684FF47A721A6010E07B6A03F537
:100B10001C5303F110037B627A6A44F6D353C1F28B
:100B20006203A3FB02134FEA9312FB681A603B6C4B
:100B300003F101033B6426E03B6B002B23D1FB6AEE
:100B4000002B20D07A6A42F2C073C0F209039A42A5
:100B500004D1FB684FF416721A6010E07B6AA3F5AB
:100B60001C53A3F110037B627A6A44F6D353C1F29B
:100B70006203A3FB02134FEA9312FB681A603B6CFB
:100B800003F102033B647B6B002B20D1BB6B002B7A
:100B90001DD0BB6A002B04D1BB684FF000021A6065
:100BA00010E0BB6AA3F51C53A3F11003BB62BA6A41
:100BB00044F6D353C1F26203A3FB02134FEA93122C
:100BC000BB681A603B6C03F104033B6426E0BB6B1B
:100BD000002B23D17B6B002B20D0BA6A47F24073E5
:100BE000C0F21B039A4204D1BB684FF4E1621A6061
:100BF00010E0BB6A03F51C5303F11003BB62BA6A31
:100C000044F6D353C1F26203A3FB02134FEA9312DB
:100C1000BB681A603B6C03F108033B64FB6B002B61
:100C20003BD13B694FF038021A603B6C03F1100373
:100C30003B6442F24C63C2F200031B68002B31D0CC
:100C400042F23852C2F200023B4612681146198045
:100C500003F102034FEA12421A703B4642F260600F
:100C6000C2F2000019464FF0030201F0BFFA4FF044
:100C70000100FFF709FD43F60030C0F65800FFF70A
:100C800061FDFFF743FDFFF76DFD42F24C63C2F2D9
:100C900000034FF000021A6005E03B694FF00002CC
:100CA0001A6000E000BF42F25463C2F20003DB7836
:100CB00087F8463042F25463C2F200035B7987F84A
:100CC000473097F94630002B07D197F94730002B72
:100CD00003D14FF00A033B626AE097F94630002BDC
:100CE00008D197F9473013F1020F03D14FF00B03EE
:100CF0003B625DE097F94630002B08D197F9473009
:100D0000B3F1FF3F03D14FF009033B6250E097F985
:100D10004630B3F1FF3F07D197F94730002B03D19D
:100D20004FF006033B6243E097F94630B3F1FF3FD3
:100D300008D197F94730B3F1FF3F03D14FF00503D6
:100D40003B6235E097F94630B3F1FF3F08D197F9A0
:100D5000473013F1020F03D14FF007033B6227E046
:100D600097F9463013F1020F07D197F94730002B5E
:100D700003D14FF00E033B621AE097F9463013F1AE
:100D8000020F08D197F94730B3F1FF3F03D14FF07D
:100D90000D033B620CE097F9463013F1020F07D1C7
:100DA00097F9473013F1020F02D14FF00F033B6266
:100DB000BB693A6A1A60F8694AF6C87100F08CF9A2
:100DC00097F94630002B4FF000037B6003E07B680F
:100DD00003F101037B607A6848F29F63C0F201036C
:100DE0009A42F4DDE2E500BF80B584B002AF42F282
:100DF0006863C2F200036FF07F021A7042F2686308
:100E0000C2F200034FF042025A7042F26863C2F22B
:100E100000034FF000029A7042F26863C2F20003CE
:100E20004FF0FF32DA7042F26863C2F200034FF013
:100E3000FF321A7142F27460C2F2000000F0B2F99F
:100E40004FF00803009342F27460C2F200004FF0CA
:100E500000014FF040724FF0070300F0EDFA42F24C
:100E60007460C2F200004FF0000100F075FB4FF01B
:100E700003037B6016E04FF00503009342F27460B9
:100E8000C2F2000042F26861C2F200014FF00502B6
:100E900042F25463C2F2000300F02AFC7B6803F1C3
:100EA000FF337B607B68002BE5D142F27460C2F2B5
:100EB00000004FF0000100F0D3FB42F26863C2F281
:100EC00000036FF07F021A7042F26863C2F20003FF
:100ED0006FF03D025A7042F26863C2F200034FF0B5
:100EE00000029A7042F26863C2F200036FF07F0260
:100EF000DA7042F26863C2F200034FF000021A7126
:100F000042F27460C2F200004FF0000100F024FBD6
:100F10004FF00503009342F27460C2F2000042F207
:100F20006861C2F200014FF0050242F25463C2F25E
:100F3000000300F0DDFB42F27460C2F200004FF0EB
:100F4000000100F08DFB42F26863C2F200036FF013
:100F50007F021A7042F26863C2F200034FF022026D
:100F60005A7042F26863C2F200034FF000029A70B6
:100F700042F26863C2F200036FF07F02DA7042F25D
:100F80006863C2F200036FF03F021A7142F26863B5
:100F9000C2F200034FF000025A7142F26863C2F2DB
:100FA00000034FF000029A7142F26863C2F200033C
:100FB0004FF00002DA7142F26863C2F200034FF0B0
:100FC00000021A7242F27460C2F200004FF0000197
:100FD00000F0C2FA4FF00903009342F27460C2F2CB
:100FE000000042F26861C2F200014FF0090242F2D1
:100FF0005463C2F2000300F07BFB42F27460C2F261
:1010000000004FF0000100F02BFB42F26863C2F2D7
:1010100000036FF07F021A7042F26863C2F20003AD
:101020006FF03D025A7042F26863C2F200034FF063
:1010300000029A7042F26863C2F200034FF00002AD
:10104000DA7042F26863C2F200034FF05A021A717A
:1010500042F26863C2F200034FF05A025A7142F240
:101060006863C2F200034FF05A029A7142F2686359
:10107000C2F200034FF05A02DA7142F26863C2F220
:1010800000034FF05A021A7242F27460C2F200007A
:101090004FF0000100F060FA4FF00903009342F2B4
:1010A0007460C2F2000042F26861C2F200014FF0C7
:1010B000090242F25463C2F2000300F019FB42F24B
:1010C0007460C2F200004FF0000100F0C9FA07F1AD
:1010D0000807BD4680BD00BF80B483B000AF786014
:1010E00039603A687B681A6007F10C07BD4680BC1E
:1010F000704700BF80B483B000AF0346FB804EF260
:101100000013CEF20003B7F906204FEA5212F98815
:1011100001F01F014FF0010000FA01F143F8221025
:1011200007F10C07BD4680BC704700BF80B483B098
:1011300000AF0346FB804EF20013CEF20003B7F976
:1011400006204FEA5212F98801F01F014FF001000A
:1011500000FA01F102F1200243F8221007F10C0716
:10116000BD4680BC704700BF80B483B000AF03466B
:10117000FB804EF20013CEF20003B7F906204FEACF
:101180005212F98801F01F014FF0010000FA01F13D
:1011900002F1600243F8221007F10C07BD4680BC43
:1011A000704700BF80B584B000AF78607A6842F2C3
:1011B000F863C2F200039A4207D07A6842F274637D
:1011C000C2F200039A4200D000BE7B689B881BB22B
:1011D0001846FFF7ABFF78684FF000014FF084022C
:1011E00001F03CF97B684FF001025A624FF00003B6
:1011F000FB810DE0FB897A6803F106034FEAC30324
:1012000013444FF0FF325A60FB8903F10103FB8165
:10121000FB89072BEED97A6842F2F863C2F2000329
:101220009A4226D17A6841F20003C4F200031360A7
:101230007B684FF00C029A8042F20003CEF2040366
:1012400042F20002CEF20402126B42F400721A6300
:101250004FF00C00FFF788FF42F20003CEF20403C8
:1012600042F20002CEF20402126B22F400721A6300
:1012700025E07A6841F20003C4F2010313607B6841
:101280004FF00D029A8042F20003CEF2040342F2C4
:101290000002CEF20402126B42F480621A634FF035
:1012A0000D00FFF761FF42F20003CEF2040342F2A9
:1012B0000002CEF20402126B22F480621A637B6891
:1012C0001B687A681268126822F000421A6007F1FF
:1012D0001007BD4680BD00BF80B58AB000AF786002
:1012E0007B681B681B68FB607B681B689B693B61B4
:1012F0007B681B685B687B617B681B689B6ABB6162
:101300007B681B681B6BFB617B681B685B6B3B62CC
:101310007B681B68DB697B627A6842F2F863C2F221
:1013200000039A422ED17A6841F20003C4F200030E
:1013300013607B684FF00C029A8042F20003CEF2F9
:10134000040342F20002CEF20402126B42F4007275
:101350001A634FF00C00FFF707FF42F20003CEF2D2
:10136000040342F20002CEF20402126B22F4007275
:101370001A637B681B687A681268126822F0004260
:101380001A602DE07A6841F20003C4F20103136091
:101390007B684FF00D029A8042F20003CEF2040304
:1013A00042F20002CEF20402126B42F480621A632F
:1013B0004FF00D00FFF7D8FE42F20003CEF2040317
:1013C00042F20002CEF20402126B22F480621A632F
:1013D0007B681B687A681268126822F000421A6003
:1013E000FB6823F00103FB607B681B68FA681A60E6
:1013F0007B681B683A699A617B681B687A695A60E6
:101400007B681B687A681268126842F001021A60F1
:101410007B681B68BA699A627B681B68FA691A6301
:101420007B681B683A6A5A637B681B687A6ADA6170
:1014300007F12807BD4680BD80B584B000AFF860D5
:101440007A600A46FA72FB70FA6842F2F863C2F2F6
:1014500000039A4207D0FA6842F27463C2F20003B2
:101460009A4200D000BEFB7A072B00D900BE3B7E1B
:10147000202B00D900BEFB689B881BB21846FFF7E3
:1014800055FEFB684FF0000283F88020FB681B6864
:10149000FA681268126822F001021A60FB681B6881
:1014A000FA681268126842F002021A60FB681B6850
:1014B000FA681268126842F001021A60FB7A072B80
:1014C0003FD87B68002B0BD07B68B3F1007F07D03F
:1014D0007B68B3F1807F03D07B68B3F1407F0FD18D
:1014E000FA7A796840F20213C2F2004341EA030338
:1014F000F96802F106024FEAC2020A4453600EE0A4
:10150000FA7A796840F20213C2F2000341EA030357
:10151000F96802F106024FEAC2020A445360FB7AFC
:10152000FA6803F106034FEAC30313443A7E1A72C2
:10153000FB7AFA6803F106034FEAC3031344FA780F
:101540005A72FB689B881BB21846FFF7D3FD07F160
:101550001007BD4680BD00BF80B584B000AF786085
:101560000B46FB707A6842F2F863C2F200039A42BB
:1015700007D07A6842F27463C2F200039A4200D044
:1015800000BE7B681B681B6803F00203002B00D1C0
:1015900000BEFB787A6803F106034FEAC3031344E5
:1015A0005B68B3F1FF3F00D100BE7B689B881BB234
:1015B0001846FFF7BBFD7B681B689B6803F00403BC
:1015C000FB60FB68002B02D07868FFF785FE7B6824
:1015D0001B687A681268126822F001021A607B6840
:1015E0001A68FB78796803F106034FEAC3030B44DA
:1015F0005B6813607B681A68FB78796803F10603FF
:101600004FEAC3030B445B7A93617B681A68FB78EB
:10161000796803F106034FEAC3030B441B7A536056
:101620007B681B687A681268126842F001021A60CF
:101630007B681B687A681268D169FA784FF00100FC
:1016400000FA02F241EA0202DA617B689B881BB26F
:101650001846FFF74FFD07F11007BD4680BD00BFDC
:1016600080B584B000AF78600B46FB707A6842F2B8
:10167000F863C2F200039A4207D07A6842F27463B8
:10168000C2F200039A4200D000BE7B681B681B6850
:1016900003F00203002B00D100BE7B689B881BB2C5
:1016A0001846FFF743FD7B681B689B6803F0040343
:1016B000FB60FB68002B02D07868FFF70DFE7B68AB
:1016C0001B687A681268D169FA784FF0010000FA55
:1016D00002F26FEA020201EA0202DA617B689B8889
:1016E0001BB21846FFF706FD07F11007BD4680BD87
:1016F00080B58EB000AFF860B9603B601346FB80E8
:101700004FF000037B834FF00003FB84FA6842F242
:10171000F863C2F200039A4207D0FA6842F2746397
:10172000C2F200039A4200D000BEFB681B681B682F
:1017300003F00203002B00D100BEFA88B7F8403056
:101740001344FB86FB8E002B03D14FF001033B6259
:1017500001E0FB8E3B62FB681B68FA681268D26A84
:1017600042F00C02DA62FB681B689B6803F004031A
:10177000FB62FB6A002B02D0F868FFF7ADFDFB6847
:101780001B68FA681268126822F001021A60FB688E
:101790001968FB681B681B6840F2FF02CFF60072F5
:1017A00003EA02023B6A4FEA03204FF60073C0F2DD
:1017B000FF0300EA030342EA03030B60FB681B68B4
:1017C0004FF008025A60FB681B68FA6812681268DA
:1017D00042F001021A60FB681B689B6803F040033B
:1017E0003B6309E0FB681B681B697B61FB681B6846
:1017F0009B6803F040033B633B6B002BF2D04FF040
:101800000003BB834FF00003FB83BA8BFB889A4233
:101810000FD2FB681B68B98BBA680A4412785A6108
:10182000BB8B03F10103BB83FB8C03F10103FB843E
:101830006AE0BA8BFB8E9A4266D2FB681B684FF057
:1018400000025A61BB8B03F10103BB83FB8C03F1E4
:101850000103FB8458E0FB681B689B6803F04003AE
:101860003B633B6B002B1ED1FB681B681B697B61D4
:101870007A8BFB889A420ED3FA8BB7F840309A42A3
:1018800005D2FA8B3B6813447A69D2B21A70FB8B8B
:1018900003F10103FB837B8B03F101037B83FB8C4F
:1018A00003F1FF33FB84FB681B689B6803F48073C0
:1018B000BB62BB6A002B27D1FB8C032B24D8BA8BCD
:1018C000FB889A420FD2FB681B68B98BBA680A443E
:1018D00012785A61BB8B03F10103BB83FB8C03F1CC
:1018E0000103FB8410E0BA8BFB8E9A420CD2FB689A
:1018F0001B684FF000025A61BB8B03F10103BB83ED
:10190000FB8C03F10103FB847A8BFB8E9A42A2D3FA
:1019100007F13807BD4680BD80B485B000AF786060
:101920004FF00003FB600EE07B681B687A689168EB
:101930007A6812690A4412785A617B681B6903F15C
:1019400001027B681A617B681B689B6803F48073E3
:10195000002B05D17B681A697B68DB689A42E3D368
:101960007B681A697B68DB689A421CD30EE07B684F
:101970001B687A6851697A68D2690A4412785A6198
:101980007B68DB6903F101027B68DA617B681B68B5
:101990009B6803F48073002B05D17B68DA697B6850
:1019A0009B699A42E3D37B685B6A002B1FD07B68FC
:1019B0001A697B68DB689A4219D37B68DA697B68AD
:1019C0009B699A4213D308E07B681B684FF00002C2
:1019D0005A61FB6803F10103FB607B681B689B682D
:1019E00003F48073002B02D1FB681F2BECD907F1A5
:1019F0001407BD4680BC704780B584B000AF7860E6
:101A00007B6893F88030022B15D10CE07B681B6853
:101A10001B69FB607B685B6F002B04D07B685B6F8E
:101A2000FA68104698477B681B689B6803F0400380
:101A3000002BEBD032E07B6893F88030012B25D16E
:101A400017E07B681B681B69FB607B681A6B7B680F
:101A5000DB6A9A4207D27B689A6A7B681B6B1344E5
:101A6000FA68D2B21A707B681B6B03F101027B68C3
:101A70001A637B681B689B6803F04003002BE0D06F
:101A80000CE07B681B681B69FB6000E000BF7B68A3
:101A90001B689B6803F04003002BF2D007F110078E
:101AA000BD4680BD80B586B000AF78607B681B689E
:101AB00003F120033B617A6842F2F863C2F200034B
:101AC0009A4207D07A6842F27463C2F200039A42E3
:101AD00000D000BE3B691B6803F00203002B52D00C
:101AE0007B6893F88030022B15D10CE07B681B6873
:101AF0001B69FB607B685B6F002B04D07B685B6FAE
:101B0000FA68104698477B681B689B6803F040039F
:101B1000002BEBD032E07B6893F88030012B25D18D
:101B200017E07B681B681B69FB607B681A6B7B682E
:101B3000DB6A9A4207D27B689A6A7B681B6B134404
:101B4000FA68D2B21A707B681B6B03F101027B68E2
:101B50001A637B681B689B6803F04003002BE0D08E
:101B60000CE07B681B681B69FB6000E000BF7B68C2
:101B70001B689B6803F04003002BF2D07B681B6856
:101B80004FF00202DA603B691B6803F00103DBB22D
:101B9000002B12D07B6893F88030022B05D17B6834
:101BA0001B687A68926F5A6102E07868FFF7B4FEAA
:101BB0007B681B684FF00102DA603B691B6803F029
:101BC0001003002B23D07868FFF716FF7B681B6A91
:101BD000002B0BD07B681B6A7A68916A7A68126B5B
:101BE0000846114698477868FFF796FE7B684FF0E5
:101BF00001025A627B681B687A681268926A22F056
:101C000010029A627B681B684FF01002DA603B6931
:101C10001B6803F00403002B0FD07B681B687A68F5
:101C20001268D26A42F00402DA627868FFF754FB65
:101C30007B681B684FF00402DA603B691B6803F0A5
:101C40000803002B31D07B681B687A681268D26A5F
:101C500042F00802DA627B6893F88030022B13D1DD
:101C60007B681A687B681B68196840F2FF03CFF62F
:101C7000007301EA030343F4807313607B681B68FD
:101C80007A68926F5A610BE07B6893F88030012B81
:101C900006D17B684FF000021A617868FFF73CFEBE
:101CA0007B681B684FF00802DA603B691B6803F031
:101CB0002003002B49D07868FFF79EFE7B681B6BE2
:101CC0007B617B681B6A002B1CD07B684FF0000295
:101CD0005A627B684FF000025A617B684FF0000245
:101CE0009A617B684FF00002DA617B681B684FF0F5
:101CF0001002DA607B681B687A681268926A42F0A8
:101D000010029A627B684FF000021A617B681B68C0
:101D10007A681268D26A42F00C02DA627868FFF7D9
:101D2000FBFD7B684FF000021A637B68DB6F002BC2
:101D300006D07B68DB6F7A68926A104679699847AB
:101D40007B681B684FF02002DA6007F11807BD4678
:101D500080BD00BF684620F007018D4689B500AF01
:101D600042F2F860C2F20000FFF79CFE4FF00C0058
:101D7000FFF7FAF9BD46BDE889408546704700BFC8
:101D8000684620F007018D4689B500AF42F27460C5
:101D9000C2F20000FFF786FE4FF00D00FFF7E4F9F6
:101DA000BD46BDE889408546704700BF80B483B01A
:101DB00000AF0346FB804EF20013CEF20003B7F9EA
:101DC00006204FEA5212F98801F01F014FF001007E
:101DD00000FA01F143F8221007F10C07BD4680BC60
:101DE000704700BF80B483B000AF0346FB804EF263
:101DF0000013CEF20003B7F906204FEA5212F98819
:101E000001F01F014FF0010000FA01F102F1600240
:101E100043F8221007F10C07BD4680BC704700BF95
:101E200080B485B000AF03463960FB71FB79FB607D
:101E3000FB681F2B00D900BEFB681F2B08D8FA686F
:101E400042F23C53C2F2000353F822303A681A605F
:101E500007F11407BD4680BC704700BF80B485B051
:101E600000AF02460B46FA71BB71FB79FB60FB6861
:101E70001F2B00D900BEFB681F2B09D840F20003BE
:101E8000C4F22623FA68B97902F5886243F8221071
:101E900007F11407BD4680BC704700BF80B584B011
:101EA00000AF0346FB71FB79FB60FB681F2B00D979
:101EB00000BEFB681F2B1ED8FA6842F23C53C2F2E8
:101EC000000353F822301B68BB60FA6842F23C53AF
:101ED000C2F2000353F82230BA6842F008021A60D6
:101EE000FA6842F2BC53C2F2000333F812301BB25C
:101EF0001846FFF75BFF07F11007BD4680BD00BF26
:101F000080B584B000AF0346FB71FB79FB60FB68D2
:101F10001F2B00D900BEFB681F2B15D843F200030E
:101F2000C4F20103FA684FF0010101FA02F2C3F8AA
:101F30008020FA6842F2BC53C2F2000333F8123038
:101F40001BB21846FFF74EFF07F11007BD4680BDD4
:101F500080B590B000AFF860B960FA807B71FB6823
:101F6000002B23D142F2FC53C2F2000307F1140C00
:101F70009E46BEE80F00ACE80F00BEE80F00ACE8DC
:101F80000F009EE80300CCF800000CF1040CACF844
:101F900000100CF1020C4FEA11438CF8003007F1ED
:101FA000140318464FF0300100F0D4F97B79072B69
:101FB00023D942F2FC53C2F2000307F1140C9E46EF
:101FC000BEE80F00ACE80F00BEE80F00ACE80F0061
:101FD0009EE80300CCF800000CF1040CACF80010F3
:101FE0000CF1020C4FEA11438CF8003007F1140396
:101FF00018464FF0310100F0ADF9FA8841F6FF7351
:102000009A4223D942F2FC53C2F2000307F1140CA6
:102010009E46BEE80F00ACE80F00BEE80F00ACE83B
:102020000F009EE80300CCF800000CF1040CACF8A3
:1020300000100CF1020C4FEA11438CF8003007F14C
:10204000140318464FF0320100F084F9FB68002BAE
:1020500000F0C7807B79072B00F2C380FA8841F635
:10206000FF739A4200F2BD80BB6803F10802FB884F
:1020700003F0FF031046194600F0B0F9BB6803F106
:102080000C027979FB8803F47F434FEA631341EA3A
:1020900003031046194600F0A1F9FB68BA681A60FC
:1020A000FB681B6803F10803184600F099F9034622
:1020B000FB87FB681B6803F10C03184600F090F9DE
:1020C000034687F83C3097F83C3023F0070387F845
:1020D0003D3097F83D304FEA43139AB2FB8F42EA06
:1020E0000303FB8797F83C3003F0070387F83C3085
:1020F000FA8FFB889A4223D042F2FC53C2F20003CB
:1021000007F1140C9E46BEE80F00ACE80F00BEE8D5
:102110000F00ACE80F009EE80300CCF800000CF1C3
:10212000040CACF800100CF1020C4FEA11438CF8CF
:10213000003007F1140318464FF0540100F00AF97B
:1021400097F83C207B799A4223D042F2FC53C2F2AA
:10215000000307F1140C9E46BEE80F00ACE80F0028
:10216000BEE80F00ACE80F009EE80300CCF80000CA
:102170000CF1040CACF800100CF1020C4FEA114306
:102180008CF8003007F1140318464FF0550100F0A9
:10219000E1F8FB681B6803F11003184600F020F912
:1021A000034603F0020387F83B3012E0FB681B682C
:1021B00003F10403184600F013F9FB681B6803F1F0
:1021C0001003184600F00CF9034603F0020387F8E9
:1021D0003B3097F83B30002BE8D1FB684FF0000212
:1021E0001A7107F14007BD4680BD00BF80B590B0B1
:1021F00000AFF860B9607A60FB68002B23D142F22F
:10220000FC53C2F2000307F1100C9E46BEE80F001B
:10221000ACE80F00BEE80F00ACE80F009EE803003A
:10222000CCF800000CF1040CACF800100CF1020C1E
:102230004FEA11438CF8003007F1100318464FF0B5
:102240007C0100F087F8BB68002B23D142F2FC53DD
:10225000C2F2000307F1100C9E46BEE80F00ACE886
:102260000F00BEE80F00ACE80F009EE80300CCF8BA
:1022700000000CF1040CACF800100CF1020C4FEA59
:1022800011438CF8003007F1100318464FF07D0120
:1022900000F060F87B68002B23D142F2FC53C2F2BD
:1022A000000307F1100C9E46BEE80F00ACE80F00DB
:1022B000BEE80F00ACE80F009EE80300CCF8000079
:1022C0000CF1040CACF800100CF1020C4FEA1143B5
:1022D0008CF8003007F1100318464FF07E0100F033
:1022E00039F8FB68002B2BD0BB68002B28D07B680B
:1022F000002B25D04FF00003BB631DE0FB681B687B
:1023000003F11003184600F06BF8034603F00103D5
:1023100087F83F3097F83F30002BEFD0FB681A6802
:10232000B968BB6B0B441B781046194600F056F891
:10233000BB6B03F10103BB63BA6B7B689A42DDD3CD
:1023400007F14007BD4680BD80B400AFBD4680BCEC
:10235000704700BF80B487B000AF786039607B6899
:102360007B613B683B617B691B78DBB2FB733B693C
:10237000BB60BB6803F10103BB60F0E7016070471D
:10238000006870470EB503FA01F303EA020301681F
:102390006FEA020201EA020141EA030101600EBD97
:1023A000006800EA020020FA01F0704701807047DF
:1023B000008870470EB503FA01F303EA02030188AF
:1023C0006FEA020201EA020141EA030101800EBD47
:1023D000008800EA020020FA01F07047017070479F
:1023E000007870470EB503FA01F303EA020301789F
:1023F0006FEA020201EA020141EA030101700EBD27
:10240000007800EA020020FA01F0704770B542F24D
:102410003C6642F23C65C2F20006C2F20005761B41
:10242000B61006D0002455F8243001349847A6424F
:10243000F9D842F23C6542F24066C2F20005C2F2AF
:102440000006761B00F0EEF8B61006D0002455F812
:10245000243001349847A642F9D870BD032AC9B286
:1024600030B407D822B10023C15401339342FBD1C9
:1024700030BC704700EB020C034601E003F8011C7E
:1024800003F003041A460133002CF7D14FF0013357
:10249000C2EB0C0403FB01F31FE042F8403C42F89E
:1024A0003C3C42F8383C42F8343C42F8303C42F87C
:1024B0002C3C42F8283C42F8243C42F8203C42F8AC
:1024C0001C3C42F8183C42F8143C42F8103C42F8DC
:1024D0000C3C42F8083C42F8043C154640323F2C84
:1024E000A4F14004D9DC2A46C5EB0C0407E042F80D
:1024F000103C42F80C3C42F8083C42F8043C1546BB
:1025000010320F2CA4F11004F1DC2A46C5EB0C05A7
:1025100001E042F8043C14460432032DA5F1040501
:10252000F7DC01E004F8011B6445FBD3A0E700BF22
:102530007100000023310A0023300A0000300140FE
:1025400004300140083001400C300140103001409F
:1025500014300140183001401C300140203001404F
:1025600024300140283001402C30014030300140FF
:1025700034300140383001403C30014040300140AF
:1025800044300140483001404C300140503001405F
:1025900054300140583001405C300140603001400F
:1025A00064300140683001406C30014070300140BF
:1025B00074300140783001407C300140200021001F
:1025C00022002300240025002600270028002900DF
:1025D0002A002B002C002D002E002F00300031008F
:1025E000320033003400350036003700380039003F
:1025F0003A003B003C003D003E003F002E2E2F6481
:102600007269766572732F436F72655541525461DA
:1026100070622F636F72655F756172745F61706263
:102620002E630000F8B500BFF8BC08BC9E4670479A
:10263000F8B500BFF8BC08BC9E4670478504002072
:042640007104002001
:0C26440000000000010000000100000088
:04000005200002993C
:00000001FF
